:1000000047C1000076C1000074C1000072C1000049
:1000100070C100006EC100006CC100006AC1000028
:1000200068C1000066C1000064C1000062C1000038
:1000300060C100005EC100005CC100005AC1000048
:1000400058C1000056C1000054C1000052C1000058
:1000500050C100004EC100004CC10000C9C60000E4
:1000600048C10000E3C70000B8C7000042C100005B
:1000700040C100003EC100003CC100003AC1000088
:1000800038C1000036C1000034C1000032C1000098
:1000900030C100002EC100002CC100002AC10000A8
:1000A00028C1000026C1000024C1000022C10000B8
:1000B00020C100001EC100001CC100001AC10000C8
:1000C00018C1000016C1000014C1000012C10000D8
:1000D00010C100000EC100000CC100000AC10000E8
:1000E00008C1000027042A0419041D042104610426
:1000F0002E04320438043C04400446044A044E04EE
:100100006104540458045C047E306D79335B5F7085
:100110007F7B771F0D3D4F4700000000000000006F
:1001200000000000000000000000000000000000CF
:1001300000000000800180007E306D79335B5F70CD
:100140007F7B00000000000000771F0D3D4F47003F
:10015000370000000E0000006700000000000000F3
:10016000000000000000000800771F0D3D4F470011
:10017000370000000E00151D6700000000000000A1
:10018000000000000000000000000A0B02090C0D36
:100190000E0807030401000000000000000000003A
:1001A000000000000000000000000000000000004F
:1001B000000000001211100000000000000000000C
:1001C000000000000000000000000000000000002F
:1001D0002200250028002B002E00310034000201EF
:1001E0000000050108010B01000021002400270088
:1001F0002A002D0030003300010100000401070136
:100200000A0105050505070508080808020202029B
:100210000A0A0808040404040101010101010101A2
:100220000303030303030303040707070C0C0C0C6D
:100230000C0C0C0C02020202060606060606060656
:100240000B0B0B0B0B0B0B0B0102102020080810E3
:100250002040102040800201020108040201010236
:10026000040810204080804020100804020180040F
:10027000020180402010080402010804020101026A
:1002800004081020408001020408102040801E0F46
:1002900011241FBECFEFD1E2DEBFCDBF00E00CBF07
:1002A00012E0A0E0B2E0ECE3FAE200E00BBF02C033
:1002B00007900D92AC37B107D9F724E0ACE7B2E074
:1002C00001C01D92AE32B207E1F711E0C8E4D1E0FF
:1002D00000E006C021970109802FFE010E94DF1077
:1002E000C734D10780E00807A9F70E94D10B0C940E
:1002F0001C1586CEFC01918D228D892F90E0805CAB
:100300009F4F821B91098F739927089580E090E099
:10031000892B19F0ECD5811125C080E090E0892B64
:1003200041F080E090E0892B21F00E9400008111D3
:100330001CC080E090E0892B41F080E090E0892BA8
:1003400021F00E940000811113C080E090E0892B11
:10035000A1F080E090E0892B81F00E9400008111E3
:100360000AC008950E940000D8CF0E940000E1CF8B
:100370000E940000EACF0C94000008950F931F9391
:10038000CF93DF9320917F022F5F322F377030930E
:100390007F0220FF02C020E801C020E031FD206480
:1003A000347009F02062205FFC01EC01239600E02C
:1003B00011E06485662331F070E0C8010E94CC1022
:1003C0006F5F01C060E06187322F369F030E30E01F
:1003D000311D1124311102C0168202C03150368302
:1003E000662311F0615061873196CE17DF0709F758
:1003F000DF91CF911F910F91089580E991E00895C9
:10040000389A08950F931F93CF93DF93CDB7DEB73C
:1004100062970FB6F894DEBF0FBECDBF8C01F90115
:10042000DC011C968C917A8369835C834B835E83A9
:100430004D8390819D8791819E8792819F87813096
:1004400021F4CE0101969ADF06C01C861B861A860F
:10045000198618861F8283E0888B1A8A198AD80128
:10046000ED91FC910484F585E02DBE016F5F7F4F17
:10047000C801199562960FB6F894DEBF0FBECDBFC6
:10048000DF91CF911F910F9108950F931F93CF93F9
:10049000DF93CDB7DEB762970FB6F894DEBF0FBE1D
:1004A000CDBF8C01F901DC011C968C917A836983A4
:1004B0005C834B835E834D8390819D8791819E8772
:1004C00092819F87813021F4CE01019657DF06C0CB
:1004D0001C861B861A86198618861F82188A1A8A15
:1004E000198AD801ED91FC910484F585E02DBE01B7
:1004F0006F5F7F4FC801199562960FB6F894DEBF03
:100500000FBECDBFDF91CF911F910F91089580E075
:1005100090E00895FC01858596850895CF93DF933B
:1005200000D000D0CDB7DEB7AB011C821D821E8289
:10053000DC01ED91FC910190F081E02D19821A828D
:100540001B829E012F5F3F4FBE016C5F7F4F19954D
:1005500026960FB6F894DEBF0FBECDBFDF91CF91C8
:1005600008950E943C12CF92DF92EF92FF92C090CA
:100570000202D09003028FEFC81683E0D80611F470
:100580008EE128C00D2C000CEE08FF08C701B60153
:100590000E94071024E333E749E153E40E9401106D
:1005A00087FF03C01092890217C0A701960129593D
:1005B000310941095109AEE0B0E00E94B31026E6CE
:1005C00033E040E050E00E949710DA01C901019643
:1005D000A11DB11D8093890290918A0280918902A8
:1005E000890F80938A02C3D780917303FF90EF90A5
:1005F000DF90CF90AAC6AF92BF92CF92DF92EF92D8
:10060000FF920F931F93CF93DF9300D01F92CDB72C
:10061000DEB79C018B01EAE0F0E0BF010E94CC1044
:100620008983CB01BF010E94CC108A83C90164E693
:1006300070E00E94CC10CB01BF010E94CC108B83D4
:10064000C90168EE73E00E94CC106C83C801885326
:100650009C4F6C01DE0111967D015801B4E0AB0E98
:10066000B11C0830110524F580911E0490911F04DF
:100670001816190694F40830110578F4D701EC9196
:10068000E03158F4F0E0E85FFE4F4491F601408B12
:1006900061E0600F80E090E0D6D50F5F1F4FFFEF65
:1006A000CF1ADF0A8FEFE81AF80A0A151B05C9F6F8
:1006B0000F900F900F900F90DF91CF911F910F919E
:1006C000FF90EF90DF90CF90BF90AF900895CF93C1
:1006D000DF9380917C0290917D02EC012196D09372
:1006E0007D02C0937C0288519C4F873F9A4250F410
:1006F00064E070E0CE017FDF60E070E0CE01DF916A
:10070000CF9179CFDF91CF910895CF93DF938091EF
:100710000002863308F0865390917B00282F2870C2
:10072000977F922B90937B002091060290E4299F63
:10073000900111248770822B80937C0080917A0035
:10074000806480937A0080917A0086FDFCCFC0910E
:10075000780080917900D0E0D82BD0930302C09329
:10076000020224EE3CE0DE010E94E7102FEF33E0AE
:1007700040E050E00E94971020930402309305025D
:100780003F932F93DF93CF931F921F9281E492E0C8
:100790009F938F93DED78DB79EB708960FB6F894C8
:1007A0009EBF0FBE8DBFDF91CF910895FC01848D58
:1007B000DF01A80FB11DA35ABF4F2C91848D90E08B
:1007C00001968F739927848FA689B7892C93A08966
:1007D000B1898C91837080648C93938D848D9813F0
:1007E00006C00288F389E02D80818F7D8083089583
:1007F000362F90E0FC01E857FE4F4491FC01E85B86
:10080000FD4F2491FC01EE5FFD4F9491992309F473
:100810006CC0442309F455C050E0FA013197E2312D
:10082000F10508F04EC08827EE58FF4F8F4F0C940B
:10083000DF10809180008F7707C0809180008F7DCE
:1008400003C080918000877F809380003AC084B588
:100850008F7702C084B58F7D84BD33C08091B00096
:100860008F7703C08091B0008F7D8093B00029C046
:10087000809190008F7707C0809190008F7D03C09A
:1008800080919000877F809390001BC08091A00092
:100890008F7707C08091A0008F7D03C08091A0005A
:1008A000877F8093A0000DC0809120018F7707C0C3
:1008B000809120018F7D03C080912001877F8093EC
:1008C0002001E92FF0E0EE0FFF1FE253FE4FA5914C
:1008D000B4919FB7F894311104C08C9120952823CE
:1008E00002C0EC912E2B2C939FBF08953FB7F89434
:1008F0008091850290918602A0918702B091880232
:1009000026B5A89B05C02F3F19F00196A11DB11D6A
:100910003FBFBA2FA92F982F8827820F911DA11DA5
:10092000B11DBC01CD0142E0660F771F881F991FE2
:100930004A95D1F708954F925F926F927F928F926E
:10094000AF92BF92CF92DF92EF920F931F93CF930C
:10095000DF933C01EB01CADFF30127853089621B7D
:10096000730B6A307105B8F3F894E881F98178B1B6
:10097000716068B16E7F68B9CA848F812C2D281B85
:10098000822F2F83BF844A805B801D850C85DE8487
:100990001F5F0F5FD3949E813885A984EB844181CA
:1009A000D20120E0C32F522F322F31814427889467
:1009B0003111380F08F43FEF8195889410FD430FF3
:1009C0004795889411FD430F4795889412FD430F76
:1009D0004795889413FD430F4795889414FD430F62
:1009E0004795889415FD430F4795889416FD430F4E
:1009F0004795889417FD430F47958894232F11112D
:100A0000242F8C0D422F002C78B900C047FF68B905
:100A100030812227889400C000C0002C68B93111B1
:100A2000390F00C0002C78B900C046FF68B908F43F
:100A30003FEF9195889400C000C0002C68B900FD7C
:100A4000230F00C0002C78B900C045FF68B9279576
:100A5000889401FD230F00C000C0002C68B92795C1
:100A6000889400C0002C78B900C044FF68B902FD2A
:100A7000230F2795889400C000C0002C68B903FD9F
:100A8000230F00C0002C78B900C043FF68B9279538
:100A9000889404FD230F00C000C0002C68B927957E
:100AA000889400C0002C78B900C042FF68B905FDE9
:100AB000230F2795889400C000C0002C68B906FD5C
:100AC000230F00C0002C78B900C041FF68B92795FA
:100AD000889407FD230F00C000C0002C68B927953B
:100AE000889400C0002C78B900C040FF68B9432F3B
:100AF0000111422F9A0D00C000C0002C68B900C03F
:100B000000C0002C78B900C047FF68B932812227A5
:100B1000889400C000C0002C68B931113C0F00C09F
:100B2000002C78B900C046FF68B908F43FEFEB0D20
:100B3000F11D00C000C0002C68B9D0FC230F00C01C
:100B4000002C78B900C045FF68B927958894D1FC7E
:100B5000230F00C000C0002C68B92795889400C0FE
:100B6000002C78B900C044FF68B9D2FC230F279548
:100B7000889400C000C0002C68B9D3FC230F00C0CB
:100B8000002C78B900C043FF68B927958894D4FC3D
:100B9000230F00C000C0002C68B92795889400C0BE
:100BA000002C78B900C042FF68B9D5FC230F279507
:100BB000889400C000C0002C68B9D6FC230F00C088
:100BC000002C78B900C041FF68B927958894D7FCFC
:100BD000230F00C000C0002C68B92795889400C07E
:100BE000002C78B900C040FF68B9432FD110422FC4
:100BF000C19500C000C0002C68B9CE0D00C000C077
:100C000078B900C047FF68B931812227889400C0B5
:100C100000C0002C68B93111380F00C0002C78B921
:100C200000C046FF68B908F43FEF8195889400C082
:100C300000C0002C68B910FD230F00C0002C78B94B
:100C400000C045FF68B92795889411FD230F00C0A7
:100C500000C0002C68B92795889400C0002C78B992
:100C600000C044FF68B912FD230F2795889400C087
:100C700000C0002C68B913FD230F00C0002C78B908
:100C800000C043FF68B92795889414FD230F00C066
:100C900000C0002C68B92795889400C0002C78B952
:100CA00000C042FF68B915FD230F2795889400C046
:100CB00000C0002C68B916FD230F00C0002C78B9C5
:100CC00000C041FF68B92795889417FD230F00C025
:100CD00000C0002C68B92795889400C0002C78B912
:100CE00000C040FF68B9432F1111422F8C0D00C086
:100CF00000C0002C68B9119709F086CE20EE31E0D3
:100D0000D2010E94E710DC01CB01F4E0B695A79573
:100D100097958795FA95D1F720E030E0B901EAE997
:100D20004E9E040C611D5E9E600D711D1124650DAB
:100D3000711D860F971FA11DB11D893E43E09407C9
:100D4000A105B10508F434C0885E9340A109B1093A
:100D500042E0B695A795979587954A95D1F747E0D4
:100D6000849F080E211D949F200D311D1124290FF1
:100D7000311D60917E0270E0860F971F820F931FD6
:100D800040918102509182026091830270918402AD
:100D9000292F3327420F531F611D711D409381027C
:100DA00050938202609383027093840280937E0248
:100DB00078949CDDF301708B6787DF91CF911F9151
:100DC0000F91EF90DF90CF90BF90AF908F907F907A
:100DD0006F905F904F9008952FB7F89460918102C3
:100DE0007091820280918302909184022FBF0895B6
:100DF0001F920F920FB60F9211242F933F938F9350
:100E00009F93AF93BF938091810290918202A091B2
:100E10008302B09184023091800223E0230F2D37AA
:100E200020F40196A11DB11D05C026E8230F0296EE
:100E3000A11DB11D209380028093810290938202B4
:100E4000A0938302B09384028091850290918602E0
:100E5000A0918702B09188020196A11DB11D8093D7
:100E6000850290938602A0938702B0938802BF9177
:100E7000AF919F918F913F912F910F900FBE0F9047
:100E80001F901895089580E090E00895FC01538D1F
:100E9000448D252F30E0842F90E0821B930B541754
:100EA00010F0CF96089501970895FC01918D828DE1
:100EB000981761F0828DDF01A80FB11D5D968C91AE
:100EC000928D9F5F9F73928F90E008958FEF9FEFB9
:100ED0000895FC01918D828D981731F0828DE80F75
:100EE000F11D858D90E008958FEF9FEF089586EDB9
:100EF00092E000DA21E0892B09F420E0822F0895A6
:100F0000EF92FF920F931F93CF93DF93EC0181E059
:100F1000888F9B8D8C8D981305C0E889F989808115
:100F200085FD25C0F62E0B8D10E00F5F1F4F0F7350
:100F30001127E02E8C8DE8120BC00FB607FCFACFFC
:100F4000E889F989808185FFF5CFCE012FDCF2CFCA
:100F50008B8DFE01E80FF11DE35AFF4FF0829FB722
:100F6000F8940B8FEA89FB89808180620AC09FB761
:100F7000F894EE89FF896083E889F989808183701C
:100F8000806480839FBF81E090E0DF91CF911F91CB
:100F90000F91FF90EF900895CF93DF93EC01888D30
:100FA0008823C1F0EA89FB89808185FD05C0A88975
:100FB000B9898C9186FD0EC00FB607FCF5CF8081F4
:100FC00085FFF2CFA889B9898C9185FFEDCFCE013D
:100FD000EDDBE8CFDF91CF9108951F920F920FB60E
:100FE0000F9211240BB60F922F933F934F935F9361
:100FF0006F937F938F939F93AF93BF93EF93FF93E1
:1010000086ED92E0D3DBFF91EF91BF91AF919F917D
:101010008F917F916F915F914F913F912F910F90A1
:101020000BBE0F900FBE0F901F9018951F920F923E
:101030000FB60F9211240BB60F922F938F939F939D
:10104000EF93FF93E091E602F091E7028081E09157
:10105000EC02F091ED0282FD12C090818091EF02CE
:101060008F5F8F732091F002821751F0E091EF02B1
:10107000F0E0EA52FD4F958F8093EF0201C080812E
:10108000FF91EF919F918F912F910F900BBE0F9039
:101090000FBE0F901F901895CF92DF92EF92FF92A4
:1010A0000F931F93CF93DF936C017A018B01C0E004
:1010B000D0E0CE15DF0581F0D8016D918D01D6010C
:1010C000ED91FC910190F081E02DC6011995892BDD
:1010D00011F02196EECF7E01C701DF91CF911F91D4
:1010E0000F91FF90EF90DF90CF900895E6EDF2E042
:1010F000A089B18982E08C93A485B5851C92A685D0
:10110000B78583E38C93108EA489B58986E08C9390
:10111000A289B3898C9180618C93A289B3898C91C7
:1011200088608C93A289B3898C9180688C930288A3
:10113000F389E02D80818F7D808308958F929F9227
:10114000AF92BF92EF92FF920F931F93CF93DF93D3
:101150007C014A015B01C091D402D091D502209755
:1011600041F58091D2029091D302892B11F56FE065
:1011700070E081E090E00E940111FC013097F1F3F2
:10118000F286E18685829682A782B0861082F093ED
:10119000D302E093D202F093D502E093D40280917F
:1011A000D0029091D10201969093D1028093D00207
:1011B0003EC00091D0021091D1020115110569F0D5
:1011C000209759F0FE0181859285E816F90651F1C4
:1011D0000384F485E02D3097B1F78B859C850097CB
:1011E00011F0EC01FACF6FE070E081E090E00E9436
:1011F0000111FC013097F1F3F286E1868582968237
:10120000A782B0861082FC87EB87D687C587F093CC
:10121000D302E093D2020F5F1F4F1093D1020093CD
:10122000D00205C085829682A782B0861082CF0147
:10123000DF91CF911F910F91FF90EF90BF90AF90F2
:101240009F908F900895AF92BF92CF92DF92EF92CE
:10125000FF920F931F93CF93DF931F921F92CDB7EF
:10126000DEB769834A83880F991F00911E0410918D
:101270001F04000F111FE8ECF3E09F01285C3340CE
:101280002017310714F41192F8CF2981FC01E8539B
:10129000FC4F21838A81808360E080911C04A8DA5E
:1012A000101611061CF501501109F801E853FC4F06
:1012B000C080B0901A04A090180487E0E82EF12CAA
:1012C000D12CB6010E2C02C0759567950A94E2F7F1
:1012D00061708A2D8DDA61E08B2D8ADA60E08B2DCA
:1012E00087DA81E0E81AF10860F7DACF61E08091EF
:1012F0001C040F900F90DF91CF911F910F91FF90E1
:10130000EF90DF90CF90BF90AF9072CAEF92FF92B4
:101310000F931F93CF937C018C0183E0000F111F6B
:101320008A95E1F708521C4FC1E0F80111928F0134
:1013300040E06C2FC70187DFCF5FC930B1F7CF9195
:101340001F910F91FF90EF9008953F924F925F92FF
:101350006F927F928F929F92AF92BF92CF92DF92C5
:10136000EF92FF920F931F93CF93DF9300D0CDB7EF
:10137000DEB7F82E8091760390917703A0917803E1
:10138000B0917903892B8A2B8B2BE1F0AFDA009196
:101390002604109127042091280430912904DC01AF
:1013A000CB01801B910BA20BB30B00917603109124
:1013B0007703209178033091790380179107A20772
:1013C000B307C0F293DA60932604709327048093E6
:1013D000280490932904E0917E03F0917F033097D5
:1013E00059F040917A0350917B0360917C03709196
:1013F0007D038F2D1995F82E0091CE021091CF020A
:101400004F2C512C612C712C0115110509F45DC074
:10141000D8011C96EC901C978091740390917503F1
:101420008436910510F41C961C92D801ED91FC9124
:10143000A280B38019821A821B82F11014C0F801B5
:1014400045855685628173819E012F5F3F4FC8019C
:10145000F5011995D8011C96EC921C9714960D91E4
:101460001C911597D1CFF8013696CE0101966C01EB
:10147000480199E0890E911C21912223F9F03280D4
:101480003320E1F0822F90E0A0E0B0E09C01AD01BC
:101490002F5F3F4F4F4F5F4FC301B20117D69B01E4
:1014A000AC01832D90E0A0E0B0E0BC01CD016F5F06
:1014B0007F4F8F4F9F4F0AD6D6018C93BFEFCB1A29
:1014C000DB0AE815F905C1F6BACF809124049091A2
:1014D00025048C010F5F1F4F1093250400932404F3
:1014E000499784F179DC4B015C0188EE93E0089F19
:1014F000B001099F700D189F700D1124072E000C6C
:10150000880B990BC0902004D0902104E090220415
:10151000F0902304A50194012C193D094E095F099F
:10152000E4D5309375032093740310922504109230
:10153000240452DC609320047093210480932204DD
:10154000909323040F900F900F90DF91CF911F91F4
:101550000F91FF90EF90DF90CF90BF90AF909F9052
:101560008F907F906F905F904F903F9008950F9372
:101570001F93CF93EAEAF2E0BCE3B80F15E5A0E0D1
:1015800060EF7BEA0AEACFE0382F3F71330F330F69
:10159000330F232F219F020E20E0211D1124922FB3
:1015A000482F4074282F207287FD20C041110AC0A7
:1015B000211103C0492F40950FC025E5290F40E0B8
:1015C0009BEA35C021110FC0309F030E30E0311D62
:1015D0001124472F431B9655442309F433C0292F68
:1015E000942F40E024C0292F209551C041110FC0F5
:1015F00021110AC0309F030E30E0311D1124272F26
:10160000231B95E5930F43C0492F40950DC0211131
:1016100006C035E5390F472F491B932F05C02AEA2D
:10162000290F412F491B922F20E09923A1F0392F38
:10163000369F030E30E0311D932F222361F0392FA6
:10164000922F03C0992331F130E0292F269F020EFB
:1016500020E0211D932F442321F0469F040E40E0FB
:10166000411D11245C2F559F050E50E0511D112482
:10167000392F350F3083250F2183450F42838B5F30
:1016800033968B1381CFCF911F910F910895492FDE
:1016900090E0D3CF20E0492FE4CF6115710579F0B8
:1016A000FB0101900020E9F73197AF01461B570B72
:1016B000DC01ED91FC910280F381E02D199480E032
:1016C00090E008958F929F92AF92BF92EF92FF9217
:1016D0000F931F93CF93DF93CDB7DEB7A1970FB6CC
:1016E000F894DEBF0FBECDBF7C01FA01CB0119A279
:1016F000223008F42AE08E010F5D1F4F822E912CBC
:10170000A12CB12CBF01A5019401EFD4F901CA01AC
:10171000015011096A3014F4605D01C0695CD801A0
:101720006C93232B242B252B69F7B801C701B5DF58
:10173000A1960FB6F894DEBF0FBECDBFDF91CF915B
:101740001F910F91FF90EF90BF90AF909F908F905F
:101750000895CF93DF93CDB7DEB7C054D1090FB64C
:10176000F894DEBF0FBECDBFAE01485B5F4F61E4B2
:1017700072E0CE0101968BD6BE016F5F7F4F86ED82
:1017800092E08BDF65E672E086ED92E086DFC05C7A
:10179000DF4F0FB6F894DEBF0FBECDBFDF91CF9104
:1017A0000895789484B5826084BD84B5816084BDD9
:1017B00085B5826085BD85B5816085BD80916E00EF
:1017C000816080936E001092810080918100826020
:1017D000809381008091810081608093810080915D
:1017E00080008160809380008091B100846080934C
:1017F000B1008091B00081608093B0008091910031
:10180000826080939100809191008160809391002B
:10181000809190008160809390008091A10082600F
:101820008093A1008091A10081608093A1008091AC
:10183000A00081608093A00080912101826080934C
:1018400021018091210181608093210180912001FB
:1018500081608093200180917A00846080937A0077
:1018600080917A00826080937A0080917A00816012
:1018700080937A0080917A00806880937A00109239
:10188000C1001092C4031092C5031092C6031092B7
:10189000C703109282031092830310928403109264
:1018A00085039ADA6B017C014B015C0128EB820E07
:1018B0002BE0921EA11CB11C8FDA6C157D058E05E4
:1018C0009F0528F086169706A806B906A8F786EDA4
:1018D00092E09093C3038093C20308DC7DDA6093A7
:1018E000820370938303809384039093850366E55A
:1018F00072E08091C2039091C303CFDE6DDA6B0179
:101900007C014B015C013AE0830E911CA11CB11CCF
:1019100063DA6C157D058E059F0528F086169706FF
:10192000A806B906A8F781E0809396030E94760482
:101930004B015C0194EFC92EDD24D394E12CF12CF2
:101940000E947604DC01CB0188199909AA09BB0918
:10195000883E9340A105B10598F341E0C41AD1082F
:10196000E108F10858EE850E53E0951EA11CB11C4C
:10197000C114D104E104F10419F7B8DB1092060296
:1019800044E650E060E070E085E893E0D7DB8091CA
:101990009E02811145C01092900210928F028FEF2B
:1019A0008093930280939402809395028093960291
:1019B000809397028093980281E08093990210921D
:1019C0009B0210929A0210929202109291028091C0
:1019D000CE029091CF02892B31F48DE892E0909362
:1019E000CF028093CE02E0918B02F0918C0230976F
:1019F00021F08DE892E0958384838DE892E09093C6
:101A00008C0280938B0210929D0210929C0281E2C4
:101A100092E090938E0280938D0281E080939E02EB
:101A2000389A8AEA92E09093900280938F028CE039
:101A300090E090939B0280939A028091760390911C
:101A40007703A0917803B0917903843C39E0930740
:101A5000A105B10520F484EC99E0A0E0B0E080930A
:101A6000760390937703A0937803B0937903109251
:101A70008A0281E08093890280E079DD809173039E
:101A800064DC41E250E060E070E083EB92E056DB22
:101A900080911E0490911F04181619062CF441E041
:101AA0006CE080E090E0CFDB80911E0490911F04F9
:101AB000181619062CF448E06AE080E090E0C3DBD9
:101AC00080911E0490911F04181619061CF480E0E2
:101AD00090E01CDC48EE53E060E070E087E693E0C5
:101AE0002DDB84EFC82EDD24D394E12CF12C74D9A6
:101AF000672B682B692B39F46FD96230710581052A
:101B0000910508F4FCC068D98090A6029090A702C5
:101B1000A090A802B090A902681579058A059B05D6
:101B200040F46093A6027093A7028093A80290935A
:101B3000A9028090A6029090A702A090A802B0905F
:101B4000A9029B01AC01281939094A095B0949011D
:101B50005A013AEF83169104A104B10408F4CFC0EE
:101B60006093A6027093A7028093A8029093A902A3
:101B7000C0928E03D0928F03E0929003F092910373
:101B80001092920310929303109294031092950373
:101B90008091860390918703A0918803B091890377
:101BA00080938A0390938B03A0938C03B0938D034F
:101BB00013D960938603709387038093880390936F
:101BC00089030AD96093820370938303809384030B
:101BD0009093850301D94B015C0168E672E0809126
:101BE000C2039091C30359DD2AE041E050E060E078
:101BF00070E08091C2039091C30364DD6FE672E0F0
:101C00008091C2039091C30348DD2AE0B501A4018D
:101C10008091C2039091C30355DD61E772E080912A
:101C2000C2039091C30339DD8091860390918703AD
:101C3000A0918803B0918903B501A401481B590BF9
:101C40006A0B7B0B2AE08091C2039091C3033ADDBB
:101C500061E772E08091C2039091C3031EDD409161
:101C60008603509187036091880370918903809166
:101C70008A0390918B03A0918C03B0918D03481B34
:101C8000590B6A0B7B0B2AE08091C2039091C3032E
:101C900019DD63E772E08091C2039091C303FDDC1C
:101CA0009BD8AB01BC012AE08091C2039091C30391
:101CB00009DDC091C203D091C30365E772E0CE0194
:101CC000ECDC65E672E0CE01E8DC86D84B015C0115
:101CD0002B013C0142E0440E511C611C711C7CD85C
:101CE000681579058A059B0508F082C075D8609350
:101CF0008603709387038093880390938903809170
:101D0000D0029091D102892B09F46FC08091D40246
:101D10009091D502892B09F468C05ED84B015C0113
:101D2000C091D402D091D502209709F45EC0888179
:101D300081FD57C089819A81AB81BC81B501A40125
:101D4000481B590B6A0B7B0B8D819E81AF81B88537
:101D5000481759076A077B0708F443C0E985FA85E5
:101D6000199589829A82AB82BC82888180FF39C0B2
:101D70008091D4029091D502C817D90759F4EB8508
:101D8000FC85309739F0F093D502E093D4021686A3
:101D900015861CC08091D2029091D302ED85FE85FC
:101DA000C817D90749F4309739F0F093D302E0937C
:101DB000D202148613860AC0AB85BC851E96FC939E
:101DC000EE931D97ED85FE85B487A387CE01CBD218
:101DD0008091D0029091D10201979093D10280938B
:101DE000D0020B84DC85C02D9FCF0E9486017FCE60
:101DF000461657066806790608F071CF77CF90E04F
:101E0000FC01E85BFD4F2491FC01EE5FFD4F8491E6
:101E1000882399F090E0880F991FFC01E851FE4F4C
:101E2000A591B491FC01E253FE4F859194918FB737
:101E3000F894EC91E22BEC938FBF0895CF93DF934E
:101E40001092D9021092D80288EE93E0A0E0B0E0A0
:101E50008093DA029093DB02A093DC02B093DD0260
:101E600083E392E09093D7028093D60285EC90E0D2
:101E70009093E3028093E20284EC90E09093E50279
:101E80008093E40280EC90E09093E7028093E60276
:101E900081EC90E09093E9028093E80282EC90E07C
:101EA0009093EB028093EA0286EC90E09093ED022F
:101EB0008093EC021092EF021092F0021092F10265
:101EC0001092F2028FEF80937303109275031092B9
:101ED000740310927F0310927E038FEF9FEFDC015B
:101EE00080937A0390937B03A0937C03B0937D034C
:101EF0001092860310928703109288031092890330
:101F000010928A0310928B0310928C0310928D030F
:101F100010928E0310928F031092900310929103EF
:101F200010929203109293031092940310929503CF
:101F3000C3E3D0E0D0931904C093180484E390E085
:101F400090931B0480931A0485E390E090931D0402
:101F500080931C0481E090E090931F0480931E0402
:101F600083E34DDF80911A044ADF80911C0447DF30
:101F700061E080911C040E94F803D0931904C0937F
:101F80001804E8EDF3E0119284E0E831F807D9F79E
:101F9000C0E0D0E080911E0490911F04C817D907BB
:101FA0006CF540E06FE0CE014ED9D7FD0BC08091BB
:101FB0001E0490911F04C817D90724F447E06BE072
:101FC000CE0141D940E069E0CE013DD9D7FD14C032
:101FD00080911E0490911F04C817D90714F4CE01F4
:101FE00095D980911E0490911F04C817D90724F435
:101FF00040E06CE0CE0127D92196CCCFDF91CF9184
:10200000089540D008F481E00895E89409C097FB52
:102010003EF490958095709561957F4F8F4F9F4FBF
:102020009923A9F0F92F96E9BB279395F695879503
:1020300077956795B795F111F8CFFAF4BB0F11F4C6
:1020400060FF1BC06F5F7F4F8F4F9F4F16C088236D
:1020500011F096E911C0772321F09EE8872F762FA3
:1020600005C0662371F096E8862F70E060E02AF0E4
:102070009A95660F771F881FDAF7880F96958795D0
:1020800097F90895990F0008550FAA0BE0E8FEEFA5
:1020900016161706E807F907C0F012161306E4072C
:1020A000F50798F0621B730B840B950B39F40A2625
:1020B00061F0232B242B252B21F408950A2609F403
:1020C000A140A6958FEF811D811D0895DB018F939F
:1020D0009F9349D0BF91AF91A29F800D911DA39F67
:1020E000900DB29F900D11240895A1E21A2EAA1B03
:1020F000BB1BFD010DC0AA1FBB1FEE1FFF1FA217B8
:10210000B307E407F50720F0A21BB30BE40BF50BB4
:10211000661F771F881F991F1A9469F7609570953D
:10212000809590959B01AC01BD01CF010895052ECE
:1021300097FB16F400940FD057FD05D0D6DF07FCAF
:1021400002D046F408C050954095309521953F4FF8
:102150004F4F5F4F089590958095709561957F4F93
:102160008F4F9F4F089509D0A59F900DB49F900D5C
:10217000A49F800D911D11240895A29FB001B39FCB
:10218000C001A39F700D811D1124911DB29F700D80
:10219000811D1124911D089597FB072E16F40094BC
:1021A00006D077FD08D019D007FC05D03EF49095F5
:1021B00081959F4F0895709561957F4F0895EE0F1B
:1021C000FF1F881F8BBF0790F691E02D1994D5DF74
:1021D000B7FF0895821B930B0895AA1BBB1B51E107
:1021E00007C0AA1FBB1FA617B70710F0A61BB70B87
:1021F000881F991F5A95A9F780959095BC01CD012C
:1022000008950F931F93CF93DF93869F8001879F3D
:10221000100D969F100D1124C8010DD0EC010097F0
:1022200021F0A80160E070E02BD1CE01DF91CF91C9
:102230001F910F9108950F931F93CF93DF938230D7
:10224000910510F482E090E0E0912C04F0912D04CF
:1022500020E030E0A0E0B0E0309719F140815181FA
:102260000281138148175907C8F08417950769F44C
:10227000109731F012960C93129713961C9327C067
:1022800000932C0410932D0422C02115310519F060
:102290004217530718F49A01BD01EF01DF01F8015D
:1022A000DBCF21153105F9F0281B390B243031051E
:1022B00080F48A819B816115710521F0FB01938374
:1022C000828304C090932D0480932C04FE013296E7
:1022D00044C0FE01E20FF31F819391932250310914
:1022E000398328833AC020912A0430912B04232B70
:1022F00041F42091090230910A0230932B0420937B
:102300002A0420910702309108022115310541F479
:102310002DB73EB740910B0250910C02241B350B98
:10232000E0912A04F0912B04E217F307A0F42E1B8E
:102330003F0B2817390778F0AC014E5F5F4F241729
:10234000350748F04E0F5F1F50932B0440932A042B
:102350008193919302C0E0E0F0E0CF01DF91CF9153
:102360001F910F910895CF93DF93009709F481C0D7
:10237000FC01329713821282A0912C04B0912D049B
:10238000109781F420813181820F931F20912A04BC
:1023900030912B042817390751F5F0932B04E09363
:1023A0002A0467C0ED0120E030E0CE17DF0740F4DB
:1023B0004A815B819E0141155105F1F0EA01F5CF9B
:1023C000D383C28340815181840F951FC817D907D9
:1023D00059F488819981840F951F02969183808397
:1023E0008A819B81938382832115310529F4F0939F
:1023F0002D04E0932C043DC0E901FB83EA8349915D
:102400005991C40FD51FEC17FD0761F480819181AC
:10241000840F951F0296E9019983888382819381B5
:102420009B838A83E0E0F0E012968D919C91139754
:10243000009719F0FD01DC01F7CF8D919C91119768
:102440009D012E5F3F4F820F931F20912A043091F0
:102450002B042817390769F4309729F410922D04BA
:1024600010922C0402C013821282B0932B04A0930A
:102470002A04DF91CF91089581E090E0F894DCC2C6
:10248000DC0101C06D9341505040E0F708950F9377
:102490001F93CF93DF93CDB7DEB72E970FB6F89487
:1024A000DEBF0FBECDBF8C0186E08C831A8309830B
:1024B0008FEF9FE79E838D83CE01019610D0EF8131
:1024C000F885E00FF11F10822E960FB6F894DEBF4C
:1024D0000FBECDBFDF91CF911F910F9108952F9225
:1024E0003F924F925F926F927F928F929F92AF92A4
:1024F000BF92CF92DF92EF92FF920F931F93CF93F1
:10250000DF93CDB7DEB72B970FB6F894DEBF0FBEC3
:10251000CDBF6C017B018A01FC0117821682838189
:1025200081FFBFC1CE0101963C01F6019381F70105
:1025300093FD859193FF81917F01882309F4ADC1BB
:10254000853239F493FD859193FF81917F01853226
:1025500021F4B60190E0D6D1E8CF912C212C312C7A
:10256000FFE1F315D8F08B3279F038F4803279F04E
:102570008332A1F4232D20611DC08D3261F08033A0
:1025800069F4232D216016C0832D8260382EE32D3F
:10259000E4603E2E2AC0F32DF8601DC037FC2DC02C
:1025A00020ED280F2A3040F08E32B9F436FC75C188
:1025B000232D2064322E19C036FE06C08AE0989E74
:1025C000200D1124922E11C0EAE02E9E200D112420
:1025D000222EF32DF0623F2E08C08C3621F4832D7D
:1025E0008068382E02C0883641F4F70193FD85914A
:1025F00093FF81917F018111B3CF982F9F7D9554D7
:10260000933028F40C5F1F4F9FE399830DC08336EE
:1026100031F0833771F0833509F055C020C0F801DF
:10262000808189830E5F1F4F88248394912C5301EE
:1026300012C02801F2E04F0E511CF801A080B180B9
:1026400036FE03C0692D70E002C06FEF7FEFC50159
:102650004ED14C018201F32DFF773F2E15C028018A
:1026600022E0420E511CF801A080B18036FE03C06A
:10267000692D70E002C06FEF7FEFC5012DD14C01D5
:10268000F32DF0683F2E820133FC19C0822D90E0BB
:1026900088169906A0F4B60180E290E033D12A941E
:1026A000F5CFF50137FC859137FE81915F01B601C9
:1026B00090E028D121102A9421E0821A91088114F7
:1026C000910479F7E1C0843611F0893639F5F801C3
:1026D00037FE07C060817181828193810C5F1F4F3B
:1026E00008C060817181072E000C880B990B0E5F6A
:1026F0001F4FF32DFF763F2E97FF09C090958095D1
:10270000709561957F4F8F4F9F4FF0683F2E2AE065
:1027100030E0A30133D1882E861844C0853731F4C8
:10272000232D2F7EB22E2AE030E025C0932D997FF5
:10273000B92E8F36C1F018F4883579F0AEC08037E5
:1027400019F0883721F0A9C0E92FE061BE2EB4FE50
:102750000DC0FB2DF460BF2E09C034FE0AC0292F26
:102760002660B22E06C028E030E005C020E130E04F
:1027700002C020E132E0F801B7FE07C0608171813C
:10278000828193810C5F1F4F06C06081718180E060
:1027900090E00E5F1F4FA301F1D0882E8618FB2D0D
:1027A000FF773F2E36FE0DC0232D2E7FA22E8914DB
:1027B00058F434FE0BC032FC09C0832D8E7EA82E47
:1027C00005C0B82CA32C03C0B82C01C0B92CA4FEA2
:1027D0000FC0FE01E80DF11D8081803321F49A2D98
:1027E000997EA92E09C0A2FE06C0B394B39404C07A
:1027F0008A2D867809F0B394A3FC10C0A0FE06C011
:10280000B21480F4280C922C9B180DC0B21458F40A
:10281000B60180E290E076D0B394F8CFB21418F409
:102820002B1802C0982C212CA4FE0FC0B60180E307
:1028300090E068D0A2FE16C0A1FC03C088E790E03B
:1028400002C088E590E0B6010CC08A2D867851F070
:10285000A1FE02C08BE201C080E2A7FC8DE2B601BE
:1028600090E050D0891430F4B60180E390E04AD073
:102870009A94F8CF8A94F301E80DF11D8081B60196
:1028800090E040D08110F6CF222009F44ECEB60160
:1028900080E290E037D02A94F7CFF60186819781C5
:1028A00002C08FEF9FEF2B960FB6F894DEBF0FBEDE
:1028B000CDBFDF91CF911F910F91FF90EF90DF90EF
:1028C000CF90BF90AF909F908F907F906F905F90D0
:1028D0004F903F902F900895FC01059061507040FB
:1028E0000110D8F7809590958E0F9F1F0895FC01D9
:1028F0006150704001900110D8F7809590958E0F2F
:102900009F1F08950F931F93CF93DF93FB012381A4
:1029100021FD03C08FEF9FEF2CC022FF16C0468120
:102920005781248135814217530744F4A081B18136
:102930009D012F5F3F4F318320838C932681378108
:102940002F5F3F4F3783268314C08B01EC01FB01BF
:102950000084F185E02D1995892BE1F6D8011696B2
:102960008D919C911797019617969C938E9316972D
:10297000CE01DF91CF911F910F910895FA01AA27FF
:10298000283051F1203181F1E8946F936E7F6E5FB2
:102990007F4F8F4F9F4FAF4FB1E03ED0B4E03CD060
:1029A000670F781F891F9A1FA11D680F791F8A1F43
:1029B000911DA11D6A0F711D811D911DA11D20D0AA
:1029C00009F468943F912AE0269F11243019305D64
:1029D0003193DEF6CF010895462F4770405D419355
:1029E000B3E00FD0C9F7F6CF462F4F70405D4A33A2
:1029F00018F0495D31FD4052419302D0A9F7EACF6A
:102A0000B4E0A6959795879577956795BA95C9F798
:102A100000976105710508959B01AC010A2E06948B
:102A20005795479537952795BA95C9F7620F731F44
:0C2A3000841F951FA01D0895F894FFCF8F
:102A3C003600000000000100002E048000000000A1
:102A4C0000B102B102B1028E028A028702000000BC
:102A5C00004502020200028E028A02FD019B040064
:102A6C0000000080074C084607CC077A015507691F
:102A7C0007706F7425693A207261772025692C20C4
:102A8C006D5620256900564D4450565F317C315FA0
:102A9C00564D4450560D0A00564D4450455F003A71
:0C2AAC00323A007C005F564D445045005B
:00000001FF
