:1000000072C00000A0C000009EC000009CC00000A4
:100010009AC0000098C0000096C0000094C0000084
:1000200092C0000090C000008EC000008CC0000094
:100030008AC0000088C0000086C0000084C00000A4
:1000400082C0000080C000007EC000007CC00000B4
:100050007AC0000078C0000076C000006DC50000C6
:1000600072C0000045C100001AC100006CC0000051
:100070006AC0000068C0000066C0000064C00000E4
:1000800062C0000060C000005EC000005CC00000F4
:100090005AC0000058C0000056C0000054C0000004
:1000A00052C0000050C000004EC000004CC0000014
:1000B0004AC0000048C0000046C0000044C0000024
:1000C00042C0000040C000003EC000003CC0000034
:1000D0003AC0000038C0000036C0000034C0000044
:1000E00032C00000B80A11241FBECFEFD1E2DEBF3C
:1000F000CDBF00E00CBF24E0A2E7B2E001C01D923A
:10010000AF33B207E1F712E0A0E0B2E0E6E1F7E1D9
:1001100000E00BBF02C007900D92A237B107D9F7DC
:1001200010E0C3E7D0E000E006C021970109802F6E
:10013000FE010E947D0BC237D10780E00807A9F7B6
:1001400028D70C94890B5CCF089580E090E0089547
:10015000FC01538D448D252F30E0842F90E0821BCD
:10016000930B541710F0CF96089501970895FC0152
:10017000918D828D981761F0828DDF01A80FB11DDE
:100180005D968C91928D9F5F9F73928F90E0089502
:100190008FEF9FEF0895FC01918D828D981731F0BC
:1001A000828DE80FF11D858D90E008958FEF9FEF10
:1001B000089583E493E0D2D021E0892B09F420E074
:1001C000822F0895EF92FF920F931F93CF93DF93A7
:1001D000EC0181E0888F9B8D8C8D981305C0E88998
:1001E000F989808185FD25C0F62E0B8D10E00F5F0B
:1001F0001F4F0F731127E02E8C8DE8120BC00FB626
:1002000007FCFACFE889F989808185FFF5CFCE0117
:10021000F0D1F2CF8B8DFE01E80FF11DE35AFF4FB5
:10022000F0829FB7F8940B8FEA89FB898081806206
:100230000AC09FB7F894EE89FF896083E889F9893D
:1002400080818370806480839FBF81E090E0DF9134
:10025000CF911F910F91FF90EF900895CF93DF936F
:10026000EC01888D8823C1F0EA89FB89808185FDB6
:1002700005C0A889B9898C9186FD0EC00FB607FC10
:10028000F5CF808185FFF2CFA889B9898C9185FF50
:10029000EDCFCE01AED1E8CFDF91CF9108951F927F
:1002A0000F920FB60F9211240BB60F922F933F931C
:1002B0004F935F936F937F938F939F93AF93BF936E
:1002C000EF93FF9383E493E094D1FF91EF91BF917B
:1002D000AF919F918F917F916F915F914F913F91DE
:1002E0002F910F900BBE0F900FBE0F901F9018957F
:1002F0001F920F920FB60F9211240BB60F922F93ED
:100300008F939F93EF93FF93E0915303F0915403E6
:100310008081E0915903F0915A0382FD12C09081CF
:1003200080915C038F5F8F7320915D03821751F082
:10033000E0915C03F0E0ED5BFC4F958F80935C03F4
:1003400001C08081FF91EF919F918F912F910F902C
:100350000BBE0F900FBE0F901F901895FC01918D52
:10036000228D892F90E0805C9F4F821B91098F73B3
:100370009927089580E090E0892B19F01ADF811108
:1003800025C080E090E0892B41F080E090E0892B4F
:1003900021F00E94000081111CC080E090E0892BB8
:1003A00041F080E090E0892B21F00E940000811153
:1003B00013C080E090E0892BA1F080E090E0892BD1
:1003C00081F00E94000081110AC008950E9400007F
:1003D000D8CF0E940000E1CF0E940000EACF0C9429
:1003E000000008950F931F93CF93DF93209137035D
:1003F0002F5F322F37703093370320FF02C020E881
:1004000001C020E031FD2064347009F02062205FDB
:10041000FC01EC01239600E011E06485662331F0D5
:1004200070E0C8010E94500B6F5F01C060E06187FF
:10043000322F369F030E30E0311D1124311102C0DE
:10044000168202C031503683662311F061506187F5
:100450003196CE17DF0709F7DF91CF911F910F91EA
:10046000089580E991E00895229A08950F931F93CB
:10047000CF93DF93CDB7DEB762970FB6F894DEBFA8
:100480000FBECDBF8C01F901DC011C968C917A83E3
:1004900069835C834B835E834D8390819D879181CB
:1004A0009E8792819F87813021F4CE0101969ADF49
:1004B00006C01C861B861A86198618861F8283E052
:1004C000888B1A8A198AD801ED91FC910484F585EC
:1004D000E02DBE016F5F7F4FC801199562960FB680
:1004E000F894DEBF0FBECDBFDF91CF911F910F916A
:1004F00008950F931F93CF93DF93CDB7DEB7629725
:100500000FB6F894DEBF0FBECDBF8C01F901DC0140
:100510001C968C917A8369835C834B835E834D83C5
:1005200090819D8791819E8792819F87813021F460
:10053000CE01019657DF06C01C861B861A861986D7
:1005400018861F82188A1A8A198AD801ED91FC919F
:100550000484F585E02DBE016F5F7F4FC8011995BA
:1005600062960FB6F894DEBF0FBECDBFDF91CF917C
:100570001F910F91089580E090E00895FC0185851A
:1005800096850895CF93DF9300D000D0CDB7DEB726
:10059000AB011C821D821E82DC01ED91FC91019059
:1005A000F081E02D19821A821B829E012F5F3F4F3E
:1005B000BE016C5F7F4F199526960FB6F894DEBF8B
:1005C0000FBECDBFDF91CF9108950E94850B809122
:1005D00072028F5F80937202809128045AC36AE589
:1005E00072E083E493E0C3C466E672E083E493E0E0
:1005F000BEC4FC01848DDF01A80FB11DA35ABF4FFB
:100600002C91848D90E001968F739927848FA68911
:10061000B7892C93A089B1898C91837080648C9365
:10062000938D848D981306C00288F389E02D808114
:100630008F7D808308953FB7F89480913D0390911A
:100640003E03A0913F03B091400326B5A89B05C08F
:100650002F3F19F00196A11DB11D3FBFBA2FA92F41
:10066000982F8827820F911DA11DB11DBC01CD01BE
:1006700042E0660F771F881F991F4A95D1F70895AA
:100680004F925F926F927F928F92AF92BF92CF9272
:10069000DF92EF920F931F93CF93DF933C01EB0117
:1006A000CADFF30127853089621B730B6A3071053D
:1006B000B8F3F894E881F98175B1746065B16B7F26
:1006C00065B9CA848F812C2D281B822F2F83BF846C
:1006D0004A805B801D850C85DE841F5F0F5FD3948D
:1006E0009E813885A984EB844181D20120E0C32F0B
:1006F000522F322F3181442788943111380F08F45A
:100700003FEF8195889410FD430F4795889411FD24
:10071000430F4795889412FD430F4795889413FD26
:10072000430F4795889414FD430F4795889415FD12
:10073000430F4795889416FD430F4795889417FDFE
:10074000430F47958894232F1111242F8C0D422F8E
:10075000002C75B900C047FF65B930812227889405
:1007600000C000C0002C65B93111390F00C0002C49
:1007700075B900C046FF65B908F43FEF91958894BC
:1007800000C000C0002C65B900FD230F00C0002C84
:1007900075B900C045FF65B92795889401FD230F01
:1007A00000C000C0002C65B92795889400C0002CBB
:1007B00075B900C044FF65B902FD230F27958894E1
:1007C00000C000C0002C65B903FD230F00C0002C41
:1007D00075B900C043FF65B92795889404FD230FC0
:1007E00000C000C0002C65B92795889400C0002C7B
:1007F00075B900C042FF65B905FD230F27958894A0
:1008000000C000C0002C65B906FD230F00C0002CFD
:1008100075B900C041FF65B92795889407FD230F7E
:1008200000C000C0002C65B92795889400C0002C3A
:1008300075B900C040FF65B9432F0111422F9A0DD1
:1008400000C000C0002C65B900C000C0002C75B904
:1008500000C047FF65B932812227889400C000C0DC
:10086000002C65B931113C0F00C0002C75B900C0D7
:1008700046FF65B908F43FEFEB0DF11D00C000C065
:10088000002C65B9D0FC230F00C0002C75B900C046
:1008900045FF65B927958894D1FC230F00C000C09F
:1008A000002C65B92795889400C0002C75B900C04C
:1008B00044FF65B9D2FC230F2795889400C000C07F
:1008C000002C65B9D3FC230F00C0002C75B900C003
:1008D00043FF65B927958894D4FC230F00C000C05E
:1008E000002C65B92795889400C0002C75B900C00C
:1008F00042FF65B9D5FC230F2795889400C000C03E
:10090000002C65B9D6FC230F00C0002C75B900C0BF
:1009100041FF65B927958894D7FC230F00C000C01C
:10092000002C65B92795889400C0002C75B900C0CB
:1009300040FF65B9432FD110422FC19500C000C0C0
:10094000002C65B9CE0D00C000C075B900C047FFCE
:1009500065B931812227889400C000C0002C65B998
:100960003111380F00C0002C75B900C046FF65B9C1
:1009700008F43FEF8195889400C000C0002C65B951
:1009800010FD230F00C0002C75B900C045FF65B9EC
:100990002795889411FD230F00C000C0002C65B975
:1009A0002795889400C0002C75B900C044FF65B934
:1009B00012FD230F2795889400C000C0002C65B954
:1009C00013FD230F00C0002C75B900C043FF65B9AB
:1009D0002795889414FD230F00C000C0002C65B932
:1009E0002795889400C0002C75B900C042FF65B9F6
:1009F00015FD230F2795889400C000C0002C65B911
:100A000016FD230F00C0002C75B900C041FF65B969
:100A10002795889417FD230F00C000C0002C65B9EE
:100A20002795889400C0002C75B900C040FF65B9B7
:100A3000432F1111422F8C0D00C000C0002C65B94E
:100A4000119709F086CE20EE31E0D2013CD6DC01D0
:100A5000CB01F4E0B695A79597958795FA95D1F7D0
:100A600020E030E0B901EAE94E9E040C611D5E9E73
:100A7000600D711D1124650D711D860F971FA11D3D
:100A8000B11D893E43E09407A105B10508F434C0C7
:100A9000885E9340A109B10942E0B695A795979564
:100AA00087954A95D1F747E0849F080E211D949FB2
:100AB000200D311D1124290F311D6091360370E086
:100AC000860F971F820F931F4091390350913A036D
:100AD00060913B0370913C03292F3327420F531F32
:100AE000611D711D4093390350933A0360933B039A
:100AF00070933C038093360378949DDDF301708BF3
:100B00006787DF91CF911F910F91EF90DF90CF908A
:100B1000BF90AF908F907F906F905F904F900895AF
:100B20002FB7F8946091390370913A0380913B0399
:100B300090913C032FBF08951F920F920FB60F9212
:100B400011242F933F938F939F93AF93BF938091E3
:100B5000390390913A03A0913B03B0913C0330914B
:100B6000380323E0230F2D3720F40196A11DB11D7A
:100B700005C026E8230F0296A11DB11D209338035E
:100B80008093390390933A03A0933B03B0933C03C3
:100B900080913D0390913E03A0913F03B0914003AB
:100BA0000196A11DB11D80933D0390933E03A09338
:100BB0003F03B0934003BF91AF919F918F913F91BD
:100BC0002F910F900FBE0F901F901895E3E7F2E062
:100BD00026813781232B31F0389622E0E33FF2075C
:100BE000B9F7089597838683758364830895CF92B8
:100BF000DF92EF92FF920F931F93CF93DF936C01DD
:100C00007A018B01C0E0D0E0CE15DF0581F0D8017C
:100C10006D918D01D601ED91FC910190F081E02D57
:100C2000C6011995892B11F02196EECF7E01C701DF
:100C3000DF91CF911F910F91FF90EF90DF90CF90B8
:100C40000895E3E4F3E0A089B18982E08C93A48560
:100C5000B5851C92A685B78583E38C93108EA489F5
:100C6000B58986E08C93A289B3898C9180618C933D
:100C7000A289B3898C9188608C93A289B3898C9165
:100C800080688C930288F389E02D80818F7D80833A
:100C900008953F924F925F926F927F928F929F92B0
:100CA000AF92BF92CF92DF92EF92FF920F931F937A
:100CB000CF93DF9300D0CDB7DEB7F82E80912B0411
:100CC00090912C04A0912D04B0912E04892B8A2B95
:100CD0008B2BE1F0B0DC00913B0410913C0420919F
:100CE0003D0430913E04DC01CB01801B910BA20B33
:100CF000B30B00912B0410912C0420912D04309102
:100D00002E0480179107A207B307C0F294DC60930A
:100D10003B0470933C0480933D0490933E04E09127
:100D20003304F0913404309759F040912F045091DE
:100D3000300460913104709132048F2D1995F82E92
:100D400000914103109142034F2C512C612C712CC6
:100D50000115110509F45DC0D8011C96EC901C9793
:100D60008091290490912A048436910510F41C96F0
:100D70001C92D801ED91FC91A280B38019821A8255
:100D80001B82F11014C0F80145855685628173817C
:100D90009E012F5F3F4FC801F5011995D8011C96A0
:100DA000EC921C9714960D911C911597D1CFF801D8
:100DB0003696CE0101966C01480199E0890E911C8E
:100DC00021912223F9F032803320E1F0822F90E04C
:100DD000A0E0B0E09C01AD012F5F3F4F4F4F5F4F50
:100DE000C301B20113D49B01AC01832D90E0A0E0BC
:100DF000B0E0BC01CD016F5F7F4F8F4F9F4F06D496
:100E0000D6018C93BFEFCB1ADB0AE815F905C1F6C2
:100E1000BACF8091390490913A048C010F5F1F4F33
:100E200010933A0400933904499784F179DE4B0119
:100E30005C0188EE93E0089FB001099F700D189F38
:100E4000700D1124072E000C880B990BC0903504EF
:100E5000D0903604E0903704F0903804A501940156
:100E60002C193D094E095F09E0D330932A042093E1
:100E7000290410923A041092390452DE609335042A
:100E80007093360480933704909338040F900F903A
:100E90000F90DF91CF911F910F91FF90EF90DF9016
:100EA000CF90BF90AF909F908F907F906F905F900A
:100EB0004F903F9008956115710579F0FB01019005
:100EC0000020E9F73197AF01461B570BDC01ED918C
:100ED000FC910280F381E02D199480E090E0089568
:100EE0008F929F92AF92BF92EF92FF920F931F93B8
:100EF000CF93DF93CDB7DEB7A1970FB6F894DEBFDF
:100F00000FBECDBF7C01FA01CB0119A2223008F43B
:100F10002AE08E010F5D1F4F822E912CA12CB12C47
:100F2000BF01A501940181D3F901CA010150110942
:100F30006A3014F4605D01C0695CD8016C93232BA6
:100F4000242B252B69F7B801C701B5DFA1960FB691
:100F5000F894DEBF0FBECDBFDF91CF911F910F91EF
:100F6000FF90EF90BF90AF909F908F9008950F9358
:100F70001F93CF93DF93EC019EDF8C0163E472E05B
:100F8000CE0199DF800F911FDF91CF911F910F91BB
:100F90000895789484B5826084BD84B5816084BDF1
:100FA00085B5826085BD85B5816085BD80916E0007
:100FB000816080936E001092810080918100826038
:100FC0008093810080918100816080938100809175
:100FD00080008160809380008091B1008460809364
:100FE000B1008091B00081608093B0008091910049
:100FF0008260809391008091910081608093910044
:10100000809190008160809390008091A100826027
:101010008093A1008091A10081608093A1008091C4
:10102000A00081608093A000809121018260809364
:101030002101809121018160809321018091200113
:1010400081608093200180917A00846080937A008F
:1010500080917A00826080937A0080917A0081602A
:1010600080937A0080917A00806880937A00109251
:10107000C1001092240410922504109226041092AC
:1010800027041092E2031092E3031092E4031092FB
:10109000E50346DD6B017C014B015C0128EB820E10
:1010A0002BE0921EA11CB11C3BDD6C157D058E054D
:1010B0009F0528F086169706A806B906A8F783E4C8
:1010C00093E09093230480932204BBDD29DD609399
:1010D000E2037093E3038093E4039093E50364E3F6
:1010E00072E08091220490912304E5DE19DD6B010A
:1010F0007C014B015C013AE0830E911CA11CB11CE8
:101100000FDD6C157D058E059F0528F08616970668
:10111000A806B906A8F781E08093F6038CDA4B01A4
:101120005C0194EFC92EDD24D394E12CF12C83DAF9
:10113000DC01CB0188199909AA09BB09883E9340B3
:10114000A105B105A0F341E0C41AD108E108F108F6
:1011500058EE850E53E0951EA11CB11CC114D1049C
:10116000E104F10421F76DDD80E8E3E7F2E0DF015F
:101170001D928A95E9F768EE73E084EF92E026DD30
:1011800064EF71E08FEE92E021DD80910603811122
:1011900045C01092F8021092F7028FEF8093FB0285
:1011A0008093FC028093FD028093FE028093FF02F5
:1011B0008093000381E08093010310920303109257
:1011C00002031092FA021092F90280914103909169
:1011D0004203892B31F485EF92E090934203809390
:1011E0004103E091F302F091F402309721F085EF92
:1011F00092E09583848385EF92E09093F40280934C
:10120000F302109205031092040384E192E090939C
:10121000F6028093F50281E080930603229A8EE025
:1012200093E09093F8028093F7028CE090E0909323
:1012300003038093020380912B0490912C04A091CE
:101240002D04B0912E04843C29E09207A105B1053C
:1012500020F484EC99E0A0E0B0E080932B0490931C
:101260002C04A0932D04B0932E0410927202EEE091
:10127000F3E030E055E540EF60E07FE0832F8F71D1
:10128000880F880F880F282F259F020E20E0211D30
:101290001124822F232F207235FD05C0982F9095A1
:1012A000911103C061C18B5A9BEA292F249F020E22
:1012B00020E0211D922F882331F0282F249F020E39
:1012C00020E0211D822F1124272F279F020E20E0CE
:1012D000211D1124920F820F9083818322833396E4
:1012E0003B5F3C3309F0CACF80912804D2DC64E133
:1012F00070E087EE92E06ADC84EF882E9924939464
:10130000A12CB12C0DDC672B682B692B39F408DC80
:10131000623071058105910508F4F6C001DCC090CA
:101320003203D0903303E0903403F09035036C1512
:101330007D058E059F0540F460933203709333035F
:101340008093340390933503C0903203D0903303DD
:10135000E0903403F09035039B01AC012C193D095A
:101360004E095F0969017A013AEFC316D104E1041D
:10137000F10408F4C9C0609332037093330380937F
:101380003403909335038092EE039092EF03A09282
:10139000F003B092F1031092F2031092F303109253
:1013A000F4031092F5038091E6039091E703A09176
:1013B000E803B091E9038093EA039093EB03A093D1
:1013C000EC03B093ED03ACDB6093E6037093E703AB
:1013D0008093E8039093E903A3DB6093E2037093A7
:1013E000E3038093E4039093E5039ADB6B017C01B4
:1013F00066E472E080912204909123045CDD2AE08F
:1014000041E050E060E070E080912204909123047C
:1014100067DD6DE472E080912204909123044BDD3E
:101420002AE0B701A601809122049091230458DD9F
:101430006FE472E080912204909123043CDD80915E
:10144000E6039091E703A091E803B091E903B701A7
:10145000A601481B590B6A0B7B0B2AE080912204E2
:10146000909123043DDD6FE472E08091220490911D
:10147000230421DD4091E6035091E7036091E803E6
:101480007091E9038091EA039091EB03A091EC0342
:10149000B091ED03481B590B6A0B7B0B2AE080913E
:1014A0002204909123041CDD61E572E08091220406
:1014B0009091230400DD34DBAB01BC012AE0809174
:1014C0002204909123040CDD63E572E080912204F4
:1014D000909123044CDD24DB6B017C012B013C014A
:1014E00042E0440E511C611C711C1ADB6C157D0519
:1014F0008E059F0590F514DB6093E6037093E70378
:101500008093E8039093E9030BDB6B017C01C3E755
:10151000D2E0EE81FF813097E9F088819981AA813C
:10152000BB81B701A601481B590B6A0B7B0B8C8151
:101530009D81A0E0B0E0481759076A077B0728F0B3
:101540001995C882D982EA82FB82289652E0C33F6D
:10155000D507F9F60E94BA01D5CE46165706680699
:10156000790608F0C2CFC7CF8111A7CE982FABCE96
:10157000E3E4F3E01382128288EE93E0A0E0B0E0AF
:1015800084839583A683B78386E292E091838083E8
:1015900085EC90E09587848784EC90E09787868738
:1015A00080EC90E0918B808B81EC90E0938B828B30
:1015B00082EC90E0958B848B86EC90E0978B868B09
:1015C000118E128E138E148EE0EEF3E016821782C7
:1015D000108611861286138614861586168617863F
:1015E000108A118A128A138A148A158AE8E2F4E0B2
:1015F0008FEF808312821182148613868FEF9FEF04
:10160000DC0187839087A187B2870895DB018F93E0
:101610009F932DD0BF91AF91A29F800D911DA39F4D
:10162000900DB29F900D11240895A1E21A2EAA1BCD
:10163000BB1BFD010DC0AA1FBB1FEE1FFF1FA21782
:10164000B307E407F50720F0A21BB30BE40BF50B7F
:10165000661F771F881F991F1A9469F76095709508
:10166000809590959B01AC01BD01CF01089509D0F3
:10167000A59F900DB49F900DA49F800D911D1124E6
:101680000895A29FB001B39FC001A39F700D811D5B
:101690001124911DB29F700D811D1124911D08957B
:1016A00097FB072E16F4009406D077FD08D011D0D2
:1016B00007FC05D03EF4909581959F4F0895709555
:1016C00061957F4F0895DDDFB7FF0895821B930B6F
:1016D0000895AA1BBB1B51E107C0AA1FBB1FA61779
:1016E000B70710F0A61BB70B881F991F5A95A9F7CB
:1016F00080959095BC01CD010895EE0FFF1F881FC6
:101700008BBF0790F691E02D199481E090E0F8945A
:0617100000C0F894FFCFB9
:1017160000000000E502E502E502C202BE02BB02CD
:1017260000000000790236023402C202BE02310213
:10173600400300000000E200F705A8002E01AE01FC
:10174600B700CB00564D4450565F317C315F564D45
:101756004450560D0A00564D4450455F003A323A01
:10176600007C005F564D4450450068656C6C6F20E8
:10177600776F726C640068656C6C6F2061646F6D66
:02178600000061
:00000001FF
