:1000000054C100000C94F1090C94C6090C949B098E
:100010000C9470090C9445090C941A090C94EF087F
:100020000C94C40873C1000071C100006FC10000CE
:100030006DC100006BC1000069C1000067C1000014
:1000400065C1000063C1000061C100005FC1000024
:100050005DC100005BC1000059C100000C947A082A
:1000600055C1000096C400000C94260A4FC1000040
:100070004DC100004BC1000049C1000047C1000054
:1000800045C1000043C1000041C100003FC1000064
:100090003DC100003BC1000039C1000037C1000074
:1000A00035C1000033C1000031C100002FC1000084
:1000B0002DC100002BC1000029C1000027C1000094
:1000C00025C1000023C1000021C100001FC10000A4
:1000D0001DC100001BC1000019C1000017C10000B4
:1000E00015C100001C021F020E0212021802560265
:1000F000230227022D02310235023B023F02430256
:10010000560249024D0251027E306D79335B5F70B9
:100110007F7B771F0D3D4F4700000000000000006F
:1001200000000000000000000000000000000000CF
:1001300000000000800180007E306D79335B5F70CD
:100140007F7B00000000000000771F0D3D4F47003F
:10015000370000000E0000006700000000000000F3
:10016000000000000000000800771F0D3D4F470011
:10017000370000000E00151D6700000000000000A1
:100180000000000000000000000021002400270003
:100190002A002D0030003300010100000401070196
:1001A0000A0100002200250028002B002E0031004B
:1001B000340002010000050108010B0100002000CD
:1001C0002300260029002C002F003200000100002F
:1001D00003010601090105050505070508080808CA
:1001E000020202020A0A08080404040401010101CF
:1001F00001010101030303030303030304070707CA
:100200000C0C0C0C0C0C0C0C02020202060606066E
:10021000060606060B0B0B0B0B0B0B0B010210203B
:10022000200808102040102040800201020108042C
:1002300002010102040810204080804020100804C0
:100240000201800402018040201008040201080419
:10025000020101020408102040800102040810205D
:10026000408000000A0B02090C0D0E080703040170
:10027000000000000000000000000000000000007E
:10028000000000000000000000000000000012114B
:10029000100000000000000000000000000000004E
:1002A0000000000000000000371111241FBECFEF36
:1002B000D1E2DEBFCDBF00E00CBF12E0A0E0B2E0B3
:1002C000EAE7FEE200E00BBF02C007900D92A839FA
:1002D000B107D9F724E0A8E9B2E001C01D92AC341F
:1002E000B207E1F711E0C5E5D1E000E006C02197D3
:1002F0000109802FFE010E94FE12C435D10780E063
:100300000807A9F70E94D40D0C943B1779CE0895E5
:1003100080E090E00895FC01538D448D252F30E05E
:10032000842F90E0821B930B541710F0CF96089502
:1003300001970895FC01918D828D981761F0828D4F
:10034000DF01A80FB11D5D968C91928D9F5F9F7309
:10035000928F90E008958FEF9FEF0895FC01918DAB
:10036000828D981731F0828DE80FF11D858D90E018
:1003700008958FEF9FEF0895FC01918D228D892FB5
:1003800090E0805C9F4F821B91098F73992708959D
:1003900080E090E0892B21F00E941C0A811125C089
:1003A00080E090E0892B41F080E090E0892B21F003
:1003B0000E94000081111CC080E090E0892B41F078
:1003C00080E090E0892B21F00E940000811113C091
:1003D00080E090E0892BA1F080E090E0892B81F013
:1003E0000E94000081110AC008950E940000D8CF29
:1003F0000E940000E1CF0E940000EACF0C940000B0
:10040000089590E0FC013197E231F10508F04EC00B
:100410008827EE58FF4F8F4F0C94FE12809180007A
:100420008F7703C0809180008F7D80938000089536
:1004300080918000877FF9CF84B58F7702C084B523
:100440008F7D84BD08958091B0008F7703C0809127
:10045000B0008F7D8093B0000895809190008F77D9
:1004600007C0809190008F7D03C080919000877FAE
:100470008093900008958091A0008F7707C08091AD
:10048000A0008F7D03C08091A000877F8093A00093
:100490000895809120018F7707C0809120018F7D82
:1004A00003C080912001877F809320010895CF931E
:1004B000DF93282F30E0F901EE59FD4F8491F901C7
:1004C000E45EFD4FD491F901EA52FE4FC491CC2372
:1004D00089F0811196DFEC2FF0E0EE0FFF1FE4545E
:1004E000FE4FA591B491EC91ED2381E090E021F4D1
:1004F00080E002C080E090E0DF91CF910895089500
:100500000F931F93CF93DF93209199022F5F322F88
:1005100037703093990220FF02C020E801C020E02C
:1005200031FD2064347009F02062205FFC01EC0191
:10053000239600E011E06485662331F070E0C80185
:100540000E94EB126F5F01C060E06187322F369F1F
:10055000030E30E0311D1124311102C0168202C099
:1005600031503683662311F0615061873196CE1782
:10057000DF0709F7DF91CF911F910F91089580E96F
:1005800091E00895389A08950F931F93CF93DF93C6
:10059000CDB7DEB762970FB6F894DEBF0FBECDBF02
:1005A0008C01F901DC011C968C917A8369835C8350
:1005B0004B835E834D8390819D8791819E8792813D
:1005C0009F87813021F4CE0101969ADF06C01C86F8
:1005D0001B861A86198618861F8283E0888B1A8AE2
:1005E000198AD801ED91FC910484F585E02DBE01B6
:1005F0006F5F7F4FC801199562960FB6F894DEBF02
:100600000FBECDBFDF91CF911F910F9108950F9332
:100610001F93CF93DF93CDB7DEB762970FB6F894F1
:10062000DEBF0FBECDBF8C01F901DC011C968C91A1
:100630007A8369835C834B835E834D8390819D873E
:1006400091819E8792819F87813021F4CE0101960E
:1006500057DF06C01C861B861A86198618861F82DD
:10066000188A1A8A198AD801ED91FC910484F585BB
:10067000E02DBE016F5F7F4FC801199562960FB6DE
:10068000F894DEBF0FBECDBFDF91CF911F910F91C8
:10069000089580E090E00895FC0185859685089591
:1006A000CF93DF9300D000D0CDB7DEB7AB011C8273
:1006B0001D821E82DC01ED91FC910190F081E02D04
:1006C00019821A821B829E012F5F3F4FBE016C5F11
:1006D0007F4F199526960FB6F894DEBF0FBECDBF9B
:1006E000DF91CF910895CF93DF9380910302909192
:1006F0000402DDDEEC018091060290910702D7DE54
:10070000C817D90719F08FEF9FEF02C081E090E082
:100710002091A7023091A802820F931F9093A80204
:100720008093A702DF91CF9108958091000290916C
:100730000102BDDE892B41F48091A7029091A802AD
:100740009093A6028093A50208950E945B14CF9215
:10075000DF92EF92FF92C0900D02D0900E028FEFC9
:10076000C81683E0D80611F48EE128C00D2C000CC9
:10077000EE08FF08C701B6010E94261224E333E702
:1007800049E153E40E94201287FF03C01092A302A4
:1007900017C0A70196012959310941095109AEE055
:1007A000B0E00E94D21226E633E040E050E00E9422
:1007B000B612DA01C9010196A11DB11D8093A302F1
:1007C0009091A4028091A302890F8093A4020E94B9
:1007D000BA0C80919103FF90EF90DF90CF90B8C753
:1007E000AF92BF92CF92DF92EF92FF920F931F933F
:1007F000CF93DF9300D01F92CDB7DEB79C018B0162
:10080000EAE0F0E0BF010E94EB128983CB01BF0157
:100810000E94EB128A83C90164E670E00E94EB1229
:10082000CB01BF010E94EB128B83C90168EE73E01C
:100830000E94EB126C83C8018A519C4F6C01DE014F
:1008400011967D015801B4E0AB0EB11C08301105C2
:1008500024F580913C0490913D041816190694F4F7
:100860000830110578F4D701EC91E03158F4F0E04C
:10087000E85FFE4F4491F601408B61E0600F80E03D
:1008800090E0E4D60F5F1F4FFFEFCF1ADF0A8FEF24
:10089000E81AF80A0A151B05C9F60F900F900F9079
:1008A0000F90DF91CF911F910F91FF90EF90DF900C
:1008B000CF90BF90AF9008958091A5029091A6022D
:1008C0009C0129513C4F273F3A4218F464E070E004
:1008D00087DF8091A7029091A8029C0129513C4F8B
:1008E000273F3A4218F460E070E07ACF0895CF9342
:1008F000DF9380910B02863308F0865390917B0042
:10090000282F2870977F922B90937B0020911102C3
:1009100090E4299F900111248770822B80937C00A2
:1009200080917A00806480937A0080917A0086FDBD
:10093000FCCFC091780080917900D0E0D82BD09383
:100940000E02C0930D0224EE3CE0DE010E9406136D
:100950002FEF33E040E050E00E94B61220930F02E8
:10096000309310023F932F93DF93CF931F921F92E8
:100970008CE592E09F938F930E94AC0D8DB79EB74C
:1009800008960FB6F8949EBF0FBE8DBFDF91CF9132
:1009900008951F920F920FB60F9211240BB60F926B
:1009A0002F938F939F93EF93FF93E0910403F09124
:1009B00005038081E0910A03F0910B0382FD12C0D0
:1009C000908180910D038F5F8F7320910E038217AA
:1009D00051F0E0910D03F0E0EC50FD4F958F8093C6
:1009E0000D0301C08081FF91EF919F918F912F9115
:1009F0000F900BBE0F900FBE0F901F901895FC012B
:100A0000848DDF01A80FB11DA35ABF4F2C91848D97
:100A100090E001968F739927848FA689B7892C93CC
:100A2000A089B1898C91837080648C93938D848D1F
:100A3000981306C00288F389E02D80818F7D808322
:100A40000895EF92FF920F931F93CF93DF93EC01E2
:100A500081E0888F9B8D8C8D981305C0E889F9897A
:100A6000808185FD25C0F62E0B8D10E00F5F1F4F96
:100A70000F731127E02E8C8DE8120BC00FB607FC08
:100A8000FACFE889F989808185FFF5CFCE01B7DFFC
:100A9000F2CF8B8DFE01E80FF11DE35AFF4FF0827C
:100AA0009FB7F8940B8FEA89FB89808180620AC026
:100AB0009FB7F894EE89FF896083E889F98980817E
:100AC0008370806480839FBF81E090E0DF91CF914D
:100AD0001F910F91FF90EF900895CF93DF93EC015A
:100AE000888D8823C1F0EA89FB89808185FD05C056
:100AF000A889B9898C9186FD0EC00FB607FCF5CF89
:100B0000808185FFF2CFA889B9898C9185FFEDCFCF
:100B1000CE0175DFE8CFDF91CF9108951F93CF937A
:100B2000DF93282F30E0F901EE59FD4F8491F90150
:100B3000E45EFD4FD491F901EA52FE4FC491CC23FB
:100B4000B9F0162F81115DDCEC2FF0E0EE0FFF1FE6
:100B5000EE55FE4FA591B4919FB7F894111104C0C2
:100B60008C91D095D82302C0EC91DE2BDC939FBFF3
:100B7000DF91CF911F910895CF93DF9390E0FC0117
:100B8000E45EFD4F2491FC01EA52FE4F84918823DC
:100B900061F190E0880F991FFC01E857FE4FC59165
:100BA000D491FC01EE55FE4FA591B491611109C09D
:100BB0009FB7F8948881209582238883EC912E2317
:100BC0000BC0623061F49FB7F8948881322F309562
:100BD00083238883EC912E2B2C939FBF06C08FB765
:100BE000F894E8812E2B28838FBFDF91CF91089551
:100BF0003FB7F89480919F029091A002A091A1022A
:100C0000B091A20226B5A89B05C02F3F19F001960E
:100C1000A11DB11D3FBFBA2FA92F982F8827820F82
:100C2000911DA11DB11DBC01CD0142E0660F771FD2
:100C3000881F991F4A95D1F708954F925F926F923E
:100C40007F928F92AF92BF92CF92DF92EF920F93EB
:100C50001F93CF93DF933C01EB01CADFF30127859C
:100C60003089621B730B6A307105B8F3F894E88120
:100C7000F98178B1716068B16E7F68B9CA848F817B
:100C80002C2D281B822F2F83BF844A805B801D85DB
:100C90000C85DE841F5F0F5FD3949E813885A98405
:100CA000EB844181D20120E0C32F522F322F3181BA
:100CB000442788943111380F08F43FEF81958894C8
:100CC00010FD430F4795889411FD430F4795889475
:100CD00012FD430F4795889413FD430F4795889461
:100CE00014FD430F4795889415FD430F479588944D
:100CF00016FD430F4795889417FD430F4795889439
:100D0000232F1111242F8C0D422F002C78B900C0F5
:100D100047FF68B930812227889400C000C0002CAA
:100D200068B93111390F00C0002C78B900C046FFF6
:100D300068B908F43FEF9195889400C000C0002C7A
:100D400068B900FD230F00C0002C78B900C045FF32
:100D500068B92795889401FD230F00C000C0002CBE
:100D600068B92795889400C0002C78B900C044FF6A
:100D700068B902FD230F2795889400C000C0002C9D
:100D800068B903FD230F00C0002C78B900C043FFF1
:100D900068B92795889404FD230F00C000C0002C7B
:100DA00068B92795889400C0002C78B900C042FF2C
:100DB00068B905FD230F2795889400C000C0002C5A
:100DC00068B906FD230F00C0002C78B900C041FFB0
:100DD00068B92795889407FD230F00C000C0002C38
:100DE00068B92795889400C0002C78B900C040FFEE
:100DF00068B9432F0111422F9A0D00C000C0002C8A
:100E000068B900C000C0002C78B900C047FF68B9BD
:100E100032812227889400C000C0002C68B93111AB
:100E20003C0F00C0002C78B900C046FF68B908F438
:100E30003FEFEB0DF11D00C000C0002C68B9D0FCE5
:100E4000230F00C0002C78B900C045FF68B9279572
:100E50008894D1FC230F00C000C0002C68B92795EE
:100E6000889400C0002C78B900C044FF68B9D2FC57
:100E7000230F2795889400C000C0002C68B9D3FCCC
:100E8000230F00C0002C78B900C043FF68B9279534
:100E90008894D4FC230F00C000C0002C68B92795AB
:100EA000889400C0002C78B900C042FF68B9D5FC16
:100EB000230F2795889400C000C0002C68B9D6FC89
:100EC000230F00C0002C78B900C041FF68B92795F6
:100ED0008894D7FC230F00C000C0002C68B9279568
:100EE000889400C0002C78B900C040FF68B9432F37
:100EF000D110422FC19500C000C0002C68B9CE0DA2
:100F000000C000C078B900C047FF68B9318122270E
:100F1000889400C000C0002C68B93111380F00C09F
:100F2000002C78B900C046FF68B908F43FEF8195FE
:100F3000889400C000C0002C68B910FD230F00C0C9
:100F4000002C78B900C045FF68B92795889411FD39
:100F5000230F00C000C0002C68B92795889400C0FA
:100F6000002C78B900C044FF68B912FD230F279503
:100F7000889400C000C0002C68B913FD230F00C086
:100F8000002C78B900C043FF68B92795889414FDF8
:100F9000230F00C000C0002C68B92795889400C0BA
:100FA000002C78B900C042FF68B915FD230F2795C2
:100FB000889400C000C0002C68B916FD230F00C043
:100FC000002C78B900C041FF68B92795889417FDB7
:100FD000230F00C000C0002C68B92795889400C07A
:100FE000002C78B900C040FF68B9432F1111422F7F
:100FF0008C0D00C000C0002C68B9119709F086CE96
:1010000020EE31E0D2010E940613DC01CB01F4E0B6
:10101000B695A79597958795FA95D1F720E030E09A
:10102000B901EAE94E9E040C611D5E9E600D711DC2
:101030001124650D711D860F971FA11DB11D893EDD
:1010400043E09407A105B10508F434C0885E9340DD
:10105000A109B10942E0B695A795979587954A955C
:10106000D1F747E0849F080E211D949F200D311D6C
:101070001124290F311D6091980270E0860F971F8F
:10108000820F931F40919B0250919C0260919D02A0
:1010900070919E02292F3327420F531F611D711D2E
:1010A00040939B0250939C0260939D0270939E021A
:1010B0008093980278949CDDF301708B6787DF91B1
:1010C000CF911F910F91EF90DF90CF90BF90AF9095
:1010D0008F907F906F905F904F9008952FB7F89406
:1010E00060919B0270919C0280919D0290919E0262
:1010F0002FBF08951F920F920FB60F9211242F93B6
:101100003F938F939F93AF93BF9380919B02909156
:101110009C02A0919D02B0919E0230919A0223E020
:10112000230F2D3720F40196A11DB11D05C026E81F
:10113000230F0296A11DB11D20939A0280939B025A
:1011400090939C02A0939D02B0939E0280919F0277
:101150009091A002A091A102B091A2020196A11DBE
:10116000B11D80939F029093A002A093A102B0931F
:10117000A202BF91AF919F918F913F912F910F90BC
:101180000FBE0F901F9018951F920F920FB60F92DF
:1011900011240BB60F922F933F934F935F936F934E
:1011A0007F938F939F93AF93BF93EF93FF93E091C0
:1011B0002002F09121021995FF91EF91BF91AF911B
:1011C0009F918F917F916F915F914F913F912F915F
:1011D0000F900BBE0F900FBE0F901F9018951F928F
:1011E0000F920FB60F9211240BB60F922F933F93CD
:1011F0004F935F936F937F938F939F93AF93BF931F
:10120000EF93FF93E0911E02F0911F021995FF9159
:10121000EF91BF91AF919F918F917F916F915F916E
:101220004F913F912F910F900BBE0F900FBE0F90DB
:101230001F9018951F920F920FB60F9211240BB6A4
:101240000F922F933F934F935F936F937F938F935F
:101250009F93AF93BF93EF93FF93E0911402F091AC
:1012600015021995FF91EF91BF91AF919F918F91C9
:101270007F916F915F914F913F912F910F900BBE96
:101280000F900FBE0F901F9018951F920F920FB6E0
:101290000F9211240BB60F922F933F934F935F93AE
:1012A0006F937F938F939F93AF93BF93EF93FF932E
:1012B000E0911202F09113021995FF91EF91BF9105
:1012C000AF919F918F917F916F915F914F913F91DE
:1012D0002F910F900BBE0F900FBE0F901F9018957F
:1012E0001F920F920FB60F9211240BB60F922F93ED
:1012F0003F934F935F936F937F938F939F93AF939E
:10130000BF93EF93FF93E0911C02F0911D0219959A
:10131000FF91EF91BF91AF919F918F917F916F91CD
:101320005F914F913F912F910F900BBE0F900FBE89
:101330000F901F9018951F920F920FB60F921124C5
:101340000BB60F922F933F934F935F936F937F93BF
:101350008F939F93AF93BF93EF93FF93E0911A0204
:10136000F0911B021995FF91EF91BF91AF919F9161
:101370008F917F916F915F914F913F912F910F903E
:101380000BBE0F900FBE0F901F9018951F920F92DB
:101390000FB60F9211240BB60F922F933F934F93DA
:1013A0005F936F937F938F939F93AF93BF93EF93CD
:1013B000FF93E0911802F09119021995FF91EF91B6
:1013C000BF91AF919F918F917F916F915F914F915D
:1013D0003F912F910F900BBE0F900FBE0F901F905B
:1013E00018951F920F920FB60F9211240BB60F9201
:1013F0002F933F934F935F936F937F938F939F931D
:10140000AF93BF93EF93FF93E0911602F091170211
:101410001995FF91EF91BF91AF919F918F917F911E
:101420006F915F914F913F912F910F900BBE0F9055
:101430000FBE0F901F90189584EF92E00E94BC01A0
:1014400021E0892B09F420E0822F08951F920F924A
:101450000FB60F9211240BB60F922F933F934F9319
:101460005F936F937F938F939F93AF93BF93EF930C
:10147000FF9384EF92E0C3DAFF91EF91BF91AF91B8
:101480009F918F917F916F915F914F913F912F919C
:101490000F900BBE0F900FBE0F901F901895CF921C
:1014A000DF92EF92FF920F931F93CF93DF936C0124
:1014B0007A018B01C0E0D0E0CE15DF0581F0D801C4
:1014C0006D918D01D601ED91FC910190F081E02D9F
:1014D000C6011995892B11F02196EECF7E01C70127
:1014E000DF91CF911F910F91FF90EF90DF90CF9000
:1014F0000895E4EFF2E0A089B18982E08C93A4859D
:10150000B5851C92A685B78583E38C93108EA4893C
:10151000B58986E08C93A289B3898C9180618C9384
:10152000A289B3898C9188608C93A289B3898C91AC
:1015300080688C930288F389E02D80818F7D808381
:1015400008958F929F92AF92BF92EF92FF920F9366
:101550001F93CF93DF937C014A015B01C091F2029C
:10156000D091F302209741F58091F0029091F10221
:10157000892B11F56FE070E081E090E00E9420136C
:10158000FC013097F1F3F286E18685829682A7828C
:10159000B0861082F093F102E093F002F093F30230
:1015A000E093F2028091EE029091EF020196909307
:1015B000EF028093EE023EC00091EE021091EF0226
:1015C0000115110569F0209759F0FE01818592857A
:1015D000E816F90651F10384F485E02D3097B1F750
:1015E0008B859C85009711F0EC01FACF6FE070E0DD
:1015F00081E090E00E942013FC013097F1F3F28625
:10160000E18685829682A782B0861082FC87EB876E
:10161000D687C587F093F102E093F0020F5F1F4F6A
:101620001093EF020093EE0205C085829682A78296
:10163000B0861082CF01DF91CF911F910F91FF9063
:10164000EF90BF90AF909F908F900895AF92BF9210
:10165000CF92DF92EF92FF920F931F93CF93DF937E
:101660001F921F92CDB7DEB769834A83880F991FF7
:1016700000913C0410913D04000F111FE6EEF3E0D1
:101680009F01265E33402017310714F41192F8CFE2
:101690002981FC01EA51FC4F21838A81808360E02B
:1016A00080913A043BDA101611061CF5015011091D
:1016B000F801EA51FC4FC080B0903804A090360485
:1016C00087E0E82EF12CD12CB6010E2C02C07595C6
:1016D00067950A94E2F761708A2D20DA61E08B2D1C
:1016E0001DDA60E08B2D1ADA81E0E81AF10860F764
:1016F000DACF61E080913A040F900F90DF91CF91A3
:101700001F910F91FF90EF90DF90CF90BF90AF901F
:1017100005CAEF92FF920F931F93CF937C018C0128
:1017200083E0000F111F8A95E1F70A501C4FC1E0BA
:10173000F80111928F0140E06C2FC70187DFCF5F66
:10174000C930B1F7CF911F910F91FF90EF9008959D
:101750003F924F925F926F927F928F929F92AF9241
:10176000BF92CF92DF92EF92FF920F931F93CF938E
:10177000DF9300D0CDB7DEB7F82E8091940390911F
:101780009503A0919603B0919703892B8A2B8B2BFD
:10179000E1F02EDA009144041091450420914604B2
:1017A00030914704DC01CB01801B910BA20BB30BE2
:1017B0000091940310919503209196033091970323
:1017C00080179107A207B307C0F212DA60934404AE
:1017D000709345048093460490934704E0919C03E2
:1017E000F0919D03309759F04091980350919903DF
:1017F00060919A0370919B038F2D1995F82E00919B
:10180000EC021091ED024F2C512C612C712C011522
:10181000110509F45DC0D8011C96EC901C978091CD
:101820009203909193038436910510F41C961C92B8
:10183000D801ED91FC91A280B38019821A821B829B
:10184000F11014C0F80145855685628173819E01AF
:101850002F5F3F4FC801F5011995D8011C96EC92F6
:101860001C9714960D911C911597D1CFF8013696BF
:10187000CE0101966C01480199E0890E911C2191DD
:101880002223F9F032803320E1F0822F90E0A0E0B3
:10189000B0E09C01AD012F5F3F4F4F4F5F4FC30141
:1018A000B20133D69B01AC01832D90E0A0E0B0E003
:1018B000BC01CD016F5F7F4F8F4F9F4F26D6D60162
:1018C0008C93BFEFCB1ADB0AE815F905C1F6BACF46
:1018D00080914204909143048C010F5F1F4F10933D
:1018E000430400934204499784F1F8DB4B015C0107
:1018F00088EE93E0089FB001099F700D189F700D4E
:101900001124072E000C880B990BC0903E04D09038
:101910003F04E0904004F0904104A50194012C198B
:101920003D094E095F0900D630939303209392033B
:101930001092430410924204D1DB60933E047093F2
:101940003F0480934004909341040F900F900F90B8
:10195000DF91CF911F910F91FF90EF90DF90CF908B
:10196000BF90AF909F908F907F906F905F904F90BF
:101970003F9008950F931F93CF93E8ECF2E0BCE300
:10198000B80F15E5A0E060EF7BEA0AEACFE0382F58
:101990003F71330F330F330F232F219F020E20E0AF
:1019A000211D1124922F482F4074282F207287FD6B
:1019B00020C041110AC0211103C0492F40950FC01A
:1019C00025E5290F40E09BEA35C021110FC0309F6B
:1019D000030E30E0311D1124472F431B965544233D
:1019E00009F433C0292F942F40E024C0292F2095DB
:1019F00051C041110FC021110AC0309F030E30E0C9
:101A0000311D1124272F231B95E5930F43C0492F28
:101A100040950DC0211106C035E5390F472F491BF0
:101A2000932F05C02AEA290F412F491B922F20E04E
:101A30009923A1F0392F369F030E30E0311D932FEB
:101A4000222361F0392F922F03C0992331F130E026
:101A5000292F269F020E20E0211D932F442321F0E1
:101A6000469F040E40E0411D11245C2F559F050E3A
:101A700050E0511D1124392F350F3083250F21835C
:101A8000450F42838B5F33968B1381CFCF911F918C
:101A90000F910895492F90E0D3CF20E0492FE4CF54
:101AA0006115710579F0FB0101900020E9F731978C
:101AB000AF01461B570BDC01ED91FC910280F381D5
:101AC000E02D199480E090E008958F929F92AF925C
:101AD000BF92EF92FF920F931F93CF93DF93CDB7F7
:101AE000DEB7A1970FB6F894DEBF0FBECDBF7C0165
:101AF000FA01CB0119A2223008F42AE08E010F5D11
:101B00001F4F822E912CA12CB12CBF01A501940155
:101B10000BD5F901CA01015011096A3014F4605D56
:101B200001C0695CD8016C93232B242B252B69F70A
:101B3000B801C701B5DFA1960FB6F894DEBF0FBE9E
:101B4000CDBFDF91CF911F910F91FF90EF90BF908C
:101B5000AF909F908F900895CF93DF93CDB7DEB76E
:101B6000C054D1090FB6F894DEBF0FBECDBFAE0191
:101B7000485B5F4F6CE572E0CE010196A7D6BE01CF
:101B80006F5F7F4F84EF92E08BDF60E872E084EF5D
:101B900092E086DFC05CDF4F0FB6F894DEBF0FBE69
:101BA000CDBFDF91CF910895789484B5826084BDD4
:101BB00084B5816084BD85B5826085BD85B5816051
:101BC00085BD80916E00816080936E0010928100CF
:101BD000809181008260809381008091810081608A
:101BE000809381008091800081608093800080914B
:101BF000B10084608093B1008091B00081608093D7
:101C0000B00080919100826080939100809191005A
:101C1000816080939100809190008160809390001A
:101C20008091A10082608093A1008091A1008160D9
:101C30008093A1008091A00081608093A00080919A
:101C40002101826080932101809121018160809334
:101C500021018091200181608093200180917A0090
:101C6000846080937A0080917A00826080937A0009
:101C700080917A00816080937A0080917A008068F8
:101C800080937A001092C1001092E2031092E30355
:101C90001092E4031092E5031092A0031092A103A6
:101CA0001092A2031092A30319DA6B017C014B017D
:101CB0005C0128EB820E2BE0921EA11CB11C0EDAF7
:101CC0006C157D058E059F0528F086169706A806DB
:101CD000B906A8F784EF92E09093E1038093E003C4
:101CE00008DCFCD96093A0037093A1038093A20346
:101CF0009093A30361E772E08091E0039091E10388
:101D0000CFDEECD96B017C014B015C013AE0830E24
:101D1000911CA11CB11CE2D96C157D058E059F0597
:101D200028F086169706A806B906A8F781E08093E2
:101D3000B4030E94F8054B015C0194EFC92EDD2429
:101D4000D394E12CF12C0E94F805DC01CB01881919
:101D50009909AA09BB09883E9340A105B10598F3EA
:101D600041E0C41AD108E108F10858EE850E53E0AD
:101D7000951EA11CB11CC114D104E104F10419F792
:101D8000B8DB1092110244E650E060E070E087E7B3
:101D900094E0D7DB8091BC02811145C01092AE0265
:101DA0001092AD028FEF8093B1028093B2028093C4
:101DB000B3028093B4028093B5028093B60281E0AF
:101DC0008093B7021092B9021092B8021092B0023A
:101DD0001092AF028091EC029091ED02892B31F4C8
:101DE0008BEA92E09093ED028093EC02E091A902DD
:101DF000F091AA02309721F08BEA92E095838483D8
:101E00008BEA92E09093AA028093A9021092BB02FF
:101E10001092BA028CE392E09093AC028093AB02F2
:101E200081E08093BC02389A88EC92E09093AE02F5
:101E30008093AD028CE090E09093B9028093B80259
:101E40008091940390919503A0919603B09197038C
:101E5000843C39E09307A105B10520F484EC99E0B6
:101E6000A0E0B0E08093940390939503A093960331
:101E7000B09397031092A40281E08093A30280E0C4
:101E800079DD8091910364DC41E250E060E070E034
:101E900087EA93E056DB80913C0490913D0418164C
:101EA00019062CF441E06CE080E090E0CFDB8091FB
:101EB0003C0490913D04181619062CF448E06AE0A1
:101EC00080E090E0C3DB80913C0490913D041816C3
:101ED00019061CF480E090E01CDC44E650E060E071
:101EE00070E08CE594E02DDB8AE992E09093A80203
:101EF0008093A7021092A6021092A50262E082E0EF
:101F00000E94BC0585E993E090931302809312022E
:101F100080916A008C7F816080936A00EC9A62E015
:101F200083E00E94BC0562E084E00E94BC0583E778
:101F300093E0909315028093140280916A00837F4E
:101F4000846080936A00ED9A84EFC82EDD24D394D8
:101F5000E12CF12CC3D8672B682B692B39F4BED840
:101F6000623071058105910508F400C1B7D88090F1
:101F7000C4029090C502A090C602B090C702681536
:101F800079058A059B0540F46093C4027093C502ED
:101F90008093C6029093C7028090C4029090C502BD
:101FA000A090C602B090C7029B01AC012819390964
:101FB0004A095B0949015A013AEF83169104A104C9
:101FC000B10408F4D3C06093C4027093C502809337
:101FD000C6029093C702C092AC03D092AD03E092C8
:101FE000AE03F092AF031092B0031092B1031092BF
:101FF000B2031092B3038091A4039091A503A09122
:10200000A603B091A7038093A8039093A903A0937C
:10201000AA03B093AB0362D86093A4037093A503A3
:102020008093A6039093A70359D86093A00370935D
:10203000A1038093A2039093A30350D84B015C01AA
:1020400063E872E08091E0039091E10329DD2AE0EA
:1020500041E050E060E070E08091E0039091E103A6
:1020600034DD6AE872E08091E0039091E10318DDCD
:102070002AE0B501A4018091E0039091E10325DD00
:102080006CE872E08091E0039091E10309DD8091BA
:10209000A4039091A503A091A603B091A703B50155
:1020A000A401481B590B6A0B7B0B2AE08091E003CB
:1020B0009091E1030ADD6CE872E08091E003909179
:1020C000E103EEDC4091A4035091A5036091A603C7
:1020D0007091A7038091A8039091A903A091AA03EE
:1020E000B091AB03481B590B6A0B7B0B2AE0809124
:1020F000E0039091E103E9DC6EE872E08091E00397
:102100009091E103CDDC0E946E08AB01BC012AE096
:102110008091E0039091E103D8DCC091E003D0917D
:10212000E10360E972E0CE01BBDC60E872E0CE0161
:10213000B7DC0E946E084B015C012B013C0142E0C0
:10214000440E511C611C711C0E946E0868157905B3
:102150008A059B0508F084C00E946E086093A40362
:102160007093A5038093A6039093A7038091EE023A
:102170009091EF02892B09F470C08091F202909146
:10218000F302892B09F469C00E946E084B015C01BF
:10219000C091F202D091F302209709F45EC08881C9
:1021A00081FD57C089819A81AB81BC81B501A401B1
:1021B000481B590B6A0B7B0B8D819E81AF81B885C3
:1021C000481759076A077B0708F443C0E985FA8571
:1021D000199589829A82AB82BC82888180FF39C03E
:1021E0008091F2029091F302C817D90759F4EB8558
:1021F000FC85309739F0F093F302E093F2021686F3
:1022000015861CC08091F0029091F102ED85FE854B
:10221000C817D90749F4309739F0F093F102E093E9
:10222000F002148613860AC0AB85BC851E96FC930B
:10223000EE931D97ED85FE85B487A387CE01B2D2BC
:102240008091EE029091EF0201979093EF028093BC
:10225000EE020B84DC85C02D9FCF0E94C8017ACE90
:10226000461657066806790608F06ECF75CFCF93ED
:10227000DF931092F7021092F60288EE93E0A0E04E
:10228000B0E08093F8029093F902A093FA02B09321
:10229000FB028EE492E09093F5028093F40285ECC9
:1022A00090E0909301038093000384EC90E090937E
:1022B00003038093020380EC90E0909305038093E6
:1022C000040381EC90E0909307038093060382EC73
:1022D00090E0909309038093080386EC90E090933C
:1022E0000B0380930A0310920D0310920E031092B9
:1022F0000F03109210038FEF8093910310929303BA
:102300001092920310929D0310929C038FEF9FEF07
:10231000DC018093980390939903A0939A03B09360
:102320009B031092A4031092A5031092A60310928F
:10233000A7031092A8031092A9031092AA03109267
:10234000AB031092AC031092AD031092AE03109247
:10235000AF031092B0031092B1031092B203109227
:10236000B303C3E3D0E0D0933704C093360484E3CF
:1023700090E0909339048093380485E390E0909343
:102380003B0480933A0481E090E090933D04809375
:102390003C0461E083E30E94BC0561E08091380465
:1023A0000E94BC0561E080913A040E94BC0561E096
:1023B00080913A040E948E05D0933704C09336046E
:1023C000E6EFF3E0119284E0E633F807D9F7C0E0D6
:1023D000D0E080913C0490913D04C817D9076CF57A
:1023E00040E06FE0CE0132D9D7FD0BC080913C04B4
:1023F00090913D04C817D90724F447E06BE0CE0163
:1024000025D940E069E0CE0121D9D7FD14C08091E3
:102410003C0490913D04C817D90714F4CE0179D932
:1024200080913C0490913D04C817D90724F440E002
:102430006CE0CE010BD92196CCCFDF91CF910895DE
:1024400040D008F481E00895E89409C097FB3EF479
:1024500090958095709561957F4F8F4F9F4F9923F1
:10246000A9F0F92F96E9BB279395F695879577956F
:102470006795B795F111F8CFFAF4BB0F11F460FF2F
:102480001BC06F5F7F4F8F4F9F4F16C0882311F087
:1024900096E911C0772321F09EE8872F762F05C09B
:1024A000662371F096E8862F70E060E02AF09A9536
:1024B000660F771F881FDAF7880F9695879597F92B
:1024C0000895990F0008550FAA0BE0E8FEEF1616C5
:1024D0001706E807F907C0F012161306E407F50718
:1024E00098F0621B730B840B950B39F40A2661F08C
:1024F000232B242B252B21F408950A2609F4A1402F
:10250000A6958FEF811D811D0895DB018F939F9309
:1025100049D0BF91AF91A29F800D911DA39F900DB7
:10252000B29F900D11240895A1E21A2EAA1BBB1B85
:10253000FD010DC0AA1FBB1FEE1FFF1FA217B3078F
:10254000E407F50720F0A21BB30BE40BF50B661FA5
:10255000771F881F991F1A9469F760957095809569
:1025600090959B01AC01BD01CF010895052E97FB0D
:1025700016F400940FD057FD05D0D6DF07FC02D02B
:1025800046F408C050954095309521953F4F4F4FE8
:102590005F4F089590958095709561957F4F8F4F0F
:1025A0009F4F089509D0A59F900DB49F900DA49FB3
:1025B000800D911D11240895A29FB001B39FC00109
:1025C000A39F700D811D1124911DB29F700D811D5F
:1025D0001124911D089597FB072E16F4009406D040
:1025E00077FD08D019D007FC05D03EF49095819571
:1025F0009F4F0895709561957F4F0895EE0FFF1FCF
:10260000881F8BBF0790F691E02D1994D5DFB7FF97
:102610000895821B930B0895AA1BBB1B51E107C0B1
:10262000AA1FBB1FA617B70710F0A61BB70B881F62
:10263000991F5A95A9F780959095BC01CD010895F1
:102640000F931F93CF93DF93869F8001879F100D79
:10265000969F100D1124C8010DD0EC01009721F0B8
:10266000A80160E070E02BD1CE01DF91CF911F91E6
:102670000F9108950F931F93CF93DF9382309105AD
:1026800010F482E090E0E0914A04F0914B0420E0E5
:1026900030E0A0E0B0E0309719F140815181028133
:1026A000138148175907C8F08417950769F41097E4
:1026B00031F012960C93129713961C9327C0009337
:1026C0004A0410934B0422C02115310519F042171A
:1026D000530718F49A01BD01EF01DF01F801DBCFC8
:1026E00021153105F9F0281B390B2430310580F410
:1026F0008A819B816115710521F0FB01938382839F
:1027000004C090934B0480934A04FE01329644C067
:10271000FE01E20FF31F8193919322503109398317
:1027200028833AC02091480430914904232B41F476
:1027300020912402309125023093490420934804CB
:1027400020912202309123022115310541F42DB749
:102750003EB74091260250912702241B350BE09191
:102760004804F0914904E217F307A0F42E1B3F0B35
:102770002817390778F0AC014E5F5F4F24173507F3
:1027800048F04E0F5F1F50934904409348048193D3
:10279000919302C0E0E0F0E0CF01DF91CF911F9173
:1027A0000F910895CF93DF93009709F481C0FC0146
:1027B000329713821282A0914A04B0914B04109771
:1027C00081F420813181820F931F20914804309140
:1027D00049042817390751F5F0934904E093480458
:1027E00067C0ED0120E030E0CE17DF0740F44A81FA
:1027F0005B819E0141155105F1F0EA01F5CFD383CC
:10280000C28340815181840F951FC817D90759F49D
:1028100088819981840F951F0296918380838A8194
:102820009B81938382832115310529F4F0934B0416
:10283000E0934A043DC0E901FB83EA834991599141
:10284000C40FD51FEC17FD0761F480819181840FBF
:10285000951F0296E90199838883828193819B83E6
:102860008A83E0E0F0E012968D919C911397009797
:1028700019F0FD01DC01F7CF8D919C9111979D011D
:102880002E5F3F4F820F931F2091480430914904DF
:102890002817390769F4309729F410924B041092E5
:1028A0004A0402C013821282B0934904A0934804E0
:1028B000DF91CF91089581E090E0F894DCC2DC01D3
:1028C00001C06D9341505040E0F708950F931F935E
:1028D000CF93DF93CDB7DEB72E970FB6F894DEBF58
:1028E0000FBECDBF8C0186E08C831A8309838FEFE6
:1028F0009FE79E838D83CE01019610D0EF81F885EE
:10290000E00FF11F10822E960FB6F894DEBF0FBEB7
:10291000CDBFDF91CF911F910F9108952F923F92DC
:102920004F925F926F927F928F929F92AF92BF92DF
:10293000CF92DF92EF92FF920F931F93CF93DF938B
:10294000CDB7DEB72B970FB6F894DEBF0FBECDBF65
:102950006C017B018A01FC0117821682838181FF51
:10296000BFC1CE0101963C01F6019381F70193FDB1
:10297000859193FF81917F01882309F4ADC1853250
:1029800039F493FD859193FF81917F01853221F484
:10299000B60190E0D6D1E8CF912C212C312CFFE16B
:1029A000F315D8F08B3279F038F4803279F0833235
:1029B000A1F4232D20611DC08D3261F0803369F4B4
:1029C000232D216016C0832D8260382EE32DE46014
:1029D0003E2E2AC0F32DF8601DC037FC2DC020ED1F
:1029E000280F2A3040F08E32B9F436FC75C1232D01
:1029F0002064322E19C036FE06C08AE0989E200D53
:102A00001124922E11C0EAE02E9E200D1124222EB8
:102A1000F32DF0623F2E08C08C3621F4832D8068A0
:102A2000382E02C0883641F4F70193FD859193FF5B
:102A300081917F018111B3CF982F9F7D9554933061
:102A400028F40C5F1F4F9FE399830DC0833631F04C
:102A5000833771F0833509F055C020C0F8018081BB
:102A600089830E5F1F4F88248394912C530112C0D9
:102A70002801F2E04F0E511CF801A080B18036FE13
:102A800003C0692D70E002C06FEF7FEFC5014ED12A
:102A90004C018201F32DFF773F2E15C0280122E063
:102AA000420E511CF801A080B18036FE03C0692D92
:102AB00070E002C06FEF7FEFC5012DD14C01F32D07
:102AC000F0683F2E820133FC19C0822D90E08816F9
:102AD0009906A0F4B60180E290E033D12A94F5CFB4
:102AE000F50137FC859137FE81915F01B60190E0D9
:102AF00028D121102A9421E0821A9108811491048E
:102B000079F7E1C0843611F0893639F5F80137FEDE
:102B100007C060817181828193810C5F1F4F08C063
:102B200060817181072E000C880B990B0E5F1F4F7F
:102B3000F32DFF763F2E97FF09C0909580957095F5
:102B400061957F4F8F4F9F4FF0683F2E2AE030E016
:102B5000A30133D1882E861844C0853731F4232D44
:102B60002F7EB22E2AE030E025C0932D997FB92E1A
:102B70008F36C1F018F4883579F0AEC0803719F07F
:102B8000883721F0A9C0E92FE061BE2EB4FE0DC048
:102B9000FB2DF460BF2E09C034FE0AC0292F266029
:102BA000B22E06C028E030E005C020E130E002C0CF
:102BB00020E132E0F801B7FE07C0608171818281B7
:102BC00093810C5F1F4F06C06081718180E090E0AF
:102BD0000E5F1F4FA301F1D0882E8618FB2DFF77C3
:102BE0003F2E36FE0DC0232D2E7FA22E891458F4C1
:102BF00034FE0BC032FC09C0832D8E7EA82E05C08A
:102C0000B82CA32C03C0B82C01C0B92CA4FE0FC053
:102C1000FE01E80DF11D8081803321F49A2D997E0B
:102C2000A92E09C0A2FE06C0B394B39404C08A2D95
:102C3000867809F0B394A3FC10C0A0FE06C0B214BD
:102C400080F4280C922C9B180DC0B21458F4B601D5
:102C500080E290E076D0B394F8CFB21418F42B1839
:102C600002C0982C212CA4FE0FC0B60180E390E096
:102C700068D0A2FE16C0A1FC03C088E790E002C0A5
:102C800088E590E0B6010CC08A2D867851F0A1FE4F
:102C900002C08BE201C080E2A7FC8DE2B60190E0A9
:102CA00050D0891430F4B60180E390E04AD09A9471
:102CB000F8CF8A94F301E80DF11D8081B60190E010
:102CC00040D08110F6CF222009F44ECEB60180E22A
:102CD00090E037D02A94F7CFF6018681978102C021
:102CE0008FEF9FEF2B960FB6F894DEBF0FBECDBFD0
:102CF000DF91CF911F910F91FF90EF90DF90CF90D8
:102D0000BF90AF909F908F907F906F905F904F900B
:102D10003F902F900895FC01059061507040011084
:102D2000D8F7809590958E0F9F1F0895FC016150F4
:102D3000704001900110D8F7809590958E0F9F1FDD
:102D400008950F931F93CF93DF93FB01238121FD00
:102D500003C08FEF9FEF2CC022FF16C04681578122
:102D6000248135814217530744F4A081B1819D012C
:102D70002F5F3F4F318320838C93268137812F5FD4
:102D80003F4F3783268314C08B01EC01FB01008485
:102D9000F185E02D1995892BE1F6D80116968D91D4
:102DA0009C911797019617969C938E931697CE0138
:102DB000DF91CF911F910F910895FA01AA27283032
:102DC00051F1203181F1E8946F936E7F6E5F7F4FF8
:102DD0008F4F9F4FAF4FB1E03ED0B4E03CD0670F74
:102DE000781F891F9A1FA11D680F791F8A1F911DC7
:102DF000A11D6A0F711D811D911DA11D20D009F417
:102E000068943F912AE0269F11243019305D319358
:102E1000DEF6CF010895462F4770405D4193B3E041
:102E20000FD0C9F7F6CF462F4F70405D4A3318F0E8
:102E3000495D31FD4052419302D0A9F7EACFB4E099
:102E4000A6959795879577956795BA95C9F7009751
:102E50006105710508959B01AC010A2E06945795F2
:102E6000479537952795BA95C9F7620F731F841F49
:0A2E7000951FA01D0895F894FFCFF0
:102E7A000200000300000400000000360000000009
:102E8A0000017F027F027F027F027F027F027F02B0
:102E9A007F0200004C04800000000000A503A50387
:102EAA00A50350034C034903000000000703C402B2
:102EBA00C20250034C03BF021D0600000000210598
:102ECA004F0A8B016D05BC019A01AE01706F742522
:102EDA00693A207261772025692C206D5620256970
:102EEA0000564D4450565F317C315F564D44505622
:102EFA000D0A00564D4450455F003A323A007C00B4
:082F0A005F564D4450450000E4
:020000023000CC
:10E000000D9489F10D94B2F10D94B2F10D94B2F129
:10E010000D94B2F10D94B2F10D94B2F10D94B2F1F0
:10E020000D94B2F10D94B2F10D94B2F10D94B2F1E0
:10E030000D94B2F10D94B2F10D94B2F10D94B2F1D0
:10E040000D94B2F10D94B2F10D94B2F10D94B2F1C0
:10E050000D94B2F10D94B2F10D94B2F10D94B2F1B0
:10E060000D94B2F10D94B2F10D94B2F10D94B2F1A0
:10E070000D94B2F10D94B2F10D94B2F10D94B2F190
:10E080000D94B2F10D94B2F10D94B2F10D94B2F180
:10E090000D94B2F10D94B2F10D94B2F10D94B2F170
:10E0A0000D94B2F10D94B2F10D94B2F10D94B2F160
:10E0B0000D94B2F10D94B2F10D94B2F10D94B2F150
:10E0C0000D94B2F10D94B2F10D94B2F10D94B2F140
:10E0D0000D94B2F10D94B2F10D94B2F10D94B2F130
:10E0E0000D94B2F141546D656761323536300041AF
:10E0F000726475696E6F206578706C6F72657220DE
:10E1000073746B3530305632206279204D4C530099
:10E11000426F6F746C6F616465723E004875683F52
:10E1200000436F6D70696C6564206F6E203D200048
:10E130004350552054797065202020203D20005FF9
:10E140005F4156525F415243485F5F3D2000415658
:10E1500052204C696243205665723D20004743437C
:10E160002056657273696F6E203D20004350552024
:10E1700049442020202020203D20004C6F7720663D
:10E18000757365202020203D20004869676820665F
:10E190007573652020203D200045787420667573D6
:10E1A00065202020203D20004C6F636B2066757336
:10E1B000652020203D20004D617220203720323024
:10E1C000313300312E362E3800342E332E350056A2
:10E1D00023202020414444522020206F7020636F70
:10E1E00064652020202020696E73747275637469E1
:10E1F0006F6E2061646472202020496E74657272B3
:10E20000757074006E6F20766563746F7200726A49
:10E210006D702020006A6D70200057686174207056
:10E220006F72743A00506F7274206E6F7420737541
:10E2300070706F72746564004D7573742062652030
:10E2400061206C6574746572002000577269747483
:10E25000696E672045450052656164696E672045B7
:10E26000450045452065727220636E743D00504F35
:10E27000525400303D5A65726F2061646472003FF1
:10E280003D43505520737461747300403D454550C3
:10E29000524F4D207465737400423D426C696E6B41
:10E2A000204C454400453D44756D70204545505215
:10E2B0004F4D00463D44756D7020464C415348001B
:10E2C000483D48656C70004C3D4C69737420492F83
:10E2D0004F20506F72747300513D51756974005234
:10E2E0003D44756D702052414D00563D73686F7707
:10E2F00020696E7465727275707420566563746FF0
:10E30000727300593D506F727420626C696E6B00BD
:10E310002A0011241FBECFEFD1E2DEBFCDBF01E046
:10E320000CBF12E0A0E0B2E0EEE1FDEF03E00BBFB6
:10E3300002C007900D92A030B107D9F712E0A0E01B
:10E34000B2E001C01D92AE30B107E1F70F9460F367
:10E350000D948DFE01E20EBF0FEF0DBF11241FBE05
:10E360000D9460F30D9400F020E030E040ED57E0B4
:10E3700005C0FA013197F1F72F5F3F4F2817390792
:10E38000C0F308959C01260F311DC901A0E0B0E043
:10E390002F5F3F4FABBFFC018791882361F08093D3
:10E3A000C6008091C00086FFFCCF8091C0008064D1
:10E3B0008093C000EACF08958DE08093C6008091DD
:10E3C000C00086FFFCCF8091C00080648093C000B5
:10E3D0008AE08093C6008091C00086FFFCCF8091C8
:10E3E000C00080648093C00008950F94C2F10F9420
:10E3F000DCF10895FC019081992359F09093C600B7
:10E400008091C00086FFFCCF8091C0008064809323
:10E41000C0003196992379F70895282F982F929567
:10E420009F70892F805D8A3308F0895F8093C600D2
:10E430008091C00086FFFCCF8091C00080648093F3
:10E44000C000822F8F70982F905D9A3308F0995FEB
:10E450009093C6008091C00086FFFCCF8091C000E1
:10E4600080648093C00008959C01FB01853691056E
:10E470001CF46330710594F0C90164E670E00F94F8
:10E480002EFE605D7F4F6093C6008091C00086FFC6
:10E49000FCCF8091C00080648093C0002B30310598
:10E4A00014F43297B4F0C90164E670E00F942EFEC4
:10E4B0006AE070E00F942EFE605D7F4F6093C600AF
:10E4C0008091C00086FFFCCF8091C0008064809363
:10E4D000C000C9016AE070E00F942EFEC0968093E0
:10E4E000C6008091C00086FFFCCF8091C000806490
:10E4F0008093C00008951F93182F8EE692EE60E07F
:10E500000F94C2F11093C6008091C00086FFFCCF2B
:10E510008091C00080648093C0000F94DCF11F9153
:10E5200008952F923F924F925F926F927F928F92B7
:10E530009F92AF92BF92CF92DF92EF92FF920F9392
:10E540001F93DF93CF93CDB7DEB762970FB6F894E2
:10E55000DEBF0FBECDBF382E622ECA01DB015C01CB
:10E560006D01772420E2222E2E010894411C511CBB
:10E570008BC081E0A81680E0B80681E0C80680E084
:10E58000D80628F0C601AA27BB270F940DF2BB2797
:10E59000AD2D9C2D8B2D0F940DF28A2D0F940DF225
:10E5A0002092C6008091C00086FFFCCF8091C00001
:10E5B00080648093C0009DE29093C6008091C0006B
:10E5C00086FFFCCF8091C00080648093C0002092C1
:10E5D000C6008091C00086FFFCCF8091C00080649F
:10E5E0008093C00019828601750188249924A1E0D6
:10E5F0003A1651F03A1620F0B2E03B1661F409C029
:10E600000BBFF701779007C0C7010F9477FE782EF4
:10E6100002C0F7017080872D0F940DF22092C60082
:10E620008091C00086FFFCCF8091C0008064809301
:10E63000C000872D8052F401EF70F0708F3520F408
:10E64000E40DF51D708204C0E40DF51D8EE280839B
:10E650000894E11CF11C011D111D0894811C911CE2
:10E6600090E18916910409F0C2CF80E190E0A0E02A
:10E67000B0E0A80EB91ECA1EDB1E198AC2010F9493
:10E68000FAF10F94DCF16A94662009F072CF629679
:10E690000FB6F894DEBF0FBECDBFCF91DF911F91B3
:10E6A0000F91FF90EF90DF90CF90BF90AF909F9031
:10E6B0008F907F906F905F904F903F902F90089534
:10E6C0002F923F924F925F926F927F928F929F9282
:10E6D000AF92BF92CF92DF92EF92FF920F931F9370
:10E6E000DF93CF93CDB7DEB7CD53D1400FB6F894BB
:10E6F000DEBF0FBECDBF01E20EBF0FEF0DBF94B75F
:10E70000F894A89514BE80916000886180936000A1
:10E7100010926000789493FF05C0E0910002F091A0
:10E7200001021995279A2F9A8091C00082608093E8
:10E73000C00080E18093C40088E18093C1000000A4
:10E74000EE24FF24870144E0A42EB12CCC24DD2448
:10E7500024C0C5010197F1F70894E11CF11C011DCB
:10E76000111D21E2E2162EE4F20620E0020720E06D
:10E77000120718F031E0C32ED12CC801B70127ECE5
:10E780003BE140E050E00F9441FE611571058105C9
:10E79000910519F485B1805885B98091C00087FD35
:10E7A00003C0C114D104A9F2A6014F5F5F4FC25E3E
:10E7B000DE4F59834883CE51D140C25EDE4F8881FF
:10E7C0009981CE51D140019711F00D9410FEC05D9A
:10E7D000DE4F19821882C053D14060E0C15DDE4F28
:10E7E0001882CF52D14088249924C35DDE4F19820C
:10E7F0001882CD52D140C05EDE4F188219821A8233
:10E800001B82C052D140CE5CDE4F188219821A8220
:10E810001B82C253D140EE24FF2487010BBFF701B6
:10E8200007911691C45CDE4F19830883CC53D14005
:10E830000D940BFEC25EDE4F28813981CE51D1404E
:10E840002130310509F52091C600C25EDE4F1982E4
:10E850001882CE51D14022C02F5F3F4F4F4F5F4FA4
:10E86000213082E138078AE7480780E0580780F0C6
:10E87000C45CDE4FE881F981CC53D140EF5FFF4F9C
:10E8800019F0EE27FF27099420E030E040E050E047
:10E890008091C00087FFE0CF2091C600C35DDE4FAE
:10E8A00048815981CD52D1404F5F5F4FC35DDE4FEC
:10E8B00059834883CD52D140213209F063C64A3092
:10E8C000510508F05FC60894811C911C53E0851621
:10E8D000910409F059C600E010E018C081E280936D
:10E8E000C6008091C00086FFFCCF8091C00080648C
:10E8F0008093C0002F5F3F4F2931310579F70F9486
:10E90000DCF10F5F1F4F0530110519F020E030E0FA
:10E91000E5CF10920A0210920B0210920C02109294
:10E920000D02109206021092070210920802109235
:10E930000902109202021092030210920402109235
:10E9400005028FEE90EE60E00F94F5F180E191EE1C
:10E9500060E00F94C2F18091C00087FFFCCF9091DE
:10E96000C600903608F09F759032B8F09093C600BC
:10E970008091C00086FFFCCF8091C00080648093AE
:10E98000C000A0E2A093C6008091C00086FFFCCF2B
:10E990008091C00080648093C000983409F4D7C18E
:10E9A0009934B8F4923409F459C1933458F490333B
:10E9B00019F1903308F4E3C59F33A1F1903409F0C5
:10E9C000DEC5BDC0953409F470C1963409F0D7C5D1
:10E9D00098C1923509F42BC2933538F49C3409F46C
:10E9E000F5C1913509F0CBC518C2963509F445C279
:10E9F000993509F0C4C567C483E792EE62E00F94CD
:10EA0000F5F110920602109207021092080210927D
:10EA1000090210920A0210920B0210920C0210923C
:10EA20000D0213C18FE792EE62E00F94F5F18FEEC5
:10EA300090EE60E00F94F5F181E291EE60E00F94CA
:10EA4000C2F187EB91EE60E00F94F5F180E391EE77
:10EA500060E00F94C2F184EE90EE60E00F94F5F167
:10EA60008FE391EE60E00F94C2F186E090E061E008
:10EA700070E00F9434F20F94DCF18DE591EE60E0DC
:10EA80000F94C2F189EC91EE60E00F94F5F18EE401
:10EA900091EE60E00F94C2F183EC91EE60E00F9490
:10EAA000F5F18CE691EE60E00F94C2F18EE10F94E7
:10EAB0000DF288E90F940DF281E00F940DF20F949E
:10EAC000DCF18BE791EE60E00F94C2F119E0E0E039
:10EAD000F0E010935700E4918E2F0F940DF20F94F5
:10EAE000DCF18AE891EE60E00F94C2F1E3E0F0E03F
:10EAF00010935700E4918E2F0F940DF20F94DCF1D8
:10EB000089E991EE60E00F94C2F1E2E0F0E0109349
:10EB10005700E4918E2F0F940DF20F94DCF188EAE8
:10EB200091EE60E00F94C2F1E1E0F0E01093570045
:10EB30001491812F0F940DF20F94DCF107CF8BE825
:10EB400092EE62E00F94F5F18BE492EE60E00F94A8
:10EB5000F5F10F94DCF100E010E019C0C8016F2D51
:10EB60000F947FFEFF2031F489E492EE60E00F9471
:10EB7000C2F10BC0F092C6008091C00086FFFCCFAE
:10EB80008091C00080648093C0000F5F1F4FC80158
:10EB900081519F41A0E0B0E0ABBFFC01F790BAE229
:10EBA000FB1621F0E2E000301E07C1F60F94DCF105
:10EBB0000F94DCF187E592EE60E00F94F5F10F948D
:10EBC000DCF1CC24DD2400E010E01EC0C8010F946D
:10EBD00077FEF82E882331F489E492EE60E00F94FA
:10EBE000C2F10BC08093C6008091C00086FFFCCFAD
:10EBF0008091C00080648093C000FE1419F00894D6
:10EC0000C11CD11C0F5F1F4FC80181519F41A0E063
:10EC1000B0E0ABBFFC01E790FAE2EF1621F022E092
:10EC20000030120799F60F94DCF10F94DCF182E6C4
:10EC300092EE60E00F94C2F1C60161E070E00F94C3
:10EC400034F20F94DCF10F94DCF110920202109276
:10EC50000302109204021092050278CE89E992EE26
:10EC600062E00F94F5F1279A2F9A16C02F9880E052
:10EC700090E0E0EDF7E03197F1F7019684369105E9
:10EC8000C1F72F9A80E090E0E0EDF7E03197F1F7DF
:10EC9000019684369105C1F78091C00087FFE6CFC9
:10ECA0008091C00087FFFCCF64C485EA92EE62E0E9
:10ECB0000F94F5F140910202509103026091040219
:10ECC0007091050281E020E10F9491F2809102029F
:10ECD00090910302A0910402B091050280509F4FD1
:10ECE000AF4FBF4F8093020290930302A0930402A0
:10ECF000B093050280509041A040B04008F426CE69
:10ED0000A4CF83EB92EE62E00F94F5F140910602FE
:10ED100050910702609108027091090280E020E1A1
:10ED20000F9491F28091060290910702A09108023F
:10ED3000B091090280509F4FAF4FBF4F80930602A2
:10ED400090930702A0930802B0930902FFCD80ECD4
:10ED500092EE62E00F94F5F183E792EE60E00F949B
:10ED6000F5F18FE792EE60E00F94F5F18BE892EE0B
:10ED700060E00F94F5F189E992EE60E00F94F5F10F
:10ED800085EA92EE60E00F94F5F183EB92EE60E09D
:10ED90000F94F5F180EC92EE60E00F94F5F187ECC2
:10EDA00092EE60E00F94F5F188ED92EE60E00F9442
:10EDB000F5F18FED92EE60E00F94F5F18AEE92EEB0
:10EDC00060E00F94F5F183E093EEBDCD87EC92EE19
:10EDD00062E00F94F5F181E40F947BF282E40F94EA
:10EDE0007BF283E40F947BF284E40F947BF285E45E
:10EDF0000F947BF286E40F947BF287E40F947BF20E
:10EE000088E40F947BF28AE40F947BF28BE40F94F6
:10EE10007BF28CE40F947BF299CD88ED92EE62E068
:10EE20000F94F5F1772473948824992409C48FED05
:10EE300092EE62E00F94F5F140910A0250910B02BC
:10EE400060910C0270910D0282E020E10F9491F22A
:10EE500080910A0290910B02A0910C02B0910D02D8
:10EE600080509F4FAF4FBF4F80930A0290930B0289
:10EE7000A0930C02B0930D0269CD8AEE92EE62E08F
:10EE80000F94F5F184EE90EE60E00F94F5F18FECC5
:10EE900091EE60E00F94F5F1662477244301CC5D98
:10EEA000DE4F19821882C452D140D401C301B695F5
:10EEB000A79597958795CA5DDE4F88839983AA8326
:10EEC000BB83C652D140CC5DDE4FA881B981C4520C
:10EED000D1401196CC5DDE4FB983A883C452D14096
:10EEE000CD0162E070E00F9434F2B0E2B093C6005E
:10EEF0008091C00086FFFCCF8091C0008064809329
:10EF0000C000EDE2E093C6008091C00086FFFCCF18
:10EF10008091C00080648093C000F0E2F093C6004E
:10EF20008091C00086FFFCCF8091C00080648093F8
:10EF3000C000CA5DDE4FE880F9800A811B81C6529D
:10EF4000D140BB27A12F902F8F2D0F940DF2CA5DBA
:10EF5000DE4F8881C652D1400F940DF2B0E2FB2EF5
:10EF6000F092C6008091C00086FFFCCF8091C00067
:10EF700080648093C0000DE30093C6008091C000C0
:10EF800086FFFCCF8091C00080648093C00010E2B7
:10EF90001093C6008091C00086FFFCCF8091C00016
:10EFA00080648093C0008BBEF3012791C65DDE4F65
:10EFB0002883CA52D140A22EBB24CC24DD2408943D
:10EFC000611C711C811C911C8BBEF3018791282E42
:10EFD0003324442455240894611C711C811C911C09
:10EFE0008BBEF3013791C55DDE4F3883CB52D140E4
:10EFF0000894611C711C811C911C8BBEF30147910C
:10F00000C45DDE4F4883CC52D140ADEFEA2EAFEF66
:10F01000FA2EAFEF0A2FAFEF1A2F6E0C7F1C801E57
:10F02000911E142D032DF22CEE24EA0CFB1C0C1D5A
:10F030001D1D0F940DF220E22093C6008091C000A8
:10F0400086FFFCCF8091C00080648093C000C65DC5
:10F05000DE4F8881CA52D1400F940DF230E23093D6
:10F06000C6008091C00086FFFCCF8091C000806404
:10F070008093C000C45DDE4F8881CC52D1400F9494
:10F080000DF240E24093C6008091C00086FFFCCFA5
:10F090008091C00080648093C000C55DDE4F888190
:10F0A000CB52D1400F940DF250E25093C6008091A4
:10F0B000C00086FFFCCF8091C00080648093C000B8
:10F0C0008FEFE8168FEFF80680E0080780E018075A
:10F0D00031F484E092EE60E00F94C2F1DFC0D80119
:10F0E000C7018070907CA070B0708050904CA040A0
:10F0F000B040D1F52FEF3FE340E050E0E222F322B1
:10F1000004231523CA5DDE4FA880B980CA80DB8046
:10F11000C652D140AE0CBF1CC01ED11EAA0CBB1CD7
:10F12000CC1CDD1C8EE092EE60E00F94C2F1BB2798
:10F13000A12F902F8F2D0F940DF28E2D0F940DF285
:10F1400030E23093C6008091C00086FFFCCF8091F2
:10F15000C00080648093C0004EE34093C60080915D
:10F16000C00086FFFCCF87C08EE09EEFA0E0B0E03D
:10F17000E822F9220A231B239CE0E91694E9F90608
:10F1800090E0090790E0190709F088C0C45DDE4FE0
:10F19000A881CC52D140EA2EFF2400E010E0102FCD
:10F1A0000F2DFE2CEE24C55DDE4FB881CB52D14031
:10F1B000EB0EF11C011D111DD601C501817090706F
:10F1C000A070B070DC0199278827E80EF91E0A1F8D
:10F1D0001B1F20EF30E040E050E0A222B322C42207
:10F1E000D52241E1AA0CBB1CCC1CDD1C4A95D1F7F1
:10F1F000EA0CFB1C0C1D1D1D81E090E0A0E0B0E0BE
:10F20000282239224A225B2235E1220C331C441C7D
:10F21000551C3A95D1F7E20CF31C041D151D57013E
:10F220006801AA0CBB1CCC1CDD1C85E192EE60E0E1
:10F230000F94C2F1C801AA27BB270F940DF2BB2778
:10F24000A12F902F8F2D0F940DF28E2D0F940DF274
:10F2500090E29093C6008091C00086FFFCCF809121
:10F26000C00080648093C000AEE3A093C60080918C
:10F27000C00086FFFCCF8091C00080648093C000F6
:10F28000C601AA27BB270F940DF2BB27AD2D9C2DDD
:10F290008B2D0F940DF28A2D0F940DF20F94DCF14B
:10F2A000CC5DDE4FE881F981C452D140F99709F471
:10F2B0004DCBF4E0EF2EF12C012D112D6E0C7F1CA7
:10F2C000801E911EF2CD83E093EE62E00F94F5F183
:10F2D0008AE192EE60E00F94C2F18091C00087FF56
:10F2E000FCCF1091C6001F751093C6008091C0001E
:10F2F00086FFFCCF8091C00080648093C0000F9493
:10F30000DCF1812F81548A3108F036C1163409F4BA
:10F3100095C0173490F4133409F44EC0143430F40B
:10F320001134F1F0123409F01DC130C0143409F465
:10F3300059C0153409F016C16BC01A3409F4C4C0A1
:10F340001B3438F4173409F48FC0183409F00AC19B
:10F35000A1C01B3409F4D2C01C3409F003C1E8C0B9
:10F360008FEF81B90DC082B1809582B980E090E0C5
:10F37000E0EDF7E03197F1F70196883C9105C1F790
:10F380008091C00087FFEFCF12B8EFC08FEF84B934
:10F390000DC085B1809585B980E090E0E0EDF7E0A3
:10F3A0003197F1F70196883C9105C1F78091C00033
:10F3B00087FFEFCF15B8D9C08FEF87B90DC088B1DF
:10F3C000809588B980E090E0E0EDF7E03197F1F7C3
:10F3D0000196883C9105C1F78091C00087FFEFCF6F
:10F3E00018B8C3C08FEF8AB90DC08BB180958BB9A7
:10F3F00080E090E0E0EDF7E03197F1F70196883C8E
:10F400009105C1F78091C00087FFEFCF1BB8ADC059
:10F410008FEF8DB90DC08EB180958EB980E090E0F0
:10F42000E0EDF7E03197F1F70196883C9105C1F7DF
:10F430008091C00087FFEFCF1EB897C08FEF80BBD1
:10F440000DC081B3809581BB80E090E0E0EDF7E0F6
:10F450003197F1F70196883C9105C1F78091C00082
:10F4600087FFEFCF11BA81C08FEF83BB0DC084B38C
:10F47000809584BB80E090E0E0EDF7E03197F1F714
:10F480000196883C9105C1F78091C00087FFEFCFBE
:10F4900014BA6BC08FEF809301010FC080910201FD
:10F4A00080958093020180E090E0E0EDF7E03197F5
:10F4B000F1F70196883C9105C1F78091C00087FF64
:10F4C000EDCF1092020151C08FEF809304010FC065
:10F4D0008091050180958093050180E090E0E0ED4A
:10F4E000F7E03197F1F70196883C9105C1F78091DB
:10F4F000C00087FFEDCF1092050137C08FEF8093DA
:10F5000007010FC08091080180958093080180E079
:10F5100090E0E0EDF7E03197F1F70196883C910536
:10F52000C1F78091C00087FFEDCF109208011DC088
:10F530008FEF80930A010FC080910B01809580931B
:10F540000B0180E090E0E0EDF7E03197F1F70196F4
:10F55000883C9105C1F78091C00087FFEDCF1092E4
:10F560000B0103C085E292EEEEC98091C00087FFD7
:10F57000FCCF8091C600EAC988E392EEE4C98CE131
:10F5800091EEE1C988249924933011F1943028F444
:10F59000913089F09230B8F408C0953061F195301F
:10F5A000F0F0963009F048C043C02B3109F042C951
:10F5B00091E06BE13FC96227C15DDE4F2883CF52E6
:10F5C000D14092E037C9B22FA0E0622793E032C960
:10F5D000822F90E0A82BB92B622794E02BC92E3004
:10F5E00009F039C3622795E0C05DDE4F19821882A9
:10F5F000C053D1401FC9E1E0F0E0EC0FFD1FC05D3A
:10F60000DE4F08811981C053D140E00FF11F2083E4
:10F610000F5F1F4FC05DDE4F19830883C053D14079
:10F6200062270A171B0709F005C9D80196E002C92D
:10F63000261709F010C303C0973009F0FBC87724E0
:10F640009981933109F412C19431C8F4963009F4C8
:10F65000D8C0973050F4923009F406C1933009F4C1
:10F660006DC0913009F059C253C0913109F477C08F
:10F67000923108F0BBC0903109F04FC2F5C098310B
:10F6800009F487C0993150F4953109F4EFC09531F0
:10F6900008F4C6C1963109F040C2C2C19A3109F4DA
:10F6A0006CC09A3108F491C09B3109F45BC09D3164
:10F6B00009F033C29D81903359F48F81882311F46E
:10F6C0009EE11CC0813011F091E018C098E916C08D
:10F6D000892F807591F0903539F4E0E0F0E089E011
:10F6E0008093570094910AC0983539F4E3E0F0E034
:10F6F00089E080935700949101C090E01A821B82A8
:10F700008D818C831D829E831F8227E030E009C299
:10F710001A8288E08B8381E48C8386E58D8382E581
:10F720008E8389E48F8383E5888780E589878FE5E9
:10F730008A8782E38B872BE030E0F3C18A818139AD
:10F7400041F0823941F0803911F48FE005C080E04A
:10F7500003C082E001C08AE01A828B8344C0772410
:10F76000739482C08D81882311F48EE12CC0813086
:10F7700011F081E028C088E926C01A82E1E0F0E0BB
:10F7800089E08093570084918B831C8224E030E0D1
:10F79000C8C18B81803589F48C81883039F4E2E0EE
:10F7A000F0E089E08093570084910DC0E0E0F0E044
:10F7B00089E080935700849106C0E3E0F0E089E09F
:10F7C0008093570084911A82DFCF8D81836C99E0FA
:10F7D000E1E0F0E0082E90935700E89507B600FCB2
:10F7E000FDCF1A821B8223E030E09BC180EC8A832C
:10F7F000CE5CDE4F188219821A821B82C253D1401E
:10F800008EC18A8190E0A0E0B0E0582F44273327D2
:10F8100022278B8190E0A0E0B0E0DC0199278827C7
:10F82000282B392B4A2B5B2B8D8190E0A0E0B0E098
:10F83000282B392B4A2B5B2B8C8190E0A0E0B0E089
:10F84000BA2FA92F982F8827282B392B4A2B5B2BCF
:10F85000220F331F441F551FC05EDE4F288339839C
:10F860004A835B83C052D1401A8259C13A81C95C34
:10F87000DE4F3883C753D140CA5CDE4F1882C6536F
:10F88000D1408B81C82EDD24CA5CDE4F488159816E
:10F89000C653D140C42AD52A933109F082C0CE5C28
:10F8A000DE4F88819981AA81BB81C253D1408050AB
:10F8B000904CA340B04030F583E0CE5CDE4FE88052
:10F8C000F9800A811B81C253D140F70100935B008C
:10F8D00080935700E89507B600FCFDCFCE5CDE4F65
:10F8E000088119812A813B81C253D14000501F4FAA
:10F8F0002F4F3F4FCE5CDE4F088319832A833B8313
:10F90000C253D140C05EDE4F488159816A817B81FC
:10F91000C052D140DE011B9631E08C9111962C91A2
:10F9200011971296C75CDE4F2883C953D140C85C3B
:10F93000DE4F1882C853D14090E0C85CDE4FE881AA
:10F94000F981C853D1408E2B9F2B0C01FA01609393
:10F950005B0030935700E89511244E5F5F4F6F4F67
:10F960007F4F0EEFE02E0FEFF02ECE0CDF1CC114F8
:10F97000D10499F685E0C05EDE4F088119812A81A5
:10F980003B81C052D140F80120935B008093570027
:10F99000E89507B600FCFDCF81E180935700E8951C
:10F9A00035C0C05EDE4F88819981AA81BB81C0527B
:10F9B000D140B695A795979587957C018601ABE0D8
:10F9C000AA2EB12CAC0EBD1E0BC0D5016D915D01F0
:10F9D000C7010F947FFE0894E11CF11C01501040F8
:10F9E0000115110591F7A60160E070E0440F551F65
:10F9F000661F771FC05EDE4FE880F9800A811B8199
:10FA0000C052D1404E0D5F1D601F711F1A82C05E33
:10FA1000DE4F488359836A837B83C052D1407FC0C5
:10FA2000FA80C55CDE4FF882CB53D140C65CDE4F16
:10FA30001882CA53D1408B81C82EDD24C65CDE4FAC
:10FA400008811981CA53D140C02AD12A1A828981DA
:10FA5000BE016D5F7F4F843121F59601C05EDE4FA0
:10FA6000E880F9800A811B81C052D1400BBFF701A9
:10FA700087919691DB018C9311969C936E5F7F4FDB
:10FA8000D801C7010296A11DB11DC05EDE4F88835B
:10FA90009983AA83BB83C052D14022503040F1F6F3
:10FAA00036C0C05EDE4F288139814A815B81C052F9
:10FAB000D1400894C108D108760100E010E0089414
:10FAC000C11CD11C0894E11CF11C011D111DE20E8A
:10FAD000F31E041F151F21BDBB27A52F942F832FB5
:10FAE00082BD2F5F3F4F4F4F5F4FF89A80B5DB01CC
:10FAF0008D93BD012E153F054007510761F7C05E8C
:10FB0000DE4F288339834A835B83C052D1409601FC
:10FB10002D5F3F4FFB01108204C080EC8A8322E0FE
:10FB200030E08BE18093C6008091C00086FFFCCF5F
:10FB30008091C00080648093C000C15DDE4FF88179
:10FB4000CF52D140F093C6008091C00086FFFCCF19
:10FB50008091C00080648093C000432F3093C60022
:10FB60008091C00086FFFCCF8091C00080648093AC
:10FB7000C000922F2093C6008091C00086FFFCCF6A
:10FB80008091C00080648093C0008EE08093C600A6
:10FB90008091C00086FFFCCF8091C000806480937C
:10FBA000C00065E1C15DDE4FE880CF52D1406E25D7
:10FBB00069276427FE01319610C090819093C6009A
:10FBC0008091C00086FFFCCF31968091C000806498
:10FBD0008093C0006927215030402115310569F715
:10FBE0006093C6008091C00086FFFCCF8091C0006A
:10FBF00080648093C00085B1805885B9772081F4F6
:10FC0000C15DDE4F0881CF52D1400F5FC15DDE4F35
:10FC10000883CF52D14090E0A0E0B0E00D941AF4F8
:10FC200027982F9880E090E020ED37E0F901319798
:10FC3000F1F7019684369105C9F700008091C00064
:10FC40008D7F8093C00081E180935700E895EE2777
:10FC5000FF270994FFCF90E00D941AF497FB092E2B
:10FC600007260AD077FD04D02ED006D000201AF443
:10FC7000709561957F4F0895F6F7909581959F4F08
:10FC80000895A1E21A2EAA1BBB1BFD010DC0AA1FDD
:10FC9000BB1FEE1FFF1FA217B307E407F50720F0F5
:10FCA000A21BB30BE40BF50B661F771F881F991F70
:10FCB0001A9469F760957095809590959B01AC01B9
:10FCC000BD01CF010895AA1BBB1B51E107C0AA1FAC
:10FCD000BB1FA617B70710F0A61BB70B881F991FED
:10FCE0005A95A9F780959095BC01CD010895F99991
:10FCF000FECF92BD81BDF89A992780B50895262F31
:10FD0000F999FECF1FBA92BD81BD20BD0FB6F89400
:0EFD1000FA9AF99A0FBE01960895F894FFCF63
:040000033000E000E9
:00000001FF