:1000000072C00000A0C000009EC000009CC00000A4
:100010009AC0000098C0000096C0000094C0000084
:1000200092C0000090C000008EC000008CC0000094
:100030008AC0000088C0000086C0000084C00000A4
:1000400082C0000080C000007EC000007CC00000B4
:100050007AC0000078C0000076C0000077C50000BC
:1000600072C00000BCC2000091C200006CC0000061
:100070006AC0000068C0000066C0000064C00000E4
:1000800062C0000060C000005EC000005CC00000F4
:100090005AC0000058C0000056C0000054C0000004
:1000A00052C0000050C000004EC000004CC0000014
:1000B0004AC0000048C0000046C0000044C0000024
:1000C00042C0000040C000003EC000003CC0000034
:1000D0003AC0000038C0000036C0000034C0000044
:1000E00032C00000D10911241FBECFEFD1E2DEBF24
:1000F000CDBF00E00CBF24E0AEE5B2E001C01D9230
:10010000A733B207E1F712E0A0E0B2E0E8E4F5E1DE
:1001100000E00BBF02C007900D92AE35B107D9F7D2
:1001200010E0C3E7D0E000E006C021970109802F6E
:10013000FE010E94960AC237D10780E00807A9F79E
:1001400085D70C94A20A5CCF80E991E008950895C8
:1001500080E090E00895FC01538D448D252F30E020
:10016000842F90E0821B930B541710F0CF960895C4
:1001700001970895FC01918D828D981761F0828D11
:10018000DF01A80FB11D5D968C91928D9F5F9F73CB
:10019000928F90E008958FEF9FEF0895FC01918D6D
:1001A000828D981731F0828DE80FF11D858D90E0DA
:1001B00008958FEF9FEF0895FC01918D228D892F77
:1001C00090E0805C9F4F821B91098F73992708955F
:1001D0008BE393E0F1DF21E0892B09F420E0822F0B
:1001E0000895FC01848DDF01A80FB11DA35ABF4FF4
:1001F0002C91848D90E001968F739927848FA68926
:10020000B7892C93A089B1898C91837080648C9379
:10021000938D848D981306C00288F389E02D808128
:100220008F7D80830895EF92FF920F931F93CF935A
:10023000DF93EC0181E0888F9B8D8C8D981305C036
:10024000E889F989808185FD25C0F62E0B8D10E0A7
:100250000F5F1F4F0F731127E02E8C8DE8120BC01C
:100260000FB607FCFACFE889F989808185FFF5CFC1
:10027000CE01B7DFF2CF8B8DFE01E80FF11DE35AFF
:10028000FF4FF0829FB7F8940B8FEA89FB8980813A
:1002900080620AC09FB7F894EE89FF896083E8897D
:1002A000F98980818370806480839FBF81E090E0C2
:1002B000DF91CF911F910F91FF90EF900895CF9311
:1002C000DF93EC01888D8823C1F0EA89FB89808166
:1002D00085FD05C0A889B9898C9186FD0EC00FB631
:1002E00007FCF5CF808185FFF2CFA889B9898C9171
:1002F00085FFEDCFCE0175DFE8CFDF91CF91089577
:1003000080E090E0892B19F063DF811125C080E047
:1003100090E0892B41F080E090E0892B21F00E9451
:10032000000081111CC080E090E0892B41F080E04A
:1003300090E0892B21F00E940000811113C080E021
:1003400090E0892BA1F080E090E0892B81F00E9461
:10035000000081110AC008950E940000D8CF0E94B9
:100360000000E1CF0E940000EACF0C940000089545
:100370000F931F93CF93DF9320915F022F5F322F54
:10038000377030935F0220FF02C020E801C020E0F8
:1003900031FD2064347009F02062205FFC01EC0123
:1003A000239600E011E06485662331F070E0C80117
:1003B0000E94690A6F5F01C060E06187322F369F3B
:1003C000030E30E0311D1124311102C0168202C02B
:1003D00031503683662311F0615061873196CE1714
:1003E000DF0709F7DF91CF911F910F910895229AAE
:1003F00008950F931F93CF93DF93CDB7DEB7629726
:100400000FB6F894DEBF0FBECDBF8C01F901DC0141
:100410001C968C917A8369835C834B835E834D83C6
:1004200090819D8791819E8792819F87813021F461
:10043000CE0101969DDF06C01C861B861A86198692
:1004400018861F8283E0888B1A8A198AD801ED9159
:10045000FC910484F585E02DBE016F5F7F4FC801DC
:10046000199562960FB6F894DEBF0FBECDBFDF912F
:10047000CF911F910F9108950F931F93CF93DF9307
:10048000CDB7DEB762970FB6F894DEBF0FBECDBF13
:100490008C01F901DC011C968C917A8369835C8361
:1004A0004B835E834D8390819D8791819E8792814E
:1004B0009F87813021F4CE0101965ADF06C01C8649
:1004C0001B861A86198618861F82188A1A8A198A24
:1004D000D801ED91FC910484F585E02DBE016F5F9C
:1004E0007F4FC801199562960FB6F894DEBF0FBE14
:1004F000CDBFDF91CF911F910F91089580E090E0E3
:100500000895FC01858596850895CF93DF9300D0EB
:1005100000D0CDB7DEB7AB011C821D821E82DC018C
:10052000ED91FC910190F081E02D19821A821B82DD
:100530009E012F5F3F4FBE016C5F7F4F199526963E
:100540000FB6F894DEBF0FBECDBFDF91CF910895F7
:10055000809184028F5F80938402CDD480912004A7
:10056000B8C364E372E08BE393E05BD56AE572E0C5
:100570008BE393E056C560E472E08BE393E051D5E2
:100580006AE572E08BE393E04CC5D8D71F920F92D7
:100590000FB60F9211240BB60F922F933F934F93E8
:1005A0005F936F937F938F939F93AF93BF93EF93DB
:1005B000FF938BE393E015DEFF91EF91BF91AF9135
:1005C0009F918F917F916F915F914F913F912F916B
:1005D0000F900BBE0F900FBE0F901F9018951F929B
:1005E0000F920FB60F9211240BB60F922F938F9389
:1005F0009F93EF93FF93E0914B03F0914C03808125
:10060000E0915103F091520382FD12C090818091DC
:1006100054038F5F8F7320915503821751F0E0913F
:100620005403F0E0E55CFC4F958F8093540301C0C8
:100630008081FF91EF919F918F912F910F900BBE31
:100640000F900FBE0F901F9018953FB7F8948091B0
:10065000650290916602A0916702B091680226B58A
:10066000A89B05C02F3F19F00196A11DB11D3FBFEA
:10067000BA2FA92F982F8827820F911DA11DB11D78
:10068000BC01CD0142E0660F771F881F991F4A9574
:10069000D1F708954F925F926F927F928F92AF92AF
:1006A000BF92CF92DF92EF920F931F93CF93DF937E
:1006B0003C01EB01CADFF30127853089621B730B14
:1006C0006A307105B8F3F894E881F98175B1746006
:1006D00065B16B7F65B9CA848F812C2D281B822F51
:1006E0002F83BF844A805B801D850C85DE841F5F5D
:1006F0000F5FD3949E813885A984EB844181D20118
:1007000020E0C32F522F322F31814427889431119A
:10071000380F08F43FEF8195889410FD430F4795FB
:10072000889411FD430F4795889412FD430F479518
:10073000889413FD430F4795889414FD430F479504
:10074000889415FD430F4795889416FD430F4795F0
:10075000889417FD430F47958894232F1111242F58
:100760008C0D422F002C75B900C047FF65B9308150
:100770002227889400C000C0002C65B93111390FC0
:1007800000C0002C75B900C046FF65B908F43FEF02
:100790009195889400C000C0002C65B900FD230F1E
:1007A00000C0002C75B900C045FF65B92795889435
:1007B00001FD230F00C000C0002C65B92795889467
:1007C00000C0002C75B900C044FF65B902FD230FBD
:1007D0002795889400C000C0002C65B903FD230F45
:1007E00000C0002C75B900C043FF65B927958894F7
:1007F00004FD230F00C000C0002C65B92795889424
:1008000000C0002C75B900C042FF65B905FD230F7B
:100810002795889400C000C0002C65B906FD230F01
:1008200000C0002C75B900C041FF65B927958894B8
:1008300007FD230F00C000C0002C65B927958894E0
:1008400000C0002C75B900C040FF65B9432F0111ED
:10085000422F9A0D00C000C0002C65B900C000C036
:10086000002C75B900C047FF65B9328122278894F2
:1008700000C000C0002C65B931113C0F00C0002C35
:1008800075B900C046FF65B908F43FEFEB0DF11DE7
:1008900000C000C0002C65B9D0FC230F00C0002CA4
:1008A00075B900C045FF65B927958894D1FC230F21
:1008B00000C000C0002C65B92795889400C0002CAA
:1008C00075B900C044FF65B9D2FC230F2795889401
:1008D00000C000C0002C65B9D3FC230F00C0002C61
:1008E00075B900C043FF65B927958894D4FC230FE0
:1008F00000C000C0002C65B92795889400C0002C6A
:1009000075B900C042FF65B9D5FC230F27958894BF
:1009100000C000C0002C65B9D6FC230F00C0002C1D
:1009200075B900C041FF65B927958894D7FC230F9E
:1009300000C000C0002C65B92795889400C0002C29
:1009400075B900C040FF65B9432FD110422FC19542
:1009500000C000C0002C65B9CE0D00C000C075B944
:1009600000C047FF65B931812227889400C000C0CC
:10097000002C65B93111380F00C0002C75B900C0CA
:1009800046FF65B908F43FEF8195889400C000C028
:10099000002C65B910FD230F00C0002C75B900C0F4
:1009A00045FF65B92795889411FD230F00C000C04D
:1009B000002C65B92795889400C0002C75B900C03B
:1009C00044FF65B912FD230F2795889400C000C02D
:1009D000002C65B913FD230F00C0002C75B900C0B1
:1009E00043FF65B92795889414FD230F00C000C00C
:1009F000002C65B92795889400C0002C75B900C0FB
:100A000042FF65B915FD230F2795889400C000C0EB
:100A1000002C65B916FD230F00C0002C75B900C06D
:100A200041FF65B92795889417FD230F00C000C0CA
:100A3000002C65B92795889400C0002C75B900C0BA
:100A400040FF65B9432F1111422F8C0D00C000C02B
:100A5000002C65B9119709F086CE20EE31E0D20165
:100A60004BD5DC01CB01F4E0B695A795979587951A
:100A7000FA95D1F720E030E0B901EAE94E9E040C86
:100A8000611D5E9E600D711D1124650D711D860F27
:100A9000971FA11DB11D893E43E09407A105B10533
:100AA00008F434C0885E9340A109B10942E0B695CC
:100AB000A795979587954A95D1F747E0849F080EAB
:100AC000211D949F200D311D1124290F311D60918E
:100AD0005E0270E0860F971F820F931F40916102A4
:100AE000509162026091630270916402292F332752
:100AF000420F531F611D711D4093610250936202AA
:100B0000609363027093640280935E0278949DDD2B
:100B1000F301708B6787DF91CF911F910F91EF9059
:100B2000DF90CF90BF90AF908F907F906F905F904D
:100B30004F9008952FB7F89460916102709162020E
:100B400080916302909164022FBF08951F920F92CB
:100B50000FB60F9211242F933F938F939F93AF93D0
:100B6000BF938091610290916202A0916302B09163
:100B700064023091600223E0230F2D3720F40196A8
:100B8000A11DB11D05C026E8230F0296A11DB11DB0
:100B9000209360028093610290936202A0936302AB
:100BA000B09364028091650290916602A091670201
:100BB000B09168020196A11DB11D809365029093CA
:100BC0006602A0936702B0936802BF91AF919F91B4
:100BD0008F913F912F910F900FBE0F901F901895FE
:100BE000CF92DF92EF92FF920F931F93CF93DF93F9
:100BF0006C017A018B01C0E0D0E0CE15DF0581F0F9
:100C0000D8016D918D01D601ED91FC910190F0819B
:100C1000E02DC6011995892B11F02196EECF7E01AA
:100C2000C701DF91CF911F910F91FF90EF90DF905F
:100C3000CF900895EBE3F3E0A089B18982E08C9333
:100C4000A485B5851C92A685B78583E38C93108E09
:100C5000A489B58986E08C93A289B3898C9180613F
:100C60008C93A289B3898C9188608C93A289B38973
:100C70008C9180688C930288F389E02D80818F7D30
:100C800080830895EBEAF2E027813085821793078D
:100C900031F0399623E0EB33F207B1F702C0309719
:100CA00061F4EBEAF2E027813085232B59F0399685
:100CB00023E0EB33F207B9F703C075836483168230
:100CC00080E008959087878375836483168281E02E
:100CD00008953F924F925F926F927F928F929F9270
:100CE000AF92BF92CF92DF92EF92FF920F931F933A
:100CF000CF93DF9300D0CDB7DEB7F82E80912304D9
:100D000090912404A0912504B0912604892B8A2B6C
:100D10008B2BE1F09ADC0091330410913404209184
:100D2000350430913604DC01CB01801B910BA20B02
:100D3000B30B0091230410912404209125043091D9
:100D4000260480179107A207B307C0F27EDC6093E8
:100D50003304709334048093350490933604E09107
:100D60002B04F0912C04309759F0409127045091B6
:100D700028046091290470912A048F2D1995F82E6A
:100D80000091A9021091AA024F2C512C612C712CB8
:100D90000115110509F45DC0D8011C96EC901C9753
:100DA00080912104909122048436910510F41C96C0
:100DB0001C92D801ED91FC91A280B38019821A8215
:100DC0001B82F11014C0F80145855685628173813C
:100DD0009E012F5F3F4FC801F5011995D8011C9660
:100DE000EC921C9714960D911C911597D1CFF80198
:100DF0003696CE0101966C01480199E0890E911C4E
:100E000021912223F9F032803320E1F0822F90E00B
:100E1000A0E0B0E09C01AD012F5F3F4F4F4F5F4F0F
:100E2000C301B2010CD39B01AC01832D90E0A0E083
:100E3000B0E0BC01CD016F5F7F4F8F4F9F4FFFD25E
:100E4000D6018C93BFEFCB1ADB0AE815F905C1F682
:100E5000BACF80913104909132048C010F5F1F4F03
:100E60001093320400933104499784F163DE4B01FF
:100E70005C0188EE93E0089FB001099F700D189FF8
:100E8000700D1124072E000C880B990BC0902D04B7
:100E9000D0902E04E0902F04F0903004A50194012E
:100EA0002C193D094E095F09D9D2309322042093B1
:100EB000210410923204109231043CDE60932D0420
:100EC00070932E0480932F04909330040F900F9012
:100ED0000F90DF91CF911F910F91FF90EF90DF90D6
:100EE000CF90BF90AF909F908F907F906F905F90CA
:100EF0004F903F9008950F931F93CF93E5E8F2E052
:100F0000BCE3B80F15E5A0E060EF7BEA0AEACFE0AA
:100F1000382F3F71330F330F330F232F219F020ED2
:100F200020E0211D1124922F482F4074282F207279
:100F300087FD20C041110AC0211103C0492F4095EF
:100F40000FC025E5290F40E09BEA35C021110FC0F5
:100F5000309F030E30E0311D1124472F431B96555F
:100F6000442309F433C0292F942F40E024C0292FB3
:100F7000209551C041110FC021110AC0309F030EAE
:100F800030E0311D1124272F231B95E5930F43C01B
:100F9000492F40950DC0211106C035E5390F472F67
:100FA000491B932F05C02AEA290F412F491B922F75
:100FB00020E09923A1F0392F369F030E30E0311D38
:100FC000932F222361F0392F922F03C0992331F1FF
:100FD00030E0292F269F020E20E0211D932F44236D
:100FE00021F0469F040E40E0411D11245C2F559FC7
:100FF000050E50E0511D1124392F350F3083250F78
:101000002183450F42838B5F33968B1381CFCF9122
:101010001F910F910895492F90E0D3CF20E0492FE1
:10102000E4CF6115710579F0FB0101900020E9F72B
:101030003197AF01461B570BDC01ED91FC9102800B
:10104000F381E02D199480E090E00895789484B5C0
:10105000826084BD84B5816084BD85B5826085BDB4
:1010600085B5816085BD80916E00816080936E0042
:101070001092810080918100826080938100809134
:1010800081008160809381008091800081608093E5
:1010900080008091B10084608093B1008091B000A5
:1010A00081608093B0008091910082608093910074
:1010B0008091910081608093910080919000816087
:1010C000809390008091A10082608093A100809124
:1010D000A10081608093A1008091A0008160809335
:1010E000A0008091210182608093210180912101E3
:1010F0008160809321018091200181608093200193
:1011000080917A00846080937A0080917A00826076
:1011100080937A0080917A00816080937A00809138
:101120007A00806880937A001092C10010921C04AB
:1011300010921D0410921E0410921F041092DA03E4
:101140001092DB031092DC031092DD03F3DC6B01E1
:101150007C014B015C0128EB820E2BE0921EA11C4E
:10116000B11CE8DC6C157D058E059F0528F0861600
:101170009706A806B906A8F78BE393E090931B04A3
:1011800080931A0457DDD6DC6093DA037093DB0397
:101190008093DC039093DD036BE472E080911A048A
:1011A00090911B043EDFC6DC6B017C014B015C01AE
:1011B0008AE0880E911CA11CB11CBCDC6C157D055D
:1011C0008E059F0528F086169706A806B906A8F78B
:1011D00081E08093EE0339DA4B015C0184EFC82E85
:1011E000DD24D394E12CF12C30DADC01CB01881919
:1011F0009909AA09BB09883E9340A105B105A0F34E
:10120000A1E0CA1AD108E108F108B8EE8B0EB3E0EC
:101210009B1EA11CB11CC114D104E104F10421F7EF
:1012200009DD80E9EBEAF2E0DF011D928A95E9F73A
:1012300068EE73E08BEB92E025DD64EF71E081EB0B
:1012400092E020DD80917C02811145C010926E02F7
:1012500010926D028FEF80937102809372028093DF
:10126000730280937402809375028093760281E00A
:101270008093770210927902109278021092700295
:1012800010926F028091A9029091AA02892B31F4E9
:101290008BE692E09093AA028093A902E091690202
:1012A000F0916A02309721F08BE692E09583848377
:1012B0008BE692E090936A028093690210927B021F
:1012C00010927A0284E192E090936C0280936B0218
:1012D00081E080937C02229A85E892E090936E02EE
:1012E00080936D028CE090E0909379028093780275
:1012F0008091230490912404A0912504B0912604A8
:10130000843CE9E09E07A105B10520F484EC99E056
:10131000A0E0B0E08093230490932404A0932504DC
:10132000B09326041092840280E0E5DD80912004D1
:10133000D0DC64E170E088EA92E0A4DC19E0FADB3A
:101340006B017C01CBEAD2E0EF81F885309719F48C
:101350000E948001F4CF88819981AA81BB81B70165
:10136000A601481B590B6A0B7B0B8C819D81A0E069
:10137000B0E0481759076A077B0768F01995C882DB
:10138000D982EA82FB828E8180FF05C0DE01E12FD7
:101390001D92EA95E9F72996F3E0CB33DF07A1F632
:1013A000D7CFEBE3F3E01382128288EE93E0A0E064
:1013B000B0E084839583A683B78386E292E091832D
:1013C000808385EC90E09587848784EC90E0978714
:1013D000868780EC90E0918B808B81EC90E0938B02
:1013E000828B82EC90E0958B848B86EC90E0978BDF
:1013F000868B118E128E138E148EE8EDF3E016821A
:101400001782108611861286138614861586168614
:101410001786108A118A128A138A148A158AE0E2C2
:10142000F4E08FEF808312821182148613868FEF8F
:101430009FEFDC0187839087A187B2870895DB0146
:101440008F939F932DD0BF91AF91A29F800D911D3F
:10145000A39F900DB29F900D11240895A1E21A2E22
:10146000AA1BBB1BFD010DC0AA1FBB1FEE1FFF1F48
:10147000A217B307E407F50720F0A21BB30BE40B98
:10148000F50B661F771F881F991F1A9469F76095DF
:101490007095809590959B01AC01BD01CF01089599
:1014A00009D0A59F900DB49F900DA49F800D911D14
:1014B00011240895A29FB001B39FC001A39F700D96
:1014C000811D1124911DB29F700D811D1124911D4C
:1014D000089597FB072E16F4009406D077FD08D0E8
:1014E00011D007FC05D03EF4909581959F4F08954B
:1014F000709561957F4F0895DDDFB7FF0895821BDA
:10150000930B0895AA1BBB1B51E107C0AA1FBB1F69
:10151000A617B70710F0A61BB70B881F991F5A957F
:10152000A9F780959095BC01CD010895EE0FFF1F9E
:10153000881F8BBF0790F691E02D199481E090E011
:08154000F89400C0F894FFCFFD
:1015480000000000C502C502C502850281027E02B4
:10155800000000003C02F901F70185028102A400A5
:101568004A03000000001301F005AB005F01DC0036
:10157800BA00CE0068656C6C6F20776F726C64007F
:1015880068656C6C6F2061646F6D00564D445056F1
:0E1598005F317C315F564D4450560D0A000005
:00000001FF
