:1000000072C000009EC000009CC000009AC00000AA
:1000100098C0000096C0000094C0000092C000008C
:1000200090C000008EC000008CC000008AC000009C
:1000300088C0000086C0000084C0000082C00000AC
:1000400080C000007EC000007CC000007AC00000BC
:1000500078C0000076C0000074C0000059C20000E3
:1000600070C000001FC20000F4C100006AC00000A0
:1000700068C0000066C0000064C0000062C00000EC
:1000800060C000005EC000005CC000005AC00000FC
:1000900058C0000056C0000054C0000052C000000C
:1000A00050C000004EC000004CC000004AC000001C
:1000B00048C0000046C0000044C0000042C000002C
:1000C00040C000003EC000003CC000003AC000003C
:1000D00038C0000036C0000034C0000032C000004C
:1000E00030C00000F20311241FBECFEFD1E2DEBF0B
:1000F000CDBF00E00CBF12E0A0E0B2E0EAE5F8E01E
:1001000000E00BBF02C007900D92AC32B107D9F7E7
:1001100023E0ACE2B2E001C01D92A235B207E1F7E4
:1001200010E0C3E7D0E000E005C021970109802F6F
:10013000FE0185D3C237D10780E00807B1F732D27C
:100140008AC35ECFCF92DF92EF92FF920F931F93FD
:10015000CF93DF936C017A018B01C0E0D0E0CE1524
:10016000DF0581F0D8016D918D01D601ED91FC91F3
:100170000190F081E02DC6011995892B11F021968F
:10018000EECF7E01C701DF91CF911F910F91FF90BC
:10019000EF90DF90CF900895089580E090E008956B
:1001A000FC01538D448D252F30E0842F90E0821B7D
:1001B000930B541710F0CF96089501970895FC0102
:1001C000918D828D981761F0828DDF01A80FB11D8E
:1001D0005D968C91928D9F5F9F73928F90E00895B2
:1001E0008FEF9FEF0895FC01918D828D981731F06C
:1001F000828DE80FF11D858D90E008958FEF9FEFC0
:100200000895FC01918D228D892F90E0805C9F4F95
:10021000821B91098F739927089585EB92E0F1DF96
:1002200021E0892B09F420E0822F0895FC01848DC0
:10023000DF01A80FB11DA35ABF4F2C91848D90E010
:1002400001968F739927848FA689B7892C93A089EB
:10025000B1898C91837080648C93938D848D981375
:1002600006C00288F389E02D80818F7D8083089508
:10027000EF92FF920F931F93CF93DF93EC0181E0F6
:10028000888F9B8D8C8D981305C0E889F9898081B2
:1002900085FD25C0F62E0B8D10E00F5F1F4F0F73ED
:1002A0001127E02E8C8DE8120BC00FB607FCFACF99
:1002B000E889F989808185FFF5CFCE01B7DFF2CFDC
:1002C0008B8DFE01E80FF11DE35AFF4FF0829FB7BF
:1002D000F8940B8FEA89FB89808180620AC09FB7FE
:1002E000F894EE89FF896083E889F98980818370B9
:1002F000806480839FBF81E090E0DF91CF911F9168
:100300000F91FF90EF900895CF93DF93EC01888DCC
:100310008823C1F0EA89FB89808185FD05C0A88911
:10032000B9898C9186FD0EC00FB607FCF5CF808190
:1003300085FFF2CFA889B9898C9185FFEDCFCE01D9
:1003400075DFE8CFDF91CF91089580E090E0892BB1
:1003500019F063DF811125C080E090E0892B41F026
:1003600080E090E0892B21F00E94000081111CC0E8
:1003700080E090E0892B41F080E090E0892B21F033
:100380000E940000811113C080E090E0892BA1F051
:1003900080E090E0892B81F00E94000081110AC06A
:1003A00008950E940000D8CF0E940000E1CF0E9473
:1003B0000000EACF0C94000008953FB7F8948091B4
:1003C0002D0290912E02A0912F02B091300226B5FD
:1003D000A89B05C02F3F19F00196A11DB11D3FBF7D
:1003E000BA2FA92F982F8827820F911DA11DB11D0B
:1003F000BC01CD0142E0660F771F881F991F4A9507
:10040000D1F70895CF93DF93009771F0FC0101902D
:100410000020E9F73197AF01481B590BBC0185EB70
:1004200092E090DEEC0102C0C0E0D0E042E050E09B
:1004300062E172E085EB92E085DE8C0F9D1FDF911B
:10044000CF91089585E192E0DDCF80E292E0DACFAE
:10045000FED11F920F920FB60F9211240BB60F927E
:100460002F933F934F935F936F937F938F939F93BC
:10047000AF93BF93EF93FF9385EB92E0D7DEFF91AD
:10048000EF91BF91AF919F918F917F916F915F910C
:100490004F913F912F910F900BBE0F900FBE0F9079
:1004A0001F9018951F920F920FB60F9211240BB642
:1004B0000F922F938F939F93EF93FF93E091C50239
:1004C000F091C6028081E091CB02F091CC0282FDD6
:1004D00012C090818091CE028F5F8F732091CF02E6
:1004E000821751F0E091CE02F0E0EB54FD4F958F72
:1004F0008093CE0201C08081FF91EF919F918F91F7
:100500002F910F900BBE0F900FBE0F901F9018955C
:100510001F920F920FB60F9211242F933F938F9338
:100520009F93AF93BF938091310290913202A0913B
:100530003302B091340230912C0223E0230F2D3787
:1005400020F40196A11DB11D05C026E8230F0296D7
:10055000A11DB11D20932C02809331029093320291
:10056000A0933302B093340280912D0290912E0219
:10057000A0912F02B09130020196A11DB11D809370
:100580002D0290932E02A0932F02B0933002BF91C0
:10059000AF919F918F913F912F910F900FBE0F9030
:1005A0001F901895789484B5826084BD84B581606D
:1005B00084BD85B5826085BD85B5816085BD80912E
:1005C0006E00816080936E001092810080918100A6
:1005D000826080938100809181008160809381009E
:1005E000809180008160809380008091B100846060
:1005F0008093B1008091B00081608093B0008091C1
:10060000910082608093910080919100816080933D
:100610009100809190008160809390008091A10072
:1006200082608093A1008091A10081608093A100ED
:100630008091A00081608093A00080912101826060
:10064000809321018091210181608093210180911B
:10065000200181608093200180917A0084608093E2
:100660007A0080917A00826080937A0080917A008B
:10067000816080937A0080917A00806880937A000C
:100680001092C1009ADE4B015C0184EFC82EDD247C
:10069000D394E12CF12C91DEDC01CB01881999096E
:1006A000AA09BB09883E9340A105B105A0F321E04A
:1006B000C21AD108E108F10888EE880E83E0981E7E
:1006C000A11CB11CC114D104E104F10421F7E09193
:1006D000C502F091C60282E08083E091C102F091F0
:1006E000C2021082E091C302F091C4028FEC8083B9
:1006F0001092CD02E091C902F091CA0286E0808397
:10070000E091C702F091C802808180618083E0910E
:10071000C702F091C802808188608083E091C7029F
:10072000F091C802808180688083E091C702F091D7
:10073000C80280818F7D808380E8E5E3F2E0DF01FD
:100740001D928A95E9F786819781892B11F0389659
:10075000FACF82E292E09783868388EE93E09583D6
:100760008483E5E3F2E086819781892B11F0389646
:10077000FACF85E292E09783868384EF91E09583B8
:1007800084838FB7F894C0903102D0903202E09009
:100790003302F09034028FBFC5E3D2E0EE81FF81D7
:1007A000309711F4D2DDEDCF88819981AA81BB8188
:1007B000B701A601481B590B6A0B7B0B8C819D81ED
:1007C000A0E0B0E0481759076A077B0728F01995A1
:1007D000C882D982EA82FB822896B2E0C53BDB0759
:1007E000E9F6E0CFE5EBF2E01382128288EE93E0C7
:1007F000A0E0B0E084839583A683B78384E092E091
:100800009183808385EC90E09587848784EC90E0E9
:100810009787868780EC90E0918B808B81EC90E0CD
:10082000938B828B82EC90E0958B848B86EC90E0AE
:10083000978B868B118E128E138E148E0895EE0F69
:10084000FF1F881F8BBF0790F691E02D199481E060
:0A08500090E0F89400C0F894FFCF88
:10085A00000000003801A200D00084010101DF007D
:10086A00F3000D0A0068656C6C6F2061646F6D009F
:0C087A0068656C6C6F20776F726C640016
:00000001FF
