:1000000072C00000A1C000009FC000009DC00000A1
:100010009BC0000099C0000097C0000095C0000080
:1000200093C0000091C000008FC000008DC0000090
:100030008BC0000089C0000087C0000085C00000A0
:1000400083C0000081C000007FC000007DC00000B0
:100050007BC0000079C0000077C00000E6C500004A
:1000600073C0000037C300000CC300006DC0000067
:100070006BC0000069C0000067C0000065C00000E0
:1000800063C0000061C000005FC000005DC00000F0
:100090005BC0000059C0000057C0000055C0000000
:1000A00053C0000051C000004FC000004DC0000010
:1000B0004BC0000049C0000047C0000045C0000020
:1000C00043C0000041C000003FC000003DC0000030
:1000D0003BC0000039C0000037C0000035C0000040
:1000E00033C00000360A11241FBECFEFD1E2DEBFBD
:1000F000CDBF00E00CBF12E0A0E0B2E0EAE9FCE115
:1001000000E00BBF02C007900D92A435B107D9F7EC
:1001100023E0A4E5B2E001C01D92A63EB207E1F7DC
:1001200010E0C3E7D0E000E006C021970109802F6E
:10013000FE010E946A0BC237D10780E00807A9F7C9
:100140000E94A2080C944B0E5BCF80E991E00895C9
:10015000089580E090E00895FC01538D448D252F93
:1001600030E0842F90E0821B930B541710F0CF9651
:10017000089501970895FC01918D828D981761F083
:10018000828DDF01A80FB11D5D968C91928D9F5FCE
:100190009F73928F90E008958FEF9FEF0895FC0179
:1001A000918D828D981731F0828DE80FF11D858D2C
:1001B00090E008958FEF9FEF0895FC01918D228DBF
:1001C000892F90E0805C9F4F821B91098F73992744
:1001D000089582E393E0F1DF21E0892B09F420E028
:1001E000822F0895FC01848DDF01A80FB11DA35A51
:1001F000BF4F2C91848D90E001968F739927848F47
:10020000A689B7892C93A089B1898C918370806469
:100210008C93938D848D981306C00288F389E02D0A
:1002200080818F7D80830895EF92FF920F931F93BB
:10023000CF93DF93EC0181E0888F9B8D8C8D981399
:1002400005C0E889F989808185FD25C0F62E0B8DD2
:1002500010E00F5F1F4F0F731127E02E8C8DE812F7
:100260000BC00FB607FCFACFE889F989808185FFBA
:10027000F5CFCE01B7DFF2CF8B8DFE01E80FF11D78
:10028000E35AFF4FF0829FB7F8940B8FEA89FB89FE
:10029000808180620AC09FB7F894EE89FF896083ED
:1002A000E889F98980818370806480839FBF81E0C1
:1002B00090E0DF91CF911F910F91FF90EF90089503
:1002C000CF93DF93EC01888D8823C1F0EA89FB8905
:1002D000808185FD05C0A889B9898C9186FD0EC0F5
:1002E0000FB607FCF5CF808185FFF2CFA889B989C9
:1002F0008C9185FFEDCFCE0175DFE8CFDF91CF91F7
:10030000089580E090E0892B19F063DF811125C00A
:1003100080E090E0892B41F080E090E0892B21F093
:100320000E94000081111CC080E090E0892B41F008
:1003300080E090E0892B21F00E940000811113C021
:1003400080E090E0892BA1F080E090E0892B81F0A3
:100350000E94000081110AC008950E940000D8CFB9
:100360000E940000E1CF0E940000EACF0C94000040
:1003700008950F931F93CF93DF93209155022F5F22
:10038000322F37703093550220FF02C020E801C0A1
:1003900020E031FD2064347009F02062205FFC0110
:1003A000EC01239600E011E06485662331F070E0F3
:1003B000C8010E943D0B6F5F01C060E06187322F72
:1003C000369F030E30E0311D1124311102C0168218
:1003D00002C031503683662311F061506187319637
:1003E000CE17DF0709F7DF91CF911F910F91089585
:1003F000229A08950F931F93CF93DF93CDB7DEB763
:1004000062970FB6F894DEBF0FBECDBF8C01F90125
:10041000DC011C968C917A8369835C834B835E83B9
:100420004D8390819D8791819E8792819F878130A6
:1004300021F4CE0101969DDF06C01C861B861A861C
:10044000198618861F8283E0888B1A8A198AD80138
:10045000ED91FC910484F585E02DBE016F5F7F4F27
:10046000C801199562960FB6F894DEBF0FBECDBFD6
:10047000DF91CF911F910F9108950F931F93CF9309
:10048000DF93CDB7DEB762970FB6F894DEBF0FBE2D
:10049000CDBF8C01F901DC011C968C917A836983B4
:1004A0005C834B835E834D8390819D8791819E8782
:1004B00092819F87813021F4CE0101965ADF06C0D8
:1004C0001C861B861A86198618861F82188A1A8A25
:1004D000198AD801ED91FC910484F585E02DBE01C7
:1004E0006F5F7F4FC801199562960FB6F894DEBF13
:1004F0000FBECDBFDF91CF911F910F91089580E086
:1005000090E00895FC01858596850895CF93DF934B
:1005100000D000D0CDB7DEB7AB011C821D821E8299
:10052000DC01ED91FC910190F081E02D19821A829D
:100530001B829E012F5F3F4FBE016C5F7F4F19955D
:1005400026960FB6F894DEBF0FBECDBFDF91CF91D8
:100550000895CF92DF92EF92FF92C0900202D09066
:1005600003028FEFC81683E0D80611F48EE126C08F
:100570000D2C000CEE08FF08C701B6010E94CF0A3F
:1005800024E333E749E153E40E94C90A87FF03C02B
:100590001092770215C0A701960129593109410926
:1005A0005109AEE0B0E0BAD726E633E040E050E0D3
:1005B00099D7DA01C9010196A11DB11D8093770277
:1005C0009091760280917702890F80937602EED423
:1005D0008091CF03FF90EF90DF90CF90BEC3CF9379
:1005E000DF9380910002863308F0865390917B0060
:1005F000282F2870977F922B90937B0020910602E2
:1006000090E4299F900111248770822B80937C00B5
:1006100080917A00806480937A0080917A0086FDD0
:10062000FCCFC091780080917900D0E0D82BD09396
:100630000302C093020224EE3CE0DE010E94500B54
:100640002FEF33E040E050E04DD720930402309389
:1006500005023F932F93DF93CF931F921F928BE35B
:1006600092E09F938F9338D58DB79EB708960FB6BB
:10067000F8949EBF0FBE8DBFDF91CF9108950E9469
:10068000720B1F920F920FB60F9211240BB60F929E
:100690002F933F934F935F936F937F938F939F938A
:1006A000AF93BF93EF93FF9382E393E09BDDFF91C2
:1006B000EF91BF91AF919F918F917F916F915F91DA
:1006C0004F913F912F910F900BBE0F900FBE0F9047
:1006D0001F9018951F920F920FB60F9211240BB610
:1006E0000F922F938F939F93EF93FF93E091420389
:1006F000F09143038081E0914803F091490382FD2A
:1007000012C0908180914B038F5F8F7320914C03B7
:10071000821751F0E0914B03F0E0EE5CFC4F958FB7
:1007200080934B0301C08081FF91EF919F918F9146
:100730002F910F900BBE0F900FBE0F901F9018952A
:100740003FB7F8948091570290915802A0915902B6
:10075000B0915A0226B5A89B05C02F3F19F001960B
:10076000A11DB11D3FBFBA2FA92F982F8827820F37
:10077000911DA11DB11DBC01CD0142E0660F771F87
:10078000881F991F4A95D1F708954F925F926F92F3
:100790007F928F92AF92BF92CF92DF92EF920F93A0
:1007A0001F93CF93DF933C01EB01CADFF301278551
:1007B0003089621B730B6A307105B8F3F894E881D5
:1007C000F98175B1746065B16B7F65B9CA848F8139
:1007D0002C2D281B822F2F83BF844A805B801D8590
:1007E0000C85DE841F5F0F5FD3949E813885A984BA
:1007F000EB844181D20120E0C32F522F322F31816F
:10080000442788943111380F08F43FEF819588947C
:1008100010FD430F4795889411FD430F4795889429
:1008200012FD430F4795889413FD430F4795889415
:1008300014FD430F4795889415FD430F4795889401
:1008400016FD430F4795889417FD430F47958894ED
:10085000232F1111242F8C0D422F002C75B900C0AD
:1008600047FF65B930812227889400C000C0002C62
:1008700065B93111390F00C0002C75B900C046FFB1
:1008800065B908F43FEF9195889400C000C0002C32
:1008900065B900FD230F00C0002C75B900C045FFED
:1008A00065B92795889401FD230F00C000C0002C76
:1008B00065B92795889400C0002C75B900C044FF25
:1008C00065B902FD230F2795889400C000C0002C55
:1008D00065B903FD230F00C0002C75B900C043FFAC
:1008E00065B92795889404FD230F00C000C0002C33
:1008F00065B92795889400C0002C75B900C042FFE7
:1009000065B905FD230F2795889400C000C0002C11
:1009100065B906FD230F00C0002C75B900C041FF6A
:1009200065B92795889407FD230F00C000C0002CEF
:1009300065B92795889400C0002C75B900C040FFA8
:1009400065B9432F0111422F9A0D00C000C0002C41
:1009500065B900C000C0002C75B900C047FF65B97B
:1009600032812227889400C000C0002C65B9311163
:100970003C0F00C0002C75B900C046FF65B908F4F3
:100980003FEFEB0DF11D00C000C0002C65B9D0FC9D
:10099000230F00C0002C75B900C045FF65B927952D
:1009A0008894D1FC230F00C000C0002C65B92795A6
:1009B000889400C0002C75B900C044FF65B9D2FC12
:1009C000230F2795889400C000C0002C65B9D3FC84
:1009D000230F00C0002C75B900C043FF65B92795EF
:1009E0008894D4FC230F00C000C0002C65B9279563
:1009F000889400C0002C75B900C042FF65B9D5FCD1
:100A0000230F2795889400C000C0002C65B9D6FC40
:100A1000230F00C0002C75B900C041FF65B92795B0
:100A20008894D7FC230F00C000C0002C65B927951F
:100A3000889400C0002C75B900C040FF65B9432FF1
:100A4000D110422FC19500C000C0002C65B9CE0D59
:100A500000C000C075B900C047FF65B931812227C9
:100A6000889400C000C0002C65B93111380F00C057
:100A7000002C75B900C046FF65B908F43FEF8195B9
:100A8000889400C000C0002C65B910FD230F00C081
:100A9000002C75B900C045FF65B92795889411FDF4
:100AA000230F00C000C0002C65B92795889400C0B2
:100AB000002C75B900C044FF65B912FD230F2795BE
:100AC000889400C000C0002C65B913FD230F00C03E
:100AD000002C75B900C043FF65B92795889414FDB3
:100AE000230F00C000C0002C65B92795889400C072
:100AF000002C75B900C042FF65B915FD230F27957D
:100B0000889400C000C0002C65B916FD230F00C0FA
:100B1000002C75B900C041FF65B92795889417FD71
:100B2000230F00C000C0002C65B92795889400C031
:100B3000002C75B900C040FF65B9432F1111422F39
:100B40008C0D00C000C0002C65B9119709F086CE4D
:100B500020EE31E0D201A4D5DC01CB01F4E0B69562
:100B6000A79597958795FA95D1F720E030E0B901E0
:100B7000EAE94E9E040C611D5E9E600D711D1124FC
:100B8000650D711D860F971FA11DB11D893E43E0A4
:100B90009407A105B10508F434C0885E9340A1090B
:100BA000B10942E0B695A795979587954A95D1F7F3
:100BB00047E0849F080E211D949F200D311D1124B4
:100BC000290F311D6091540270E0860F971F820F2C
:100BD000931F40919C0250919D0260919E027091E2
:100BE0009F02292F3327420F531F611D711D409310
:100BF0009C0250939D0260939E0270939F0280938B
:100C0000540278949DDDF301708B6787DF91CF915B
:100C10001F910F91EF90DF90CF90BF90AF908F908A
:100C20007F906F905F904F9008951F920F920FB634
:100C30000F9211242F933F938F939F93AF93BF9362
:100C400080919C0290919D02A0919E02B0919F0282
:100C50003091560223E0230F2D3720F40196A11D79
:100C6000B11D05C026E8230F0296A11DB11D2093DA
:100C7000560280939C0290939D02A0939E02B09393
:100C80009F028091570290915802A0915902B09111
:100C90005A020196A11DB11D8093570290935802EC
:100CA000A0935902B0935A02BF91AF919F918F9137
:100CB0003F912F910F900FBE0F901F901895CF92DC
:100CC000DF92EF92FF920F931F93CF93DF936C010C
:100CD0007A018B01C0E0D0E0CE15DF0581F0D801AC
:100CE0006D918D01D601ED91FC910190F081E02D87
:100CF000C6011995892B11F02196EECF7E01C7010F
:100D0000DF91CF911F910F91FF90EF90DF90CF90E7
:100D10000895E2EAF2E0278130858217930731F0E7
:100D2000399623E0E233F207B1F702C0309781F43D
:100D3000E2EAF2E027813085232B41F0399623E067
:100D4000E233F207B9F780E090E008959087878357
:100D5000768365831082CF0108953F924F925F9210
:100D60006F927F928F929F92AF92BF92CF92DF92BB
:100D7000EF92FF920F931F93CF93DF9300D0CDB7E5
:100D8000DEB7F82E8091D2039091D303A091D403C3
:100D9000B091D503892B8A2B8B2BE1F0D1DC00910C
:100DA000E2031091E3032091E4033091E503DC01B9
:100DB000CB01801B910BA20BB30B0091D2031091BE
:100DC000D3032091D4033091D50380179107A20754
:100DD000B307C0F2B5DC6093E2037093E303809342
:100DE000E4039093E503E091DA03F091DB0330979D
:100DF00059F04091D6035091D7036091D803709178
:100E0000D9038F2D1995F82E0091A0021091A102FF
:100E10004F2C512C612C712C0115110509F45DC06A
:100E2000D8011C96EC901C978091D0039091D1032F
:100E30008436910510F41C961C92D801ED91FC911A
:100E4000A280B38019821A821B82F11014C0F801AB
:100E500045855685628173819E012F5F3F4FC80192
:100E6000F5011995D8011C96EC921C9714960D91DA
:100E70001C911597D1CFF8013696CE0101966C01E1
:100E8000480199E0890E911C21912223F9F03280CA
:100E90003320E1F0822F90E0A0E0B0E09C01AD01B2
:100EA0002F5F3F4F4F4F5F4FC301B201D7D39B011D
:100EB000AC01832D90E0A0E0B0E0BC01CD016F5FFC
:100EC0007F4F8F4F9F4FCAD3D6018C93BFEFCB1A62
:100ED000DB0AE815F905C1F6BACF8091E0039091DD
:100EE000E1039C012F5F3F4F3093E1032093E00328
:100EF00049970CF446C08FB7F89400919C0210916A
:100F00009D0220919E0230919F028FBFE091E003ED
:100F1000F091E10388EE93E0E89FB001E99F700D46
:100F2000F89F700D1124072E000C880B990BC090B0
:100F3000DC03D090DD03E090DE03F090DF03A90135
:100F400098012C193D094E095F09F2D23093D10363
:100F50002093D0031092E1031092E0032FB7F8948E
:100F600080919C0290919D02A0919E02B0919F025F
:100F70002FBF8093DC039093DD03A093DE03B09337
:100F8000DF030F900F900F90DF91CF911F910F9182
:100F9000FF90EF90DF90CF90BF90AF909F908F9099
:100FA0007F906F905F904F903F9008950F931F93A5
:100FB000CF93E8E7F2E0BCE3B80F15E5A0E060EFFF
:100FC0007BEA0AEACFE0382F3F71330F330F330F3C
:100FD000232F219F020E20E0211D1124922F482F44
:100FE0004074282F207287FD20C041110AC02111B2
:100FF00003C0492F40950FC025E5290F40E09BEA2B
:1010000035C021110FC0309F030E30E0311D112477
:10101000472F431B9655442309F433C0292F942F9F
:1010200040E024C0292F209551C041110FC021114B
:101030000AC0309F030E30E0311D1124272F231BDF
:1010400095E5930F43C0492F40950DC0211106C06F
:1010500035E5390F472F491B932F05C02AEA290F81
:10106000412F491B922F20E09923A1F0392F369F61
:10107000030E30E0311D932F222361F0392F922F80
:1010800003C0992331F130E0292F269F020E20E082
:10109000211D932F442321F0469F040E40E0411D63
:1010A00011245C2F559F050E50E0511D1124392F3E
:1010B000350F3083250F2183450F42838B5F339695
:1010C0008B1381CFCF911F910F910895492F90E0FD
:1010D000D3CF20E0492FE4CF0F931F93CF93DF931B
:1010E000CDB7DEB7C054D1090FB6F894DEBF0FBE3E
:1010F000CDBFAE01465B5F4F6BE372E08E010F5FC9
:101100001F4FC801F3D2F80101900020E9F7319791
:10111000AF01401B510BB80182E393E0D0DD42E008
:1011200050E060E572E082E393E0C9DDC05CDF4F30
:101130000FB6F894DEBF0FBECDBFDF91CF911F91E8
:101140000F910895789484B5826084BD84B58160E0
:1011500084BD85B5826085BD85B5816085BD809182
:101160006E00816080936E001092810080918100FA
:1011700082608093810080918100816080938100F2
:10118000809180008160809380008091B1008460B4
:101190008093B1008091B00081608093B000809115
:1011A0009100826080939100809191008160809392
:1011B0009100809190008160809390008091A100C7
:1011C00082608093A1008091A10081608093A10042
:1011D0008091A00081608093A000809121018260B5
:1011E0008093210180912101816080932101809170
:1011F000200181608093200180917A008460809337
:101200007A0080917A00826080937A0080917A00DF
:10121000816080937A0080917A00806880937A0060
:101220001092C1008DDA4B015C0184EFC82EDD24E1
:10123000D394E12CF12C84DADC01CB0188199909D3
:10124000AA09BB09883E9340A105B105A0F321E09E
:10125000C21AD108E108F10888EE880E83E0981ED2
:10126000A11CB11CC114D104E104F10421F7E091E7
:101270004203F091430382E08083E0913E03F091CA
:101280003F031082E0914003F091410383E38083A8
:1012900010924A03E0914603F091470386E0808371
:1012A000E0914403F0914503808180618083E09167
:1012B0004403F0914503808188608083E09144037A
:1012C000F0914503808180688083E0914403F09130
:1012D000450380818F7D808380E9E2EAF2E0DF01CF
:1012E0001D928A95E9F71092060264E670E08FEE8F
:1012F00092E00FDD80916E02811145C01092600274
:1013000010925F028FEF8093630280936402809358
:10131000650280936602809367028093680281E091
:101320008093690210926B0210926A02109262021C
:10133000109261028091A0029091A102892B31F458
:101340008DE592E09093A1028093A002E0915B0270
:10135000F0915C02309721F08DE592E095838483D3
:101360008DE592E090935C0280935B0210926D0297
:1013700010926C028BE192E090935E0280935D028A
:1013800081E080936E02229A88E792E09093600257
:1013900080935F028CE090E090936B0280936A02EE
:1013A0008091D2039091D303A091D403B091D5033F
:1013B000843CE9E09E07A105B10520F484EC99E0A6
:1013C000A0E0B0E08093D2039093D303A093D40322
:1013D000B093D50381E0809377021092760280E08B
:1013E000E5DD8091CF03B9DC68E270E089EA92E044
:1013F00090DC19E08FB7F894C0909C02D0909D02C9
:10140000E0909E02F0909F028FBFC2EAD2E0EF818F
:10141000F885309719F40E948101ECCF89819A8177
:10142000AB81BC81B701A601481B590B6A0B7B0B32
:101430008D819E81A0E0B0E0481759076A077B07BD
:1014400078F0888180FF06C0DE01E12F1D92EA95C9
:10145000E9F706C081FF1995C982DA82EB82FC8226
:101460002996F3E0C233DF0791F6D5CFE2E3F3E04C
:101470001382128288EE93E0A0E0B0E0848395832B
:10148000A683B7838DE292E09183808385EC90E020
:101490009587848784EC90E09787868780EC90E03E
:1014A000918B808B81EC90E0938B828B82EC90E02F
:1014B000958B848B86EC90E0978B868B118E128EA9
:1014C000138E148EEFECF3E08FEF80831282118283
:1014D000148613868FEF9FEFDC0187839087A187A7
:1014E000B2870895052E97FB16F400940FD057FD90
:1014F00005D01ED007FC02D046F408C05095409598
:10150000309521953F4F4F4F5F4F089590958095AF
:10151000709561957F4F8F4F9F4F08952BD0A59F5A
:10152000900DB49F900DA49F800D911D11240895DE
:10153000A1E21A2EAA1BBB1BFD010DC0AA1FBB1FD7
:10154000EE1FFF1FA217B307E407F50720F0A21B49
:10155000B30BE40BF50B661F771F881F991F1A94B6
:1015600069F760957095809590959B01AC01BD01E0
:10157000CF010895A29FB001B39FC001A39F700D3A
:10158000811D1124911DB29F700D811D1124911D8B
:10159000089540D008F481E00895E89409C097FBCD
:1015A0003EF490958095709561957F4F8F4F9F4F3A
:1015B0009923A9F0F92F96E9BB279395F69587957E
:1015C00077956795B795F111F8CFFAF4BB0F11F441
:1015D00060FF1BC06F5F7F4F8F4F9F4F16C08823E8
:1015E00011F096E911C0772321F09EE8872F762F1E
:1015F00005C0662371F096E8862F70E060E02AF05F
:101600009A95660F771F881FDAF7880F969587954A
:1016100097F90895990F0008550FAA0BE0E8FEEF1F
:1016200016161706E807F907C0F012161306E407A6
:10163000F50798F0621B730B840B950B39F40A269F
:1016400061F0232B242B252B21F408950A2609F47D
:10165000A140A6958FEF811D811D0895DB018F9319
:101660009F935CDFBF91AF91A29F800D911DA39FBF
:10167000900DB29F900D1124089597FB072E16F43C
:10168000009406D077FD08D011D007FC05D03EF4B9
:10169000909581959F4F0895709561957F4F08951E
:1016A00069DFB7FF0895821B930B0895AA1BBB1B2C
:1016B00051E107C0AA1FBB1FA617B70710F0A61B52
:1016C000B70B881F991F5A95A9F780959095BC0173
:1016D000CD010895EE0FFF1F881F8BBF0790F69175
:1016E000E02D199481E090E0F894D5C20F931F93F8
:1016F000CF93DF93CDB7DEB72E970FB6F894DEBF4A
:101700000FBECDBF8C0186E08C831A8309838FEFD7
:101710009FE79E838D83CE01019610D0EF81F885DF
:10172000E00FF11F10822E960FB6F894DEBF0FBEA9
:10173000CDBFDF91CF911F910F9108952F923F92CE
:101740004F925F926F927F928F929F92AF92BF92D1
:10175000CF92DF92EF92FF920F931F93CF93DF937D
:10176000CDB7DEB72B970FB6F894DEBF0FBECDBF57
:101770006C017B018A01FC0117821682838181FF43
:10178000BFC1CE0101963C01F6019381F70193FDA3
:10179000859193FF81917F01882309F4ADC1853242
:1017A00039F493FD859193FF81917F01853221F476
:1017B000B60190E0D6D1E8CF912C212C312CFFE15D
:1017C000F315D8F08B3279F038F4803279F0833227
:1017D000A1F4232D20611DC08D3261F0803369F4A6
:1017E000232D216016C0832D8260382EE32DE46006
:1017F0003E2E2AC0F32DF8601DC037FC2DC020ED11
:10180000280F2A3040F08E32B9F436FC75C1232DF2
:101810002064322E19C036FE06C08AE0989E200D44
:101820001124922E11C0EAE02E9E200D1124222EAA
:10183000F32DF0623F2E08C08C3621F4832D806892
:10184000382E02C0883641F4F70193FD859193FF4D
:1018500081917F018111B3CF982F9F7D9554933053
:1018600028F40C5F1F4F9FE399830DC0833631F03E
:10187000833771F0833509F055C020C0F8018081AD
:1018800089830E5F1F4F88248394912C530112C0CB
:101890002801F2E04F0E511CF801A080B18036FE05
:1018A00003C0692D70E002C06FEF7FEFC5014ED11C
:1018B0004C018201F32DFF773F2E15C0280122E055
:1018C000420E511CF801A080B18036FE03C0692D84
:1018D00070E002C06FEF7FEFC5012DD14C01F32DF9
:1018E000F0683F2E820133FC19C0822D90E08816EB
:1018F0009906A0F4B60180E290E033D12A94F5CFA6
:10190000F50137FC859137FE81915F01B60190E0CA
:1019100028D121102A9421E0821A9108811491047F
:1019200079F7E1C0843611F0893639F5F80137FED0
:1019300007C060817181828193810C5F1F4F08C055
:1019400060817181072E000C880B990B0E5F1F4F71
:10195000F32DFF763F2E97FF09C0909580957095E7
:1019600061957F4F8F4F9F4FF0683F2E2AE030E008
:10197000A30133D1882E861844C0853731F4232D36
:101980002F7EB22E2AE030E025C0932D997FB92E0C
:101990008F36C1F018F4883579F0AEC0803719F071
:1019A000883721F0A9C0E92FE061BE2EB4FE0DC03A
:1019B000FB2DF460BF2E09C034FE0AC0292F26601B
:1019C000B22E06C028E030E005C020E130E002C0C1
:1019D00020E132E0F801B7FE07C0608171818281A9
:1019E00093810C5F1F4F06C06081718180E090E0A1
:1019F0000E5F1F4FA301F1D0882E8618FB2DFF77B5
:101A00003F2E36FE0DC0232D2E7FA22E891458F4B2
:101A100034FE0BC032FC09C0832D8E7EA82E05C07B
:101A2000B82CA32C03C0B82C01C0B92CA4FE0FC045
:101A3000FE01E80DF11D8081803321F49A2D997EFD
:101A4000A92E09C0A2FE06C0B394B39404C08A2D87
:101A5000867809F0B394A3FC10C0A0FE06C0B214AF
:101A600080F4280C922C9B180DC0B21458F4B601C7
:101A700080E290E076D0B394F8CFB21418F42B182B
:101A800002C0982C212CA4FE0FC0B60180E390E088
:101A900068D0A2FE16C0A1FC03C088E790E002C097
:101AA00088E590E0B6010CC08A2D867851F0A1FE41
:101AB00002C08BE201C080E2A7FC8DE2B60190E09B
:101AC00050D0891430F4B60180E390E04AD09A9463
:101AD000F8CF8A94F301E80DF11D8081B60190E002
:101AE00040D08110F6CF222009F44ECEB60180E21C
:101AF00090E037D02A94F7CFF6018681978102C013
:101B00008FEF9FEF2B960FB6F894DEBF0FBECDBFC1
:101B1000DF91CF911F910F91FF90EF90DF90CF90C9
:101B2000BF90AF909F908F907F906F905F904F90FD
:101B30003F902F900895FC01059061507040011076
:101B4000D8F7809590958E0F9F1F0895FC016150E6
:101B5000704001900110D8F7809590958E0F9F1FCF
:101B600008950F931F93CF93DF93FB01238121FDF2
:101B700003C08FEF9FEF2CC022FF16C04681578114
:101B8000248135814217530744F4A081B1819D011E
:101B90002F5F3F4F318320838C93268137812F5FC6
:101BA0003F4F3783268314C08B01EC01FB01008477
:101BB000F185E02D1995892BE1F6D80116968D91C6
:101BC0009C911797019617969C938E931697CE012A
:101BD000DF91CF911F910F910895FA01AA27283024
:101BE00051F1203181F1E8946F936E7F6E5F7F4FEA
:101BF0008F4F9F4FAF4FB1E03ED0B4E03CD0670F66
:101C0000781F891F9A1FA11D680F791F8A1F911DB8
:101C1000A11D6A0F711D811D911DA11D20D009F408
:101C200068943F912AE0269F11243019305D31934A
:101C3000DEF6CF010895462F4770405D4193B3E033
:101C40000FD0C9F7F6CF462F4F70405D4A3318F0DA
:101C5000495D31FD4052419302D0A9F7EACFB4E08B
:101C6000A6959795879577956795BA95C9F7009743
:101C70006105710508959B01AC010A2E06945795E4
:101C8000479537952795BA95C9F7620F731F841F3B
:0A1C9000951FA01D0895F894FFCFE2
:101C9A0036000000000001000000003F033F033F40
:101CAA0003860282027F02000000003D02FA01F868
:101CBA000186028202A500C5030000000014015F2C
:101CCA0006AC006001DD00BB00CF00706F742569AF
:101CDA003A207261772025692C206D5620256900EB
:041CEA000D0A0000DF
:020000023000CC
:10E000000D9489F10D94B2F10D94B2F10D94B2F129
:10E010000D94B2F10D94B2F10D94B2F10D94B2F1F0
:10E020000D94B2F10D94B2F10D94B2F10D94B2F1E0
:10E030000D94B2F10D94B2F10D94B2F10D94B2F1D0
:10E040000D94B2F10D94B2F10D94B2F10D94B2F1C0
:10E050000D94B2F10D94B2F10D94B2F10D94B2F1B0
:10E060000D94B2F10D94B2F10D94B2F10D94B2F1A0
:10E070000D94B2F10D94B2F10D94B2F10D94B2F190
:10E080000D94B2F10D94B2F10D94B2F10D94B2F180
:10E090000D94B2F10D94B2F10D94B2F10D94B2F170
:10E0A0000D94B2F10D94B2F10D94B2F10D94B2F160
:10E0B0000D94B2F10D94B2F10D94B2F10D94B2F150
:10E0C0000D94B2F10D94B2F10D94B2F10D94B2F140
:10E0D0000D94B2F10D94B2F10D94B2F10D94B2F130
:10E0E0000D94B2F141546D656761323536300041AF
:10E0F000726475696E6F206578706C6F72657220DE
:10E1000073746B3530305632206279204D4C530099
:10E11000426F6F746C6F616465723E004875683F52
:10E1200000436F6D70696C6564206F6E203D200048
:10E130004350552054797065202020203D20005FF9
:10E140005F4156525F415243485F5F3D2000415658
:10E1500052204C696243205665723D20004743437C
:10E160002056657273696F6E203D20004350552024
:10E1700049442020202020203D20004C6F7720663D
:10E18000757365202020203D20004869676820665F
:10E190007573652020203D200045787420667573D6
:10E1A00065202020203D20004C6F636B2066757336
:10E1B000652020203D20004D617220203720323024
:10E1C000313300312E362E3800342E332E350056A2
:10E1D00023202020414444522020206F7020636F70
:10E1E00064652020202020696E73747275637469E1
:10E1F0006F6E2061646472202020496E74657272B3
:10E20000757074006E6F20766563746F7200726A49
:10E210006D702020006A6D70200057686174207056
:10E220006F72743A00506F7274206E6F7420737541
:10E2300070706F72746564004D7573742062652030
:10E2400061206C6574746572002000577269747483
:10E25000696E672045450052656164696E672045B7
:10E26000450045452065727220636E743D00504F35
:10E27000525400303D5A65726F2061646472003FF1
:10E280003D43505520737461747300403D454550C3
:10E29000524F4D207465737400423D426C696E6B41
:10E2A000204C454400453D44756D70204545505215
:10E2B0004F4D00463D44756D7020464C415348001B
:10E2C000483D48656C70004C3D4C69737420492F83
:10E2D0004F20506F72747300513D51756974005234
:10E2E0003D44756D702052414D00563D73686F7707
:10E2F00020696E7465727275707420566563746FF0
:10E30000727300593D506F727420626C696E6B00BD
:10E310002A0011241FBECFEFD1E2DEBFCDBF01E046
:10E320000CBF12E0A0E0B2E0EEE1FDEF03E00BBFB6
:10E3300002C007900D92A030B107D9F712E0A0E01B
:10E34000B2E001C01D92AE30B107E1F70F9460F367
:10E350000D948DFE01E20EBF0FEF0DBF11241FBE05
:10E360000D9460F30D9400F020E030E040ED57E0B4
:10E3700005C0FA013197F1F72F5F3F4F2817390792
:10E38000C0F308959C01260F311DC901A0E0B0E043
:10E390002F5F3F4FABBFFC018791882361F08093D3
:10E3A000C6008091C00086FFFCCF8091C0008064D1
:10E3B0008093C000EACF08958DE08093C6008091DD
:10E3C000C00086FFFCCF8091C00080648093C000B5
:10E3D0008AE08093C6008091C00086FFFCCF8091C8
:10E3E000C00080648093C00008950F94C2F10F9420
:10E3F000DCF10895FC019081992359F09093C600B7
:10E400008091C00086FFFCCF8091C0008064809323
:10E41000C0003196992379F70895282F982F929567
:10E420009F70892F805D8A3308F0895F8093C600D2
:10E430008091C00086FFFCCF8091C00080648093F3
:10E44000C000822F8F70982F905D9A3308F0995FEB
:10E450009093C6008091C00086FFFCCF8091C000E1
:10E4600080648093C00008959C01FB01853691056E
:10E470001CF46330710594F0C90164E670E00F94F8
:10E480002EFE605D7F4F6093C6008091C00086FFC6
:10E49000FCCF8091C00080648093C0002B30310598
:10E4A00014F43297B4F0C90164E670E00F942EFEC4
:10E4B0006AE070E00F942EFE605D7F4F6093C600AF
:10E4C0008091C00086FFFCCF8091C0008064809363
:10E4D000C000C9016AE070E00F942EFEC0968093E0
:10E4E000C6008091C00086FFFCCF8091C000806490
:10E4F0008093C00008951F93182F8EE692EE60E07F
:10E500000F94C2F11093C6008091C00086FFFCCF2B
:10E510008091C00080648093C0000F94DCF11F9153
:10E5200008952F923F924F925F926F927F928F92B7
:10E530009F92AF92BF92CF92DF92EF92FF920F9392
:10E540001F93DF93CF93CDB7DEB762970FB6F894E2
:10E55000DEBF0FBECDBF382E622ECA01DB015C01CB
:10E560006D01772420E2222E2E010894411C511CBB
:10E570008BC081E0A81680E0B80681E0C80680E084
:10E58000D80628F0C601AA27BB270F940DF2BB2797
:10E59000AD2D9C2D8B2D0F940DF28A2D0F940DF225
:10E5A0002092C6008091C00086FFFCCF8091C00001
:10E5B00080648093C0009DE29093C6008091C0006B
:10E5C00086FFFCCF8091C00080648093C0002092C1
:10E5D000C6008091C00086FFFCCF8091C00080649F
:10E5E0008093C00019828601750188249924A1E0D6
:10E5F0003A1651F03A1620F0B2E03B1661F409C029
:10E600000BBFF701779007C0C7010F9477FE782EF4
:10E6100002C0F7017080872D0F940DF22092C60082
:10E620008091C00086FFFCCF8091C0008064809301
:10E63000C000872D8052F401EF70F0708F3520F408
:10E64000E40DF51D708204C0E40DF51D8EE280839B
:10E650000894E11CF11C011D111D0894811C911CE2
:10E6600090E18916910409F0C2CF80E190E0A0E02A
:10E67000B0E0A80EB91ECA1EDB1E198AC2010F9493
:10E68000FAF10F94DCF16A94662009F072CF629679
:10E690000FB6F894DEBF0FBECDBFCF91DF911F91B3
:10E6A0000F91FF90EF90DF90CF90BF90AF909F9031
:10E6B0008F907F906F905F904F903F902F90089534
:10E6C0002F923F924F925F926F927F928F929F9282
:10E6D000AF92BF92CF92DF92EF92FF920F931F9370
:10E6E000DF93CF93CDB7DEB7CD53D1400FB6F894BB
:10E6F000DEBF0FBECDBF01E20EBF0FEF0DBF94B75F
:10E70000F894A89514BE80916000886180936000A1
:10E7100010926000789493FF05C0E0910002F091A0
:10E7200001021995279A2F9A8091C00082608093E8
:10E73000C00080E18093C40088E18093C1000000A4
:10E74000EE24FF24870144E0A42EB12CCC24DD2448
:10E7500024C0C5010197F1F70894E11CF11C011DCB
:10E76000111D21E2E2162EE4F20620E0020720E06D
:10E77000120718F031E0C32ED12CC801B70127ECE5
:10E780003BE140E050E00F9441FE611571058105C9
:10E79000910519F485B1805885B98091C00087FD35
:10E7A00003C0C114D104A9F2A6014F5F5F4FC25E3E
:10E7B000DE4F59834883CE51D140C25EDE4F8881FF
:10E7C0009981CE51D140019711F00D9410FEC05D9A
:10E7D000DE4F19821882C053D14060E0C15DDE4F28
:10E7E0001882CF52D14088249924C35DDE4F19820C
:10E7F0001882CD52D140C05EDE4F188219821A8233
:10E800001B82C052D140CE5CDE4F188219821A8220
:10E810001B82C253D140EE24FF2487010BBFF701B6
:10E8200007911691C45CDE4F19830883CC53D14005
:10E830000D940BFEC25EDE4F28813981CE51D1404E
:10E840002130310509F52091C600C25EDE4F1982E4
:10E850001882CE51D14022C02F5F3F4F4F4F5F4FA4
:10E86000213082E138078AE7480780E0580780F0C6
:10E87000C45CDE4FE881F981CC53D140EF5FFF4F9C
:10E8800019F0EE27FF27099420E030E040E050E047
:10E890008091C00087FFE0CF2091C600C35DDE4FAE
:10E8A00048815981CD52D1404F5F5F4FC35DDE4FEC
:10E8B00059834883CD52D140213209F063C64A3092
:10E8C000510508F05FC60894811C911C53E0851621
:10E8D000910409F059C600E010E018C081E280936D
:10E8E000C6008091C00086FFFCCF8091C00080648C
:10E8F0008093C0002F5F3F4F2931310579F70F9486
:10E90000DCF10F5F1F4F0530110519F020E030E0FA
:10E91000E5CF10920A0210920B0210920C02109294
:10E920000D02109206021092070210920802109235
:10E930000902109202021092030210920402109235
:10E9400005028FEE90EE60E00F94F5F180E191EE1C
:10E9500060E00F94C2F18091C00087FFFCCF9091DE
:10E96000C600903608F09F759032B8F09093C600BC
:10E970008091C00086FFFCCF8091C00080648093AE
:10E98000C000A0E2A093C6008091C00086FFFCCF2B
:10E990008091C00080648093C000983409F4D7C18E
:10E9A0009934B8F4923409F459C1933458F490333B
:10E9B00019F1903308F4E3C59F33A1F1903409F0C5
:10E9C000DEC5BDC0953409F470C1963409F0D7C5D1
:10E9D00098C1923509F42BC2933538F49C3409F46C
:10E9E000F5C1913509F0CBC518C2963509F445C279
:10E9F000993509F0C4C567C483E792EE62E00F94CD
:10EA0000F5F110920602109207021092080210927D
:10EA1000090210920A0210920B0210920C0210923C
:10EA20000D0213C18FE792EE62E00F94F5F18FEEC5
:10EA300090EE60E00F94F5F181E291EE60E00F94CA
:10EA4000C2F187EB91EE60E00F94F5F180E391EE77
:10EA500060E00F94C2F184EE90EE60E00F94F5F167
:10EA60008FE391EE60E00F94C2F186E090E061E008
:10EA700070E00F9434F20F94DCF18DE591EE60E0DC
:10EA80000F94C2F189EC91EE60E00F94F5F18EE401
:10EA900091EE60E00F94C2F183EC91EE60E00F9490
:10EAA000F5F18CE691EE60E00F94C2F18EE10F94E7
:10EAB0000DF288E90F940DF281E00F940DF20F949E
:10EAC000DCF18BE791EE60E00F94C2F119E0E0E039
:10EAD000F0E010935700E4918E2F0F940DF20F94F5
:10EAE000DCF18AE891EE60E00F94C2F1E3E0F0E03F
:10EAF00010935700E4918E2F0F940DF20F94DCF1D8
:10EB000089E991EE60E00F94C2F1E2E0F0E0109349
:10EB10005700E4918E2F0F940DF20F94DCF188EAE8
:10EB200091EE60E00F94C2F1E1E0F0E01093570045
:10EB30001491812F0F940DF20F94DCF107CF8BE825
:10EB400092EE62E00F94F5F18BE492EE60E00F94A8
:10EB5000F5F10F94DCF100E010E019C0C8016F2D51
:10EB60000F947FFEFF2031F489E492EE60E00F9471
:10EB7000C2F10BC0F092C6008091C00086FFFCCFAE
:10EB80008091C00080648093C0000F5F1F4FC80158
:10EB900081519F41A0E0B0E0ABBFFC01F790BAE229
:10EBA000FB1621F0E2E000301E07C1F60F94DCF105
:10EBB0000F94DCF187E592EE60E00F94F5F10F948D
:10EBC000DCF1CC24DD2400E010E01EC0C8010F946D
:10EBD00077FEF82E882331F489E492EE60E00F94FA
:10EBE000C2F10BC08093C6008091C00086FFFCCFAD
:10EBF0008091C00080648093C000FE1419F00894D6
:10EC0000C11CD11C0F5F1F4FC80181519F41A0E063
:10EC1000B0E0ABBFFC01E790FAE2EF1621F022E092
:10EC20000030120799F60F94DCF10F94DCF182E6C4
:10EC300092EE60E00F94C2F1C60161E070E00F94C3
:10EC400034F20F94DCF10F94DCF110920202109276
:10EC50000302109204021092050278CE89E992EE26
:10EC600062E00F94F5F1279A2F9A16C02F9880E052
:10EC700090E0E0EDF7E03197F1F7019684369105E9
:10EC8000C1F72F9A80E090E0E0EDF7E03197F1F7DF
:10EC9000019684369105C1F78091C00087FFE6CFC9
:10ECA0008091C00087FFFCCF64C485EA92EE62E0E9
:10ECB0000F94F5F140910202509103026091040219
:10ECC0007091050281E020E10F9491F2809102029F
:10ECD00090910302A0910402B091050280509F4FD1
:10ECE000AF4FBF4F8093020290930302A0930402A0
:10ECF000B093050280509041A040B04008F426CE69
:10ED0000A4CF83EB92EE62E00F94F5F140910602FE
:10ED100050910702609108027091090280E020E1A1
:10ED20000F9491F28091060290910702A09108023F
:10ED3000B091090280509F4FAF4FBF4F80930602A2
:10ED400090930702A0930802B0930902FFCD80ECD4
:10ED500092EE62E00F94F5F183E792EE60E00F949B
:10ED6000F5F18FE792EE60E00F94F5F18BE892EE0B
:10ED700060E00F94F5F189E992EE60E00F94F5F10F
:10ED800085EA92EE60E00F94F5F183EB92EE60E09D
:10ED90000F94F5F180EC92EE60E00F94F5F187ECC2
:10EDA00092EE60E00F94F5F188ED92EE60E00F9442
:10EDB000F5F18FED92EE60E00F94F5F18AEE92EEB0
:10EDC00060E00F94F5F183E093EEBDCD87EC92EE19
:10EDD00062E00F94F5F181E40F947BF282E40F94EA
:10EDE0007BF283E40F947BF284E40F947BF285E45E
:10EDF0000F947BF286E40F947BF287E40F947BF20E
:10EE000088E40F947BF28AE40F947BF28BE40F94F6
:10EE10007BF28CE40F947BF299CD88ED92EE62E068
:10EE20000F94F5F1772473948824992409C48FED05
:10EE300092EE62E00F94F5F140910A0250910B02BC
:10EE400060910C0270910D0282E020E10F9491F22A
:10EE500080910A0290910B02A0910C02B0910D02D8
:10EE600080509F4FAF4FBF4F80930A0290930B0289
:10EE7000A0930C02B0930D0269CD8AEE92EE62E08F
:10EE80000F94F5F184EE90EE60E00F94F5F18FECC5
:10EE900091EE60E00F94F5F1662477244301CC5D98
:10EEA000DE4F19821882C452D140D401C301B695F5
:10EEB000A79597958795CA5DDE4F88839983AA8326
:10EEC000BB83C652D140CC5DDE4FA881B981C4520C
:10EED000D1401196CC5DDE4FB983A883C452D14096
:10EEE000CD0162E070E00F9434F2B0E2B093C6005E
:10EEF0008091C00086FFFCCF8091C0008064809329
:10EF0000C000EDE2E093C6008091C00086FFFCCF18
:10EF10008091C00080648093C000F0E2F093C6004E
:10EF20008091C00086FFFCCF8091C00080648093F8
:10EF3000C000CA5DDE4FE880F9800A811B81C6529D
:10EF4000D140BB27A12F902F8F2D0F940DF2CA5DBA
:10EF5000DE4F8881C652D1400F940DF2B0E2FB2EF5
:10EF6000F092C6008091C00086FFFCCF8091C00067
:10EF700080648093C0000DE30093C6008091C000C0
:10EF800086FFFCCF8091C00080648093C00010E2B7
:10EF90001093C6008091C00086FFFCCF8091C00016
:10EFA00080648093C0008BBEF3012791C65DDE4F65
:10EFB0002883CA52D140A22EBB24CC24DD2408943D
:10EFC000611C711C811C911C8BBEF3018791282E42
:10EFD0003324442455240894611C711C811C911C09
:10EFE0008BBEF3013791C55DDE4F3883CB52D140E4
:10EFF0000894611C711C811C911C8BBEF30147910C
:10F00000C45DDE4F4883CC52D140ADEFEA2EAFEF66
:10F01000FA2EAFEF0A2FAFEF1A2F6E0C7F1C801E57
:10F02000911E142D032DF22CEE24EA0CFB1C0C1D5A
:10F030001D1D0F940DF220E22093C6008091C000A8
:10F0400086FFFCCF8091C00080648093C000C65DC5
:10F05000DE4F8881CA52D1400F940DF230E23093D6
:10F06000C6008091C00086FFFCCF8091C000806404
:10F070008093C000C45DDE4F8881CC52D1400F9494
:10F080000DF240E24093C6008091C00086FFFCCFA5
:10F090008091C00080648093C000C55DDE4F888190
:10F0A000CB52D1400F940DF250E25093C6008091A4
:10F0B000C00086FFFCCF8091C00080648093C000B8
:10F0C0008FEFE8168FEFF80680E0080780E018075A
:10F0D00031F484E092EE60E00F94C2F1DFC0D80119
:10F0E000C7018070907CA070B0708050904CA040A0
:10F0F000B040D1F52FEF3FE340E050E0E222F322B1
:10F1000004231523CA5DDE4FA880B980CA80DB8046
:10F11000C652D140AE0CBF1CC01ED11EAA0CBB1CD7
:10F12000CC1CDD1C8EE092EE60E00F94C2F1BB2798
:10F13000A12F902F8F2D0F940DF28E2D0F940DF285
:10F1400030E23093C6008091C00086FFFCCF8091F2
:10F15000C00080648093C0004EE34093C60080915D
:10F16000C00086FFFCCF87C08EE09EEFA0E0B0E03D
:10F17000E822F9220A231B239CE0E91694E9F90608
:10F1800090E0090790E0190709F088C0C45DDE4FE0
:10F19000A881CC52D140EA2EFF2400E010E0102FCD
:10F1A0000F2DFE2CEE24C55DDE4FB881CB52D14031
:10F1B000EB0EF11C011D111DD601C501817090706F
:10F1C000A070B070DC0199278827E80EF91E0A1F8D
:10F1D0001B1F20EF30E040E050E0A222B322C42207
:10F1E000D52241E1AA0CBB1CCC1CDD1C4A95D1F7F1
:10F1F000EA0CFB1C0C1D1D1D81E090E0A0E0B0E0BE
:10F20000282239224A225B2235E1220C331C441C7D
:10F21000551C3A95D1F7E20CF31C041D151D57013E
:10F220006801AA0CBB1CCC1CDD1C85E192EE60E0E1
:10F230000F94C2F1C801AA27BB270F940DF2BB2778
:10F24000A12F902F8F2D0F940DF28E2D0F940DF274
:10F2500090E29093C6008091C00086FFFCCF809121
:10F26000C00080648093C000AEE3A093C60080918C
:10F27000C00086FFFCCF8091C00080648093C000F6
:10F28000C601AA27BB270F940DF2BB27AD2D9C2DDD
:10F290008B2D0F940DF28A2D0F940DF20F94DCF14B
:10F2A000CC5DDE4FE881F981C452D140F99709F471
:10F2B0004DCBF4E0EF2EF12C012D112D6E0C7F1CA7
:10F2C000801E911EF2CD83E093EE62E00F94F5F183
:10F2D0008AE192EE60E00F94C2F18091C00087FF56
:10F2E000FCCF1091C6001F751093C6008091C0001E
:10F2F00086FFFCCF8091C00080648093C0000F9493
:10F30000DCF1812F81548A3108F036C1163409F4BA
:10F3100095C0173490F4133409F44EC0143430F40B
:10F320001134F1F0123409F01DC130C0143409F465
:10F3300059C0153409F016C16BC01A3409F4C4C0A1
:10F340001B3438F4173409F48FC0183409F00AC19B
:10F35000A1C01B3409F4D2C01C3409F003C1E8C0B9
:10F360008FEF81B90DC082B1809582B980E090E0C5
:10F37000E0EDF7E03197F1F70196883C9105C1F790
:10F380008091C00087FFEFCF12B8EFC08FEF84B934
:10F390000DC085B1809585B980E090E0E0EDF7E0A3
:10F3A0003197F1F70196883C9105C1F78091C00033
:10F3B00087FFEFCF15B8D9C08FEF87B90DC088B1DF
:10F3C000809588B980E090E0E0EDF7E03197F1F7C3
:10F3D0000196883C9105C1F78091C00087FFEFCF6F
:10F3E00018B8C3C08FEF8AB90DC08BB180958BB9A7
:10F3F00080E090E0E0EDF7E03197F1F70196883C8E
:10F400009105C1F78091C00087FFEFCF1BB8ADC059
:10F410008FEF8DB90DC08EB180958EB980E090E0F0
:10F42000E0EDF7E03197F1F70196883C9105C1F7DF
:10F430008091C00087FFEFCF1EB897C08FEF80BBD1
:10F440000DC081B3809581BB80E090E0E0EDF7E0F6
:10F450003197F1F70196883C9105C1F78091C00082
:10F4600087FFEFCF11BA81C08FEF83BB0DC084B38C
:10F47000809584BB80E090E0E0EDF7E03197F1F714
:10F480000196883C9105C1F78091C00087FFEFCFBE
:10F4900014BA6BC08FEF809301010FC080910201FD
:10F4A00080958093020180E090E0E0EDF7E03197F5
:10F4B000F1F70196883C9105C1F78091C00087FF64
:10F4C000EDCF1092020151C08FEF809304010FC065
:10F4D0008091050180958093050180E090E0E0ED4A
:10F4E000F7E03197F1F70196883C9105C1F78091DB
:10F4F000C00087FFEDCF1092050137C08FEF8093DA
:10F5000007010FC08091080180958093080180E079
:10F5100090E0E0EDF7E03197F1F70196883C910536
:10F52000C1F78091C00087FFEDCF109208011DC088
:10F530008FEF80930A010FC080910B01809580931B
:10F540000B0180E090E0E0EDF7E03197F1F70196F4
:10F55000883C9105C1F78091C00087FFEDCF1092E4
:10F560000B0103C085E292EEEEC98091C00087FFD7
:10F57000FCCF8091C600EAC988E392EEE4C98CE131
:10F5800091EEE1C988249924933011F1943028F444
:10F59000913089F09230B8F408C0953061F195301F
:10F5A000F0F0963009F048C043C02B3109F042C951
:10F5B00091E06BE13FC96227C15DDE4F2883CF52E6
:10F5C000D14092E037C9B22FA0E0622793E032C960
:10F5D000822F90E0A82BB92B622794E02BC92E3004
:10F5E00009F039C3622795E0C05DDE4F19821882A9
:10F5F000C053D1401FC9E1E0F0E0EC0FFD1FC05D3A
:10F60000DE4F08811981C053D140E00FF11F2083E4
:10F610000F5F1F4FC05DDE4F19830883C053D14079
:10F6200062270A171B0709F005C9D80196E002C92D
:10F63000261709F010C303C0973009F0FBC87724E0
:10F640009981933109F412C19431C8F4963009F4C8
:10F65000D8C0973050F4923009F406C1933009F4C1
:10F660006DC0913009F059C253C0913109F477C08F
:10F67000923108F0BBC0903109F04FC2F5C098310B
:10F6800009F487C0993150F4953109F4EFC09531F0
:10F6900008F4C6C1963109F040C2C2C19A3109F4DA
:10F6A0006CC09A3108F491C09B3109F45BC09D3164
:10F6B00009F033C29D81903359F48F81882311F46E
:10F6C0009EE11CC0813011F091E018C098E916C08D
:10F6D000892F807591F0903539F4E0E0F0E089E011
:10F6E0008093570094910AC0983539F4E3E0F0E034
:10F6F00089E080935700949101C090E01A821B82A8
:10F700008D818C831D829E831F8227E030E009C299
:10F710001A8288E08B8381E48C8386E58D8382E581
:10F720008E8389E48F8383E5888780E589878FE5E9
:10F730008A8782E38B872BE030E0F3C18A818139AD
:10F7400041F0823941F0803911F48FE005C080E04A
:10F7500003C082E001C08AE01A828B8344C0772410
:10F76000739482C08D81882311F48EE12CC0813086
:10F7700011F081E028C088E926C01A82E1E0F0E0BB
:10F7800089E08093570084918B831C8224E030E0D1
:10F79000C8C18B81803589F48C81883039F4E2E0EE
:10F7A000F0E089E08093570084910DC0E0E0F0E044
:10F7B00089E080935700849106C0E3E0F0E089E09F
:10F7C0008093570084911A82DFCF8D81836C99E0FA
:10F7D000E1E0F0E0082E90935700E89507B600FCB2
:10F7E000FDCF1A821B8223E030E09BC180EC8A832C
:10F7F000CE5CDE4F188219821A821B82C253D1401E
:10F800008EC18A8190E0A0E0B0E0582F44273327D2
:10F8100022278B8190E0A0E0B0E0DC0199278827C7
:10F82000282B392B4A2B5B2B8D8190E0A0E0B0E098
:10F83000282B392B4A2B5B2B8C8190E0A0E0B0E089
:10F84000BA2FA92F982F8827282B392B4A2B5B2BCF
:10F85000220F331F441F551FC05EDE4F288339839C
:10F860004A835B83C052D1401A8259C13A81C95C34
:10F87000DE4F3883C753D140CA5CDE4F1882C6536F
:10F88000D1408B81C82EDD24CA5CDE4F488159816E
:10F89000C653D140C42AD52A933109F082C0CE5C28
:10F8A000DE4F88819981AA81BB81C253D1408050AB
:10F8B000904CA340B04030F583E0CE5CDE4FE88052
:10F8C000F9800A811B81C253D140F70100935B008C
:10F8D00080935700E89507B600FCFDCFCE5CDE4F65
:10F8E000088119812A813B81C253D14000501F4FAA
:10F8F0002F4F3F4FCE5CDE4F088319832A833B8313
:10F90000C253D140C05EDE4F488159816A817B81FC
:10F91000C052D140DE011B9631E08C9111962C91A2
:10F9200011971296C75CDE4F2883C953D140C85C3B
:10F93000DE4F1882C853D14090E0C85CDE4FE881AA
:10F94000F981C853D1408E2B9F2B0C01FA01609393
:10F950005B0030935700E89511244E5F5F4F6F4F67
:10F960007F4F0EEFE02E0FEFF02ECE0CDF1CC114F8
:10F97000D10499F685E0C05EDE4F088119812A81A5
:10F980003B81C052D140F80120935B008093570027
:10F99000E89507B600FCFDCF81E180935700E8951C
:10F9A00035C0C05EDE4F88819981AA81BB81C0527B
:10F9B000D140B695A795979587957C018601ABE0D8
:10F9C000AA2EB12CAC0EBD1E0BC0D5016D915D01F0
:10F9D000C7010F947FFE0894E11CF11C01501040F8
:10F9E0000115110591F7A60160E070E0440F551F65
:10F9F000661F771FC05EDE4FE880F9800A811B8199
:10FA0000C052D1404E0D5F1D601F711F1A82C05E33
:10FA1000DE4F488359836A837B83C052D1407FC0C5
:10FA2000FA80C55CDE4FF882CB53D140C65CDE4F16
:10FA30001882CA53D1408B81C82EDD24C65CDE4FAC
:10FA400008811981CA53D140C02AD12A1A828981DA
:10FA5000BE016D5F7F4F843121F59601C05EDE4FA0
:10FA6000E880F9800A811B81C052D1400BBFF701A9
:10FA700087919691DB018C9311969C936E5F7F4FDB
:10FA8000D801C7010296A11DB11DC05EDE4F88835B
:10FA90009983AA83BB83C052D14022503040F1F6F3
:10FAA00036C0C05EDE4F288139814A815B81C052F9
:10FAB000D1400894C108D108760100E010E0089414
:10FAC000C11CD11C0894E11CF11C011D111DE20E8A
:10FAD000F31E041F151F21BDBB27A52F942F832FB5
:10FAE00082BD2F5F3F4F4F4F5F4FF89A80B5DB01CC
:10FAF0008D93BD012E153F054007510761F7C05E8C
:10FB0000DE4F288339834A835B83C052D1409601FC
:10FB10002D5F3F4FFB01108204C080EC8A8322E0FE
:10FB200030E08BE18093C6008091C00086FFFCCF5F
:10FB30008091C00080648093C000C15DDE4FF88179
:10FB4000CF52D140F093C6008091C00086FFFCCF19
:10FB50008091C00080648093C000432F3093C60022
:10FB60008091C00086FFFCCF8091C00080648093AC
:10FB7000C000922F2093C6008091C00086FFFCCF6A
:10FB80008091C00080648093C0008EE08093C600A6
:10FB90008091C00086FFFCCF8091C000806480937C
:10FBA000C00065E1C15DDE4FE880CF52D1406E25D7
:10FBB00069276427FE01319610C090819093C6009A
:10FBC0008091C00086FFFCCF31968091C000806498
:10FBD0008093C0006927215030402115310569F715
:10FBE0006093C6008091C00086FFFCCF8091C0006A
:10FBF00080648093C00085B1805885B9772081F4F6
:10FC0000C15DDE4F0881CF52D1400F5FC15DDE4F35
:10FC10000883CF52D14090E0A0E0B0E00D941AF4F8
:10FC200027982F9880E090E020ED37E0F901319798
:10FC3000F1F7019684369105C9F700008091C00064
:10FC40008D7F8093C00081E180935700E895EE2777
:10FC5000FF270994FFCF90E00D941AF497FB092E2B
:10FC600007260AD077FD04D02ED006D000201AF443
:10FC7000709561957F4F0895F6F7909581959F4F08
:10FC80000895A1E21A2EAA1BBB1BFD010DC0AA1FDD
:10FC9000BB1FEE1FFF1FA217B307E407F50720F0F5
:10FCA000A21BB30BE40BF50B661F771F881F991F70
:10FCB0001A9469F760957095809590959B01AC01B9
:10FCC000BD01CF010895AA1BBB1B51E107C0AA1FAC
:10FCD000BB1FA617B70710F0A61BB70B881F991FED
:10FCE0005A95A9F780959095BC01CD010895F99991
:10FCF000FECF92BD81BDF89A992780B50895262F31
:10FD0000F999FECF1FBA92BD81BD20BD0FB6F89400
:0EFD1000FA9AF99A0FBE01960895F894FFCF63
:040000033000E000E9
:00000001FF