:1000000047C1000076C1000074C1000072C1000049
:1000100070C100006EC100006CC100006AC1000028
:1000200068C1000066C1000064C1000062C1000038
:1000300060C100005EC100005CC100005AC1000048
:1000400058C1000056C1000054C1000052C1000058
:1000500050C100004EC100004CC100003CC7000070
:1000600048C100000FC40000E4C3000042C100000A
:1000700040C100003EC100003CC100003AC1000088
:1000800038C1000036C1000034C1000032C1000098
:1000900030C100002EC100002CC100002AC10000A8
:1000A00028C1000026C1000024C1000022C10000B8
:1000B00020C100001EC100001CC100001AC10000C8
:1000C00018C1000016C1000014C1000012C10000D8
:1000D00010C100000EC100000CC100000AC10000E8
:1000E00008C10000A704AA0499049D04A104E10426
:1000F000AE04B204B804BC04C004C604CA04CE04EE
:10010000E104D404D804DC0400000A0B02090C0D3D
:100110000E080703040100000000000000000000BA
:1001200000000000000000000000000000000000CF
:10013000000000001211100000000000000000008C
:1001400000000000000000000000000000007E3001
:100150006D79335B5F707F7B771F0D3D4F470000EC
:10016000000000000000000000000000000000008F
:1001700000000000000000000000800180007E30D0
:100180006D79335B5F707F7B0000000000000077BB
:100190001F0D3D4F4700370000000E0000006700B4
:1001A00000000000000000000000000000080077D0
:1001B0001F0D3D4F4700370000000E00151D670062
:1001C000000000000000000000000000000000002F
:1001D0002200250028002B002E00310034000201EF
:1001E0000000050108010B01000021002400270088
:1001F0002A002D0030003300010100000401070136
:100200000A0105050505070508080808020202029B
:100210000A0A0808040404040101010101010101A2
:100220000303030303030303040707070C0C0C0C6D
:100230000C0C0C0C02020202060606060606060656
:100240000B0B0B0B0B0B0B0B0102102020080810E3
:100250002040102040800201020108040201010236
:10026000040810204080804020100804020180040F
:10027000020180402010080402010804020101026A
:1002800004081020408001020408102040806C0CFB
:1002900011241FBECFEFD1E2DEBFCDBF00E00CBF07
:1002A00012E0A0E0B2E0E4E1F2E200E00BBF02C045
:1002B00007900D92A435B107D9F724E0A4E5B2E088
:1002C00001C01D92AE33B207E1F711E0C8E4D1E0FE
:1002D00000E006C021970109802FFE010E940D0E4B
:1002E000C734D10780E00807A9F70E947A0A0C9466
:1002F000081186CE80E991E00895089580E090E0AD
:100300000895FC01538D448D252F30E0842F90E01B
:10031000821B930B541710F0CF9608950197089500
:10032000FC01918D828D981761F0828DDF01A80FFD
:10033000B11D5D968C91928D9F5F9F73928F90E01F
:1003400008958FEF9FEF0895FC01918D828D98178E
:1003500031F0828DE80FF11D858D90E008958FEFCB
:100360009FEF0895FC01918D228D892F90E0805C94
:100370009F4F821B91098F739927089582E393E021
:10038000F1DF21E0892B09F420E0822F0895FC01A0
:10039000848DDF01A80FB11DA35ABF4F2C91848D0E
:1003A00090E001968F739927848FA689B7892C9343
:1003B000A089B1898C91837080648C93938D848D96
:1003C000981306C00288F389E02D80818F7D808399
:1003D0000895EF92FF920F931F93CF93DF93EC0159
:1003E00081E0888F9B8D8C8D981305C0E889F989F1
:1003F000808185FD25C0F62E0B8D10E00F5F1F4F0D
:100400000F731127E02E8C8DE8120BC00FB607FC7E
:10041000FACFE889F989808185FFF5CFCE01B7DF72
:10042000F2CF8B8DFE01E80FF11DE35AFF4FF082F2
:100430009FB7F8940B8FEA89FB89808180620AC09C
:100440009FB7F894EE89FF896083E889F9898081F4
:100450008370806480839FBF81E090E0DF91CF91C3
:100460001F910F91FF90EF900895CF93DF93EC01D0
:10047000888D8823C1F0EA89FB89808185FD05C0CC
:10048000A889B9898C9186FD0EC00FB607FCF5CFFF
:10049000808185FFF2CFA889B9898C9185FFEDCF46
:1004A000CE0175DFE8CFDF91CF91089580E090E035
:1004B000892B19F063DF811125C080E090E0892B42
:1004C00041F080E090E0892B21F00E940000811132
:1004D0001CC080E090E0892B41F080E090E0892B07
:1004E00021F00E940000811113C080E090E0892B70
:1004F000A1F080E090E0892B81F00E940000811142
:100500000AC008950E940000D8CF0E940000E1CFE9
:100510000E940000EACF0C94000008950F931F93EF
:10052000CF93DF93209155022F5F322F3770309396
:10053000550220FF02C020E801C020E031FD206408
:10054000347009F02062205FFC01EC01239600E08A
:1005500011E06485662331F070E0C8010E94FA0D55
:100560006F5F01C060E06187322F369F030E30E07D
:10057000311D1124311102C0168202C03150368360
:10058000662311F0615061873196CE17DF0709F7B6
:10059000DF91CF911F910F910895389A08950F938D
:1005A0001F93CF93DF93CDB7DEB762970FB6F89462
:1005B000DEBF0FBECDBF8C01F901DC011C968C9112
:1005C0007A8369835C834B835E834D8390819D87AF
:1005D00091819E8792819F87813021F4CE0101967F
:1005E0009DDF06C01C861B861A86198618861F8208
:1005F00083E0888B1A8A198AD801ED91FC910484D2
:10060000F585E02DBE016F5F7F4FC8011995629699
:100610000FB6F894DEBF0FBECDBFDF91CF911F9113
:100620000F9108950F931F93CF93DF93CDB7DEB74C
:1006300062970FB6F894DEBF0FBECDBF8C01F901F3
:10064000DC011C968C917A8369835C834B835E8387
:100650004D8390819D8791819E8792819F87813074
:1006600021F4CE0101965ADF06C01C861B861A862D
:10067000198618861F82188A1A8A198AD801ED915C
:10068000FC910484F585E02DBE016F5F7F4FC801AA
:10069000199562960FB6F894DEBF0FBECDBFDF91FD
:1006A000CF911F910F91089580E090E00895FC0193
:1006B000858596850895CF93DF9300D000D0CDB780
:1006C000DEB7AB011C821D821E82DC01ED91FC9124
:1006D0000190F081E02D19821A821B829E012F5F0A
:1006E0003F4FBE016C5F7F4F199526960FB6F89469
:1006F000DEBF0FBECDBFDF91CF910895CF92DF92C5
:10070000EF92FF92C0900202D09003028FEFC816C2
:1007100083E0D80611F48EE128C00D2C000CEE0801
:10072000FF08C701B6010E948C0D24E333E749E1BD
:1007300053E40E94860D87FF03C01092770217C012
:10074000A70196012959310941095109AEE0B0E0EC
:100750000E944B0D26E633E040E050E00E942F0D52
:10076000DA01C9010196A11DB11D80937702909114
:10077000760280917702890F80937602EFD580917F
:10078000CF03FF90EF90DF90CF90BFC4CF93DF9364
:1007900080910002863308F0865390917B00282FC9
:1007A0002870977F922B90937B002091060290E413
:1007B000299F900111248770822B80937C00809167
:1007C0007A00806480937A0080917A0086FDFCCF65
:1007D000C091780080917900D0E0D82BD0930302AB
:1007E000C093020224EE3CE0DE010E94150E2FEFC2
:1007F00033E040E050E00E942F0D2093040230933C
:1008000005023F932F93DF93CF931F921F928BE3A9
:1008100092E09F938F9338D68DB79EB708960FB608
:10082000F8949EBF0FBE8DBFDF91CF9108950E94B7
:100830002F0E1F920F920FB60F9211240BB60F922C
:100840002F933F934F935F936F937F938F939F93D8
:10085000AF93BF93EF93FF9382E393E098DDFF9113
:10086000EF91BF91AF919F918F917F916F915F9128
:100870004F913F912F910F900BBE0F900FBE0F9095
:100880001F9018951F920F920FB60F9211240BB65E
:100890000F922F938F939F93EF93FF93E0914203D7
:1008A000F09143038081E0914803F091490382FD78
:1008B00012C0908180914B038F5F8F7320914C0306
:1008C000821751F0E0914B03F0E0EE5CFC4F958F06
:1008D00080934B0301C08081FF91EF919F918F9195
:1008E0002F910F900BBE0F900FBE0F901F90189579
:1008F000362F90E0FC01E85FFE4F4491FC01E85B7D
:10090000FD4F2491FC01EE5FFD4F9491992309F472
:100910006CC0442309F455C050E0FA013197E2312C
:10092000F10508F04EC08827EE58FF4F8F4F0C940A
:100930000D0E809180008F7707C0809180008F7DA1
:1009400003C080918000877F809380003AC084B587
:100950008F7702C084B58F7D84BD33C08091B00095
:100960008F7703C08091B0008F7D8093B00029C045
:10097000809190008F7707C0809190008F7D03C099
:1009800080919000877F809390001BC08091A00091
:100990008F7707C08091A0008F7D03C08091A00059
:1009A000877F8093A0000DC0809120018F7707C0C2
:1009B000809120018F7D03C080912001877F8093EB
:1009C0002001E92FF0E0EE0FFF1FE253FE4FA5914B
:1009D000B4919FB7F894311104C08C9120952823CD
:1009E00002C0EC912E2B2C939FBF08953FB7F89433
:1009F0008091570290915802A0915902B0915A02E9
:100A000026B5A89B05C02F3F19F00196A11DB11D69
:100A10003FBFBA2FA92F982F8827820F911DA11DA4
:100A2000B11DBC01CD0142E0660F771F881F991FE1
:100A30004A95D1F708954F925F926F927F928F926D
:100A4000AF92BF92CF92DF92EF920F931F93CF930B
:100A5000DF933C01EB01CADFF30127853089621B7C
:100A6000730B6A307105B8F3F894E881F98178B1B5
:100A7000716068B16E7F68B9CA848F812C2D281B84
:100A8000822F2F83BF844A805B801D850C85DE8486
:100A90001F5F0F5FD3949E813885A984EB844181C9
:100AA000D20120E0C32F522F322F31814427889466
:100AB0003111380F08F43FEF8195889410FD430FF2
:100AC0004795889411FD430F4795889412FD430F75
:100AD0004795889413FD430F4795889414FD430F61
:100AE0004795889415FD430F4795889416FD430F4D
:100AF0004795889417FD430F47958894232F11112C
:100B0000242F8C0D422F002C78B900C047FF68B904
:100B100030812227889400C000C0002C68B93111B0
:100B2000390F00C0002C78B900C046FF68B908F43E
:100B30003FEF9195889400C000C0002C68B900FD7B
:100B4000230F00C0002C78B900C045FF68B9279575
:100B5000889401FD230F00C000C0002C68B92795C0
:100B6000889400C0002C78B900C044FF68B902FD29
:100B7000230F2795889400C000C0002C68B903FD9E
:100B8000230F00C0002C78B900C043FF68B9279537
:100B9000889404FD230F00C000C0002C68B927957D
:100BA000889400C0002C78B900C042FF68B905FDE8
:100BB000230F2795889400C000C0002C68B906FD5B
:100BC000230F00C0002C78B900C041FF68B92795F9
:100BD000889407FD230F00C000C0002C68B927953A
:100BE000889400C0002C78B900C040FF68B9432F3A
:100BF0000111422F9A0D00C000C0002C68B900C03E
:100C000000C0002C78B900C047FF68B932812227A4
:100C1000889400C000C0002C68B931113C0F00C09E
:100C2000002C78B900C046FF68B908F43FEFEB0D1F
:100C3000F11D00C000C0002C68B9D0FC230F00C01B
:100C4000002C78B900C045FF68B927958894D1FC7D
:100C5000230F00C000C0002C68B92795889400C0FD
:100C6000002C78B900C044FF68B9D2FC230F279547
:100C7000889400C000C0002C68B9D3FC230F00C0CA
:100C8000002C78B900C043FF68B927958894D4FC3C
:100C9000230F00C000C0002C68B92795889400C0BD
:100CA000002C78B900C042FF68B9D5FC230F279506
:100CB000889400C000C0002C68B9D6FC230F00C087
:100CC000002C78B900C041FF68B927958894D7FCFB
:100CD000230F00C000C0002C68B92795889400C07D
:100CE000002C78B900C040FF68B9432FD110422FC3
:100CF000C19500C000C0002C68B9CE0D00C000C076
:100D000078B900C047FF68B931812227889400C0B4
:100D100000C0002C68B93111380F00C0002C78B920
:100D200000C046FF68B908F43FEF8195889400C081
:100D300000C0002C68B910FD230F00C0002C78B94A
:100D400000C045FF68B92795889411FD230F00C0A6
:100D500000C0002C68B92795889400C0002C78B991
:100D600000C044FF68B912FD230F2795889400C086
:100D700000C0002C68B913FD230F00C0002C78B907
:100D800000C043FF68B92795889414FD230F00C065
:100D900000C0002C68B92795889400C0002C78B951
:100DA00000C042FF68B915FD230F2795889400C045
:100DB00000C0002C68B916FD230F00C0002C78B9C4
:100DC00000C041FF68B92795889417FD230F00C024
:100DD00000C0002C68B92795889400C0002C78B911
:100DE00000C040FF68B9432F1111422F8C0D00C085
:100DF00000C0002C68B9119709F086CE20EE31E0D2
:100E0000D20113D7DC01CB01F4E0B695A7959795F5
:100E10008795FA95D1F720E030E0B901EAE94E9ED6
:100E2000040C611D5E9E600D711D1124650D711D08
:100E3000860F971FA11DB11D893E43E09407A105B0
:100E4000B10508F434C0885E9340A109B10942E0BD
:100E5000B695A795979587954A95D1F747E0849FD2
:100E6000080E211D949F200D311D1124290F311DC5
:100E70006091540270E0860F971F820F931F40917C
:100E80009C0250919D0260919E0270919F02292FB9
:100E90003327420F531F611D711D40939C025093D5
:100EA0009D0260939E0270939F02809354027894F7
:100EB0009DDDF301708B6787DF91CF911F910F91BB
:100EC000EF90DF90CF90BF90AF908F907F906F901A
:100ED0005F904F9008951F920F920FB60F921124BA
:100EE0002F933F938F939F93AF93BF9380919C02D7
:100EF00090919D02A0919E02B0919F023091560266
:100F000023E0230F2D3720F40196A11DB11D05C04C
:100F100026E8230F0296A11DB11D2093560280934F
:100F20009C0290939D02A0939E02B0939F02809199
:100F3000570290915802A0915902B0915A0201961D
:100F4000A11DB11D8093570290935802A09359029E
:100F5000B0935A02BF91AF919F918F913F912F9182
:100F60000F900FBE0F901F901895CF92DF92EF92C7
:100F7000FF920F931F93CF93DF936C017A018B0144
:100F8000C0E0D0E0CE15DF0581F0D8016D918D0174
:100F9000D601ED91FC910190F081E02DC6011995EB
:100FA000892B11F02196EECF7E01C701DF91CF9101
:100FB0001F910F91FF90EF90DF90CF900895AF9227
:100FC000BF92CF92DF92EF92FF920F931F93CF9336
:100FD000DF931F921F92CDB7DEB769834A83880FD4
:100FE000991F0091320410913304000F111FECED92
:100FF000F3E09F012C5D33402017310714F4119268
:10100000F8CF2981FC01E452FC4F21838A8180833F
:1010100060E0809130046CDC101611061CF5015064
:101020001109F801E452FC4FC080B0902E04A0904A
:101030002C0487E0E82EF12CD12CB6010E2C02C036
:10104000759567950A94E2F761708A2D51DC61E02D
:101050008B2D4EDC60E08B2D4BDC81E0E81AF10833
:1010600060F7DACF61E0809130040F900F90DF914C
:10107000CF911F910F91FF90EF90DF90CF90BF9095
:10108000AF9036CCEF92FF920F931F93CF937C01DA
:101090008C0183E0000F111F8A95E1F704511C4F6A
:1010A000C1E0F80111928F0140E06C2FC70187DF8A
:1010B000CF5FC930B1F7CF911F910F91FF90EF90A3
:1010C0000895E2EAF2E0278130858217930731F034
:1010D000399623E0E233F207B1F702C0309781F48A
:1010E000E2EAF2E027813085232B41F0399623E0B4
:1010F000E233F207B9F780E090E0089590878783A4
:10110000768365831082CF0108953F924F925F925C
:101110006F927F928F929F92AF92BF92CF92DF9207
:10112000EF92FF920F931F93CF93DF9300D0CDB731
:10113000DEB7F82E8091D2039091D303A091D4030F
:10114000B091D503892B8A2B8B2BE1F04FDC0091DA
:101150003A0410913B0420913C0430913D04DC01A1
:10116000CB01801B910BA20BB30B0091D20310910A
:10117000D3032091D4033091D50380179107A207A0
:10118000B307C0F233DC60933A0470933B0480935E
:101190003C0490933D04E091DA03F091DB03309737
:1011A00059F04091D6035091D7036091D8037091C4
:1011B000D9038F2D1995F82E0091A0021091A1024C
:1011C0004F2C512C612C712C0115110509F45DC0B7
:1011D000D8011C96EC901C978091D0039091D1037C
:1011E0008436910510F41C961C92D801ED91FC9167
:1011F000A280B38019821A821B82F11014C0F801F8
:1012000045855685628173819E012F5F3F4FC801DE
:10121000F5011995D8011C96EC921C9714960D9126
:101220001C911597D1CFF8013696CE0101966C012D
:10123000480199E0890E911C21912223F9F0328016
:101240003320E1F0822F90E0A0E0B0E09C01AD01FE
:101250002F5F3F4F4F4F5F4FC301B201BCD49B0183
:10126000AC01832D90E0A0E0B0E0BC01CD016F5F48
:101270007F4F8F4F9F4FAFD4D6018C93BFEFCB1AC8
:10128000DB0AE815F905C1F6BACF809138049091D0
:1012900039049C012F5F3F4F309339042093380469
:1012A00049970CF446C08FB7F89400919C021091B6
:1012B0009D0220919E0230919F028FBFE0913804E1
:1012C000F091390488EE93E0E89FB001E99F700D3A
:1012D000F89F700D1124072E000C880B990BC090FD
:1012E0003404D0903504E0903604F0903704A9011E
:1012F00098012C193D094E095F09D7D33093D103CA
:101300002093D00310923904109238042FB7F89428
:1013100080919C0290919D02A0919E02B0919F02AB
:101320002FBF8093340490933504A0933604B09378
:1013300037040F900F900F90DF91CF911F910F9175
:10134000FF90EF90DF90CF90BF90AF909F908F90E5
:101350007F906F905F904F903F9008950F931F93F1
:10136000CF93E8E7F2E0BCE3B80F15E5A0E060EF4B
:101370007BEA0AEACFE0382F3F71330F330F330F88
:10138000232F219F020E20E0211D1124922F482F90
:101390004074282F207287FD20C041110AC02111FE
:1013A00003C0492F40950FC025E5290F40E09BEA77
:1013B00035C021110FC0309F030E30E0311D1124C4
:1013C000472F431B9655442309F433C0292F942FEC
:1013D00040E024C0292F209551C041110FC0211198
:1013E0000AC0309F030E30E0311D1124272F231B2C
:1013F00095E5930F43C0492F40950DC0211106C0BC
:1014000035E5390F472F491B932F05C02AEA290FCD
:10141000412F491B922F20E09923A1F0392F369FAD
:10142000030E30E0311D932F222361F0392F922FCC
:1014300003C0992331F130E0292F269F020E20E0CE
:10144000211D932F442321F0469F040E40E0411DAF
:1014500011245C2F559F050E50E0511D1124392F8A
:10146000350F3083250F2183450F42838B5F3396E1
:101470008B1381CFCF911F910F910895492F90E049
:10148000D3CF20E0492FE4CF0F931F93CF93DF9367
:10149000CDB7DEB7C054D1090FB6F894DEBF0FBE8A
:1014A000CDBFAE01465B5F4F6BE372E08E010F5F15
:1014B0001F4FC801D8D3F80101900020E9F73197F8
:1014C000AF01401B510BB80182E393E04EDD42E0D7
:1014D00050E060E572E082E393E047DDC05CDF4FFF
:1014E0000FB6F894DEBF0FBECDBFDF91CF911F9135
:1014F0000F910895789484B5826084BD84B581602D
:1015000084BD85B5826085BD85B5816085BD8091CE
:101510006E00816080936E00109281008091810046
:10152000826080938100809181008160809381003E
:10153000809180008160809380008091B100846000
:101540008093B1008091B00081608093B000809161
:1015500091008260809391008091910081608093DE
:101560009100809190008160809390008091A10013
:1015700082608093A1008091A10081608093A1008E
:101580008091A00081608093A00080912101826001
:1015900080932101809121018160809321018091BC
:1015A000200181608093200180917A008460809383
:1015B0007A0080917A00826080937A0080917A002C
:1015C000816080937A0080917A00806880937A00AD
:1015D0001092C1000BDA4B015C0184EFC82EDD24B0
:1015E000D394E12CF12C02DADC01CB0188199909A2
:1015F000AA09BB09883E9340A105B105A0F321E0EB
:10160000C21AD108E108F10888EE880E83E0981E1E
:10161000A11CB11CC114D104E104F10421F7E09133
:101620004203F091430382E08083E0913E03F09116
:101630003F031082E0914003F091410383E38083F4
:1016400010924A03E0914603F091470386E08083BD
:10165000E0914403F0914503808180618083E091B3
:101660004403F0914503808188608083E0914403C6
:10167000F0914503808180688083E0914403F0917C
:10168000450380818F7D808380E9E2EAF2E0DF011B
:101690001D928A95E9F71092060264E670E086ECE6
:1016A00093E00FDD80916E02811145C010926002BF
:1016B00010925F028FEF80936302809364028093A5
:1016C000650280936602809367028093680281E0DE
:1016D0008093690210926B0210926A021092620269
:1016E000109261028091A0029091A102892B31F4A5
:1016F0008DE592E09093A1028093A002E0915B02BD
:10170000F0915C02309721F08DE592E0958384831F
:101710008DE592E090935C0280935B0210926D02E3
:1017200010926C028BE192E090935E0280935D02D6
:1017300081E080936E02389A88E792E0909360028D
:1017400080935F028CE090E090936B0280936A023A
:101750008091D2039091D303A091D403B091D5038B
:10176000843CE9E09E07A105B10520F484EC99E0F2
:10177000A0E0B0E08093D2039093D303A093D4036E
:10178000B093D50381E0809377021092760280E0D7
:10179000E5DD8091CF03B9DC61E270E08EE793E094
:1017A00090DC8091320490913304181619062CF4C1
:1017B00041E06CE080E090E002DC809132049091A6
:1017C0003304181619062CF448E06AE080E090E033
:1017D000F6DB8091320490913304181619061CF43C
:1017E00080E090E04FDC0CED13E0C7E0D8E08091A2
:1017F000320490913304181619066CF4EC2FF0E0C3
:10180000E25BFE4F4491D80150964C936D2F6C1BB8
:1018100080E090E0D4DBC1500F5F1F4FCF3F39F71E
:1018200019E08FB7F894C0909C02D0909D02E09090
:101830009E02F0909F028FBFC2EAD2E0EF81F8854E
:10184000309719F40E945602ECCF89819A81AB81BE
:10185000BC81B701A601481B590B6A0B7B0B8D811C
:101860009E81A0E0B0E0481759076A077B0778F02F
:10187000888180FF06C0FE01212F11922A95E9F789
:1018800006C081FF1995C982DA82EB82FC82299613
:1018900083E0C233D80791F6D5CF90E0FC01E85B36
:1018A000FD4F2491FC01EE5FFD4F8491882399F058
:1018B00090E0880F991FFC01E851FE4FA591B4916B
:1018C000FC01E253FE4F859194918FB7F894EC910F
:1018D000E22BEC938FBF0895CF93DF9310923503E3
:1018E0001092340388EE93E0A0E0B0E080933603DA
:1018F00090933703A0933803B09339038DE292E0BD
:10190000909333038093320385EC90E090933F03F0
:1019100080933E0384EC90E09093410380934003D6
:1019200080EC90E0909343038093420381EC90E03D
:10193000909345038093440382EC90E09093470397
:101940008093460386EC90E090934903809348038C
:1019500010924B0310924C0310924D0310924E03C1
:101960008FEF8093CF031092D1031092D003109287
:10197000DB031092DA038FEF9FEFDC018093D60335
:101980009093D703A093D803B093D903C3E3D0E0D7
:10199000D0932D04C0932C0484E390E090932F0403
:1019A00080932E0485E390E090933104809330047B
:1019B00081E090E0909333048093320483E36DDF01
:1019C00080912E046ADF8091300467DF61E08091AE
:1019D00030040E947804D0932D04C0932C04ECEEC4
:1019E000F3E0119284E0EC32F807D9F7C0E0D0E0E0
:1019F0008091320490913304C817D9076CF540E008
:101A00006FE0CE01DCDAD7FD0BC0809132049091FB
:101A10003304C817D90724F447E06BE0CE01CFDACE
:101A200040E069E0CE01CBDAD7FD14C080913204EA
:101A300090913304C817D90714F4CE0123DB8091A9
:101A4000320490913304C817D90724F440E06CE0C5
:101A5000CE01B5DA2196CCCFDF91CF910895052E36
:101A600097FB16F400940FD057FD05D01ED007FC4D
:101A700002D046F408C050954095309521953F4FCF
:101A80004F4F5F4F089590958095709561957F4F6A
:101A90008F4F9F4F08952BD0A59F900DB49F900D11
:101AA000A49F800D911D11240895A1E21A2EAA1B56
:101AB000BB1BFD010DC0AA1FBB1FEE1FFF1FA217FE
:101AC000B307E407F50720F0A21BB30BE40BF50BFB
:101AD000661F771F881F991F1A9469F76095709584
:101AE000809590959B01AC01BD01CF010895A29F07
:101AF000B001B39FC001A39F700D811D1124911DE2
:101B0000B29F700D811D1124911D089540D008F4DD
:101B100081E00895E89409C097FB3EF49095809584
:101B2000709561957F4F8F4F9F4F9923A9F0F92FA3
:101B300096E9BB279395F695879577956795B79521
:101B4000F111F8CFFAF4BB0F11F460FF1BC06F5F07
:101B50007F4F8F4F9F4F16C0882311F096E911C019
:101B6000772321F09EE8872F762F05C0662371F03A
:101B700096E8862F70E060E02AF09A95660F771F4E
:101B8000881FDAF7880F9695879597F90895990F2A
:101B90000008550FAA0BE0E8FEEF16161706E80737
:101BA000F907C0F012161306E407F50798F0621B58
:101BB000730B840B950B39F40A2661F0232B242B2D
:101BC000252B21F408950A2609F4A140A6958FEF4C
:101BD000811D811D0895DB018F939F935CDFBF9171
:101BE000AF91A29F800D911DA39F900DB29F900D6C
:101BF0001124089597FB072E16F4009406D077FD64
:101C000008D019D007FC05D03EF4909581959F4FE0
:101C10000895709561957F4F0895EE0FFF1F881FFF
:101C20008BBF0790F691E02D199461DFB7FF0895FF
:101C3000821B930B0895AA1BBB1B51E107C0AA1F6F
:101C4000BB1FA617B70710F0A61BB70B881F991F5D
:101C50005A95A9F780959095BC01CD01089581E032
:101C600090E0F894D5C20F931F93CF93DF93CDB735
:101C7000DEB72E970FB6F894DEBF0FBECDBF8C0136
:101C800086E08C831A8309838FEF9FE79E838D8381
:101C9000CE01019610D0EF81F885E00FF11F108280
:101CA0002E960FB6F894DEBF0FBECDBFDF91CF9159
:101CB0001F910F9108952F923F924F925F926F92D2
:101CC0007F928F929F92AF92BF92CF92DF92EF92CC
:101CD000FF920F931F93CF93DF93CDB7DEB72B9770
:101CE0000FB6F894DEBF0FBECDBF6C017B018A0139
:101CF000FC0117821682838181FFBFC1CE0101964C
:101D00003C01F6019381F70193FD859193FF819149
:101D10007F01882309F4ADC1853239F493FD8591A3
:101D200093FF81917F01853221F4B60190E0D6D1F5
:101D3000E8CF912C212C312CFFE1F315D8F08B3218
:101D400079F038F4803279F08332A1F4232D2061C8
:101D50001DC08D3261F0803369F4232D216016C0DF
:101D6000832D8260382EE32DE4603E2E2AC0F32DB1
:101D7000F8601DC037FC2DC020ED280F2A3040F040
:101D80008E32B9F436FC75C1232D2064322E19C071
:101D900036FE06C08AE0989E200D1124922E11C0B6
:101DA000EAE02E9E200D1124222EF32DF0623F2E0C
:101DB00008C08C3621F4832D8068382E02C0883606
:101DC00041F4F70193FD859193FF81917F0181118A
:101DD000B3CF982F9F7D9554933028F40C5F1F4FFD
:101DE0009FE399830DC0833631F0833771F08335DB
:101DF00009F055C020C0F801808189830E5F1F4F14
:101E000088248394912C530112C02801F2E04F0ED4
:101E1000511CF801A080B18036FE03C0692D70E02E
:101E200002C06FEF7FEFC5014ED14C018201F32D4F
:101E3000FF773F2E15C0280122E0420E511CF80109
:101E4000A080B18036FE03C0692D70E002C06FEF44
:101E50007FEFC5012DD14C01F32DF0683F2E82019B
:101E600033FC19C0822D90E088169906A0F4B601C3
:101E700080E290E033D12A94F5CFF50137FC8591CB
:101E800037FE81915F01B60190E028D121102A949C
:101E900021E0821A91088114910479F7E1C0843617
:101EA00011F0893639F5F80137FE07C0608171817C
:101EB000828193810C5F1F4F08C060817181072E62
:101EC000000C880B990B0E5F1F4FF32DFF763F2EF2
:101ED00097FF09C090958095709561957F4F8F4FC2
:101EE0009F4FF0683F2E2AE030E0A30133D1882EC7
:101EF000861844C0853731F4232D2F7EB22E2AE078
:101F000030E025C0932D997FB92E8F36C1F018F49B
:101F1000883579F0AEC0803719F0883721F0A9C034
:101F2000E92FE061BE2EB4FE0DC0FB2DF460BF2E84
:101F300009C034FE0AC0292F2660B22E06C028E050
:101F400030E005C020E130E002C020E132E0F801DD
:101F5000B7FE07C060817181828193810C5F1F4F42
:101F600006C06081718180E090E00E5F1F4FA30189
:101F7000F1D0882E8618FB2DFF773F2E36FE0DC040
:101F8000232D2E7FA22E891458F434FE0BC032FC70
:101F900009C0832D8E7EA82E05C0B82CA32C03C0AB
:101FA000B82C01C0B92CA4FE0FC0FE01E80DF11D34
:101FB0008081803321F49A2D997EA92E09C0A2FE3A
:101FC00006C0B394B39404C08A2D867809F0B39404
:101FD000A3FC10C0A0FE06C0B21480F4280C922C02
:101FE0009B180DC0B21458F4B60180E290E076D090
:101FF000B394F8CFB21418F42B1802C0982C212CEB
:10200000A4FE0FC0B60180E390E068D0A2FE16C027
:10201000A1FC03C088E790E002C088E590E0B6012B
:102020000CC08A2D867851F0A1FE02C08BE201C05F
:1020300080E2A7FC8DE2B60190E050D0891430F424
:10204000B60180E390E04AD09A94F8CF8A94F301E5
:10205000E80DF11D8081B60190E040D08110F6CFEF
:10206000222009F44ECEB60180E290E037D02A94C7
:10207000F7CFF6018681978102C08FEF9FEF2B96F5
:102080000FB6F894DEBF0FBECDBFDF91CF911F9189
:102090000F91FF90EF90DF90CF90BF90AF909F9007
:1020A0008F907F906F905F904F903F902F9008950A
:1020B000FC010590615070400110D8F78095909513
:1020C0008E0F9F1F0895FC01615070400190011018
:1020D000D8F7809590958E0F9F1F08950F931F93AB
:1020E000CF93DF93FB01238121FD03C08FEF9FEF8F
:1020F0002CC022FF16C046815781248135814217AA
:10210000530744F4A081B1819D012F5F3F4F31837C
:1021100020838C93268137812F5F3F4F378326831F
:1021200014C08B01EC01FB010084F185E02D1995B1
:10213000892BE1F6D80116968D919C9117970196FF
:1021400017969C938E931697CE01DF91CF911F9196
:102150000F910895FA01AA27283051F1203181F119
:10216000E8946F936E7F6E5F7F4F8F4F9F4FAF4F9F
:10217000B1E03ED0B4E03CD0670F781F891F9A1FB2
:10218000A11D680F791F8A1F911DA11D6A0F711D66
:10219000811D911DA11D20D009F468943F912AE072
:1021A000269F11243019305D3193DEF6CF0108955A
:1021B000462F4770405D4193B3E00FD0C9F7F6CF8B
:1021C000462F4F70405D4A3318F0495D31FD405253
:1021D000419302D0A9F7EACFB4E0A69597958795E9
:1021E00077956795BA95C9F70097610571050895C8
:1021F0009B01AC010A2E0694579547953795279574
:10220000BA95C9F7620F731F841F951FA01D08950B
:04221000F894FFCF70
:102214003600000000000100000000170417041736
:10222400045B0357035403000000001203CF02CDE4
:10223400025B0357037A011B0500000000E901B5A6
:102244000781013502B2019001A401706F74256900
:102254003A207261772025692C206D56202569006B
:042264000D0A00005F
:00000001FF
