:1000000072C00000A0C000009EC000009CC00000A4
:100010009AC0000098C0000096C0000094C0000084
:1000200092C0000090C000008EC000008CC0000094
:100030008AC0000088C0000086C0000084C00000A4
:1000400082C0000080C000007EC000007CC00000B4
:100050007AC0000078C0000076C00000E6C500004D
:1000600072C0000037C300000CC300006CC0000069
:100070006AC0000068C0000066C0000064C00000E4
:1000800062C0000060C000005EC000005CC00000F4
:100090005AC0000058C0000056C0000054C0000004
:1000A00052C0000050C000004EC000004CC0000014
:1000B0004AC0000048C0000046C0000044C0000024
:1000C00042C0000040C000003EC000003CC0000034
:1000D0003AC0000038C0000036C0000034C0000044
:1000E00032C00000250A11241FBECFEFD1E2DEBFCF
:1000F000CDBF00E00CBF12E0A0E0B2E0EEEAFBE111
:1001000000E00BBF02C007900D92AC36B107D9F7E3
:1001100024E0ACE6B2E001C01D92A130B207E1F7E5
:1001200010E0C3E7D0E000E006C021970109802F6E
:10013000FE010E94F40AC237D10780E00807A9F740
:10014000EBD70C94D50D5CCF80E991E0089508952C
:1001500080E090E00895FC01538D448D252F30E020
:10016000842F90E0821B930B541710F0CF960895C4
:1001700001970895FC01918D828D981761F0828D11
:10018000DF01A80FB11D5D968C91928D9F5F9F73CB
:10019000928F90E008958FEF9FEF0895FC01918D6D
:1001A000828D981731F0828DE80FF11D858D90E0DA
:1001B00008958FEF9FEF0895FC01918D228D892F77
:1001C00090E0805C9F4F821B91098F73992708955F
:1001D0008DE493E0F1DF21E0892B09F420E0822F08
:1001E0000895FC01848DDF01A80FB11DA35ABF4FF4
:1001F0002C91848D90E001968F739927848FA68926
:10020000B7892C93A089B1898C91837080648C9379
:10021000938D848D981306C00288F389E02D808128
:100220008F7D80830895EF92FF920F931F93CF935A
:10023000DF93EC0181E0888F9B8D8C8D981305C036
:10024000E889F989808185FD25C0F62E0B8D10E0A7
:100250000F5F1F4F0F731127E02E8C8DE8120BC01C
:100260000FB607FCFACFE889F989808185FFF5CFC1
:10027000CE01B7DFF2CF8B8DFE01E80FF11DE35AFF
:10028000FF4FF0829FB7F8940B8FEA89FB8980813A
:1002900080620AC09FB7F894EE89FF896083E8897D
:1002A000F98980818370806480839FBF81E090E0C2
:1002B000DF91CF911F910F91FF90EF900895CF9311
:1002C000DF93EC01888D8823C1F0EA89FB89808166
:1002D00085FD05C0A889B9898C9186FD0EC00FB631
:1002E00007FCF5CF808185FFF2CFA889B9898C9171
:1002F00085FFEDCFCE0175DFE8CFDF91CF91089577
:1003000080E090E0892B19F063DF811125C080E047
:1003100090E0892B41F080E090E0892B21F00E9451
:10032000000081111CC080E090E0892B41F080E04A
:1003300090E0892B21F00E940000811113C080E021
:1003400090E0892BA1F080E090E0892B81F00E9461
:10035000000081110AC008950E940000D8CF0E94B9
:100360000000E1CF0E940000EACF0C940000089545
:100370000F931F93CF93DF93209171022F5F322F42
:1003800037703093710220FF02C020E801C020E0E6
:1003900031FD2064347009F02062205FFC01EC0123
:1003A000239600E011E06485662331F070E0C80117
:1003B0000E94C70A6F5F01C060E06187322F369FDD
:1003C000030E30E0311D1124311102C0168202C02B
:1003D00031503683662311F0615061873196CE1714
:1003E000DF0709F7DF91CF911F910F910895229AAE
:1003F00008950F931F93CF93DF93CDB7DEB7629726
:100400000FB6F894DEBF0FBECDBF8C01F901DC0141
:100410001C968C917A8369835C834B835E834D83C6
:1004200090819D8791819E8792819F87813021F461
:10043000CE0101969DDF06C01C861B861A86198692
:1004400018861F8283E0888B1A8A198AD801ED9159
:10045000FC910484F585E02DBE016F5F7F4FC801DC
:10046000199562960FB6F894DEBF0FBECDBFDF912F
:10047000CF911F910F9108950F931F93CF93DF9307
:10048000CDB7DEB762970FB6F894DEBF0FBECDBF13
:100490008C01F901DC011C968C917A8369835C8361
:1004A0004B835E834D8390819D8791819E8792814E
:1004B0009F87813021F4CE0101965ADF06C01C8649
:1004C0001B861A86198618861F82188A1A8A198A24
:1004D000D801ED91FC910484F585E02DBE016F5F9C
:1004E0007F4FC801199562960FB6F894DEBF0FBE14
:1004F000CDBFDF91CF911F910F91089580E090E0E3
:100500000895FC01858596850895CF93DF9300D0EB
:1005100000D0CDB7DEB7AB011C821D821E82DC018C
:10052000ED91FC910190F081E02D19821A821B82DD
:100530009E012F5F3F4FBE016C5F7F4F199526963E
:100540000FB6F894DEBF0FBECDBFDF91CF910895F7
:100550008BE392E0DEC3809192028F5F80939202E0
:1005600045D58091EA0319C40E94FC0ACF93DF931A
:10057000CDB7DEB7C054D1090FB6F894DEBF0FBEB9
:10058000CDBFAE014A5B5F4FFA0161917191AF013E
:10059000CE0101960E94000BCE010196BAD3C05C39
:1005A000DF4F0FB6F894DEBF0FBECDBFDF91CF9106
:1005B0000895CF93DF9380917B00877F80937B00AA
:1005C0008091060220E4829FC001112480937C0068
:1005D00080917A00806480937A0080917A0086FD11
:1005E000FCCFC091780080917900D0E0D82BD093D7
:1005F0000302C093020224EE3CE0DE01DBD72FEFC2
:1006000033E040E050E05DD72093040230930502D0
:100610003F932F93DF93CF931F921F9289E492E031
:100620009F938F93A3DF8DB79EB708960FB6F8946C
:100630009EBF0FBE8DBFDF91CF91089580916C0258
:1006400090916D02A0916E02B0916F020196A11D72
:10065000B11D80936C0290936D02A0936E02B093D3
:100660006F02BF93AF939F938F938EE592E09F931A
:100670008F937CDF0F900F900F900F900F900F9043
:1006800008951F920F920FB60F9211240BB60F927E
:100690002F933F934F935F936F937F938F939F938A
:1006A000AF93BF93EF93FF938DE493E09ADDFF91B7
:1006B000EF91BF91AF919F918F917F916F915F91DA
:1006C0004F913F912F910F900BBE0F900FBE0F9047
:1006D0001F9018951F920F920FB60F9211240BB610
:1006E0000F922F938F939F93EF93FF93E0915D036E
:1006F000F0915E038081E0916303F091640382FDD9
:1007000012C09081809166038F5F8F732091670381
:10071000821751F0E0916603F0E0E35BFC4F958FA8
:100720008093660301C08081FF91EF919F918F912B
:100730002F910F900BBE0F900FBE0F901F9018952A
:100740003FB7F8948091730290917402A091750262
:10075000B091760226B5A89B05C02F3F19F00196EF
:10076000A11DB11D3FBFBA2FA92F982F8827820F37
:10077000911DA11DB11DBC01CD0142E0660F771F87
:10078000881F991F4A95D1F708954F925F926F92F3
:100790007F928F92AF92BF92CF92DF92EF920F93A0
:1007A0001F93CF93DF933C01EB01CADFF301278551
:1007B0003089621B730B6A307105B8F3F894E881D5
:1007C000F98175B1746065B16B7F65B9CA848F8139
:1007D0002C2D281B822F2F83BF844A805B801D8590
:1007E0000C85DE841F5F0F5FD3949E813885A984BA
:1007F000EB844181D20120E0C32F522F322F31816F
:10080000442788943111380F08F43FEF819588947C
:1008100010FD430F4795889411FD430F4795889429
:1008200012FD430F4795889413FD430F4795889415
:1008300014FD430F4795889415FD430F4795889401
:1008400016FD430F4795889417FD430F47958894ED
:10085000232F1111242F8C0D422F002C75B900C0AD
:1008600047FF65B930812227889400C000C0002C62
:1008700065B93111390F00C0002C75B900C046FFB1
:1008800065B908F43FEF9195889400C000C0002C32
:1008900065B900FD230F00C0002C75B900C045FFED
:1008A00065B92795889401FD230F00C000C0002C76
:1008B00065B92795889400C0002C75B900C044FF25
:1008C00065B902FD230F2795889400C000C0002C55
:1008D00065B903FD230F00C0002C75B900C043FFAC
:1008E00065B92795889404FD230F00C000C0002C33
:1008F00065B92795889400C0002C75B900C042FFE7
:1009000065B905FD230F2795889400C000C0002C11
:1009100065B906FD230F00C0002C75B900C041FF6A
:1009200065B92795889407FD230F00C000C0002CEF
:1009300065B92795889400C0002C75B900C040FFA8
:1009400065B9432F0111422F9A0D00C000C0002C41
:1009500065B900C000C0002C75B900C047FF65B97B
:1009600032812227889400C000C0002C65B9311163
:100970003C0F00C0002C75B900C046FF65B908F4F3
:100980003FEFEB0DF11D00C000C0002C65B9D0FC9D
:10099000230F00C0002C75B900C045FF65B927952D
:1009A0008894D1FC230F00C000C0002C65B92795A6
:1009B000889400C0002C75B900C044FF65B9D2FC12
:1009C000230F2795889400C000C0002C65B9D3FC84
:1009D000230F00C0002C75B900C043FF65B92795EF
:1009E0008894D4FC230F00C000C0002C65B9279563
:1009F000889400C0002C75B900C042FF65B9D5FCD1
:100A0000230F2795889400C000C0002C65B9D6FC40
:100A1000230F00C0002C75B900C041FF65B92795B0
:100A20008894D7FC230F00C000C0002C65B927951F
:100A3000889400C0002C75B900C040FF65B9432FF1
:100A4000D110422FC19500C000C0002C65B9CE0D59
:100A500000C000C075B900C047FF65B931812227C9
:100A6000889400C000C0002C65B93111380F00C057
:100A7000002C75B900C046FF65B908F43FEF8195B9
:100A8000889400C000C0002C65B910FD230F00C081
:100A9000002C75B900C045FF65B92795889411FDF4
:100AA000230F00C000C0002C65B92795889400C0B2
:100AB000002C75B900C044FF65B912FD230F2795BE
:100AC000889400C000C0002C65B913FD230F00C03E
:100AD000002C75B900C043FF65B92795889414FDB3
:100AE000230F00C000C0002C65B92795889400C072
:100AF000002C75B900C042FF65B915FD230F27957D
:100B0000889400C000C0002C65B916FD230F00C0FA
:100B1000002C75B900C041FF65B92795889417FD71
:100B2000230F00C000C0002C65B92795889400C031
:100B3000002C75B900C040FF65B9432F1111422F39
:100B40008C0D00C000C0002C65B9119709F086CE4D
:100B500020EE31E0D2012ED5DC01CB01F4E0B695D8
:100B6000A79597958795FA95D1F720E030E0B901E0
:100B7000EAE94E9E040C611D5E9E600D711D1124FC
:100B8000650D711D860F971FA11DB11D893E43E0A4
:100B90009407A105B10508F434C0885E9340A1090B
:100BA000B10942E0B695A795979587954A95D1F7F3
:100BB00047E0849F080E211D949F200D311D1124B4
:100BC000290F311D6091700270E0860F971F820F10
:100BD000931F4091B7025091B8026091B902709191
:100BE000BA02292F3327420F531F611D711D4093F5
:100BF000B7025093B8026093B9027093BA0280931F
:100C0000700278949DDDF301708B6787DF91CF913F
:100C10001F910F91EF90DF90CF90BF90AF908F908A
:100C20007F906F905F904F9008951F920F920FB634
:100C30000F9211242F933F938F939F93AF93BF9362
:100C40008091B7029091B802A091B902B091BA0216
:100C50003091720223E0230F2D3720F40196A11D5D
:100C6000B11D05C026E8230F0296A11DB11D2093DA
:100C700072028093B7029093B802A093B902B09326
:100C8000BA028091730290917402A0917502B091A2
:100C900076020196A11DB11D809373029093740298
:100CA000A0937502B0937602BF91AF919F918F91FF
:100CB0003F912F910F900FBE0F901F901895CF92DC
:100CC000DF92EF92FF920F931F93CF93DF936C010C
:100CD0007A018B01C0E0D0E0CE15DF0581F0D801AC
:100CE0006D918D01D601ED91FC910190F081E02D87
:100CF000C6011995892B11F02196EECF7E01C7010F
:100D0000DF91CF911F910F91FF90EF90DF90CF90E7
:100D10000895CF93DF93009771F0FC0101900020BC
:100D2000E9F73197AF01481B590BBC018DE493E003
:100D3000C6DFEC0102C0C0E0D0E042E050E069E66E
:100D400072E08DE493E0BBDF8C0F9D1FDF91CF91AC
:100D50000895EDEBF2E0278130858217930731F09B
:100D6000399623E0ED34F207B1F702C0309781F4F1
:100D7000EDEBF2E027813085232B41F0399623E01B
:100D8000ED34F207B9F780E090E00895908787830B
:100D9000758364831682CF0108953F924F925F92CC
:100DA0006F927F928F929F92AF92BF92CF92DF927B
:100DB000EF92FF920F931F93CF93DF9300D0CDB7A5
:100DC000DEB7F82E8091ED039091EE03A091EF0332
:100DD000B091F003892B8A2B8B2BE1F0B1DC0091D1
:100DE000FD031091FE032091FF0330910004DC010C
:100DF000CB01801B910BA20BB30B0091ED03109163
:100E0000EE032091EF033091F00380179107A207C2
:100E1000B307C0F295DC6093FD037093FE038093EB
:100E2000FF0390930004E091F503F091F6033097EF
:100E300059F04091F1035091F2036091F3037091E6
:100E4000F4038F2D1995F82E0091BB021091BC026E
:100E50004F2C512C612C712C0115110509F45DC02A
:100E6000D8011C96EC901C978091EB039091EC03B9
:100E70008436910510F41C961C92D801ED91FC91DA
:100E8000A280B38019821A821B82F11014C0F8016B
:100E900045855685628173819E012F5F3F4FC80152
:100EA000F5011995D8011C96EC921C9714960D919A
:100EB0001C911597D1CFF8013696CE0101966C01A1
:100EC000480199E0890E911C21912223F9F032808A
:100ED0003320E1F0822F90E0A0E0B0E09C01AD0172
:100EE0002F5F3F4F4F4F5F4FC301B20141D39B0173
:100EF000AC01832D90E0A0E0B0E0BC01CD016F5FBC
:100F00007F4F8F4F9F4F34D3D6018C93BFEFCB1AB7
:100F1000DB0AE815F905C1F6BACF8091FB03909181
:100F2000FC039C012F5F3F4F3093FC032093FB0396
:100F300049970CF446C08FB7F8940091B70210910E
:100F4000B8022091B9023091BA028FBFE091FB0341
:100F5000F091FC0388EE93E0E89FB001E99F700DEB
:100F6000F89F700D1124072E000C880B990BC09070
:100F7000F703D090F803E090F903F090FA03A90189
:100F800098012C193D094E095F09C1D23093EC0339
:100F90002093EB031092FC031092FB032FB7F894FD
:100FA0008091B7029091B802A091B902B091BA02B3
:100FB0002FBF8093F7039093F803A093F903B093A6
:100FC000FA030F900F900F90DF91CF911F910F9127
:100FD000FF90EF90DF90CF90BF90AF909F908F9059
:100FE0007F906F905F904F903F9008950F931F9365
:100FF000CF93E3E9F2E0BCE3B80F15E5A0E060EFC2
:101000007BEA0AEACFE0382F3F71330F330F330FFB
:10101000232F219F020E20E0211D1124922F482F03
:101020004074282F207287FD20C041110AC0211171
:1010300003C0492F40950FC025E5290F40E09BEAEA
:1010400035C021110FC0309F030E30E0311D112437
:10105000472F431B9655442309F433C0292F942F5F
:1010600040E024C0292F209551C041110FC021110B
:101070000AC0309F030E30E0311D1124272F231B9F
:1010800095E5930F43C0492F40950DC0211106C02F
:1010900035E5390F472F491B932F05C02AEA290F41
:1010A000412F491B922F20E09923A1F0392F369F21
:1010B000030E30E0311D932F222361F0392F922F40
:1010C00003C0992331F130E0292F269F020E20E042
:1010D000211D932F442321F0469F040E40E0411D23
:1010E00011245C2F559F050E50E0511D1124392FFE
:1010F000350F3083250F2183450F42838B5F339655
:101100008B1381CFCF911F910F910895492F90E0BC
:10111000D3CF20E0492FE4CF789484B5826084BD9A
:1011200084B5816084BD85B5826085BD85B58160EB
:1011300085BD80916E00816080936E001092810069
:101140008091810082608093810080918100816024
:1011500080938100809180008160809380008091E5
:10116000B10084608093B1008091B0008160809371
:10117000B0008091910082608093910080919100F5
:1011800081608093910080919000816080939000B5
:101190008091A10082608093A1008091A100816074
:1011A0008093A1008091A00081608093A000809135
:1011B00021018260809321018091210181608093CF
:1011C00021018091200181608093200180917A002B
:1011D000846080937A0080917A00826080937A00A4
:1011E00080917A00816080937A0080917A00806893
:1011F00080937A001092C100A3DA4B015C0184EF66
:10120000C82EDD24D394E12CF12C9ADADC01CB0139
:1012100088199909AA09BB09883E9340A105B1051F
:10122000A0F321E0C21AD108E108F10888EE880E87
:1012300083E0981EA11CB11CC114D104E104F10487
:1012400021F7E0915D03F0915E0382E08083E091FD
:101250005903F0915A031082E0915B03F0915C0313
:1012600083E3808310926503E0916103F091620350
:1012700086E08083E0915F03F0916003808180616C
:101280008083E0915F03F0916003808188608083B8
:10129000E0915F03F0916003808180688083E0913A
:1012A0005F03F091600380818F7D808380E9EDEBA7
:1012B000F2E0DF011D928A95E9F768EE73E08EE1B6
:1012C00093E047DD6CED75E088EA92E042DD109234
:1012D000060268E270E089ED92E03BDD80918A02CF
:1012E000811145C010927C0210927B028FEF809397
:1012F0007F02809380028093810280938202809398
:1013000083028093840281E0809385021092870299
:101310001092860210927E0210927D028091BB0292
:101320009091BC02892B31F489E792E09093BC0242
:101330008093BB02E0917702F0917802309721F020
:1013400089E792E09583848389E792E0909378021D
:101350008093770210928902109288028BE192E0CA
:1013600090937A028093790281E080938A02229A94
:1013700083E992E090937C0280937B028CE090E082
:1013800090938702809386028091ED039091EE0303
:10139000A091EF03B091F003843CE9E09E07A10522
:1013A000B10520F484EC99E0A0E0B0E08093ED0377
:1013B0009093EE03A093EF03B093F0031092920288
:1013C00080E014DE8091EA03E8DC64E170E08BEAFF
:1013D00092E0BFDC19E08FB7F894C090B702D090CC
:1013E000B802E090B902F090BA028FBFCDEBD2E024
:1013F000EF81F885309719F40E948001ECCF888145
:101400009981AA81BB81B701A601481B590B6A0BC0
:101410007B0B8C819D81A0E0B0E0481759076A07DB
:101420007B0768F01995C882D982EA82FB828E8197
:1014300080FF05C0DE01E12F1D92EA95E9F72996AC
:10144000F3E0CD34DF07A1F6D7CFEDE4F3E013826C
:10145000128288EE93E0A0E0B0E084839583A683B7
:10146000B7838DE292E09183808385EC90E095874D
:10147000848784EC90E09787868780EC90E0918B5E
:10148000808B81EC90E0938B828B82EC90E0958B4B
:10149000848B86EC90E0978B868B118E128E138E48
:1014A000148EEAEEF3E08FEF8083128211821486AD
:1014B00013868FEF9FEFDC0187839087A187B28728
:1014C0000895052E97FB16F400940FD057FD05D014
:1014D0001ED007FC02D046F408C0509540953095C8
:1014E00021953F4F4F4F5F4F089590958095709590
:1014F00061957F4F8F4F9F4F08952BD0A59F900DE3
:10150000B49F900DA49F800D911D11240895A1E218
:101510001A2EAA1BBB1BFD010DC0AA1FBB1FEE1F6D
:10152000FF1FA217B307E407F50720F0A21BB30BB8
:10153000E40BF50B661F771F881F991F1A9469F734
:1015400060957095809590959B01AC01BD01CF0190
:101550000895A29FB001B39FC001A39F700D811D8C
:101560001124911DB29F700D811D1124911D0895AC
:10157000DB018F939F93C1DFBF91AF91A29F800D3D
:10158000911DA39F900DB29F900D1124089597FB7C
:10159000072E16F4009406D077FD08D011D007FC72
:1015A00005D03EF4909581959F4F08957095619573
:1015B0007F4F0895CEDFB7FF0895821B930B0895E8
:1015C000AA1BBB1B51E107C0AA1FBB1FA617B70769
:1015D00010F0A61BB70B881F991F5A95A9F7809585
:1015E0009095BC01CD010895EE0FFF1F881F8BBFA2
:1015F0000790F691E02D199481E090E0F894D5C21F
:101600000F931F93CF93DF93CDB7DEB72E970FB60F
:10161000F894DEBF0FBECDBF8C0186E08C831A83A9
:1016200009838FEF9FE79E838D83CE01019610D0B3
:10163000EF81F885E00FF11F10822E960FB6F89417
:10164000DEBF0FBECDBFDF91CF911F910F910895E7
:101650002F923F924F925F926F927F928F929F92C2
:10166000AF92BF92CF92DF92EF92FF920F931F93B0
:10167000CF93DF93CDB7DEB72B970FB6F894DEBFCD
:101680000FBECDBF6C017B018A01FC01178216825F
:10169000838181FFBFC1CE0101963C01F601938198
:1016A000F70193FD859193FF81917F01882309F4D0
:1016B000ADC1853239F493FD859193FF81917F010E
:1016C000853221F4B60190E0D6D1E8CF912C212CBF
:1016D000312CFFE1F315D8F08B3279F038F48032F9
:1016E00079F08332A1F4232D20611DC08D3261F089
:1016F000803369F4232D216016C0832D8260382E3B
:10170000E32DE4603E2E2AC0F32DF8601DC037FCA7
:101710002DC020ED280F2A3040F08E32B9F436FC6F
:1017200075C1232D2064322E19C036FE06C08AE012
:10173000989E200D1124922E11C0EAE02E9E200DBD
:101740001124222EF32DF0623F2E08C08C3621F496
:10175000832D8068382E02C0883641F4F70193FD4E
:10176000859193FF81917F018111B3CF982F9F7D48
:101770009554933028F40C5F1F4F9FE399830DC05D
:10178000833631F0833771F0833509F055C020C0BE
:10179000F801808189830E5F1F4F88248394912CE8
:1017A000530112C02801F2E04F0E511CF801A08035
:1017B000B18036FE03C0692D70E002C06FEF7FEF8D
:1017C000C5014ED14C018201F32DFF773F2E15C08C
:1017D000280122E0420E511CF801A080B18036FEA3
:1017E00003C0692D70E002C06FEF7FEFC5012DD1FE
:1017F0004C01F32DF0683F2E820133FC19C0822D7D
:1018000090E088169906A0F4B60180E290E033D10A
:101810002A94F5CFF50137FC859137FE81915F0160
:10182000B60190E028D121102A9421E0821A910873
:101830008114910479F7E1C0843611F0893639F5C5
:10184000F80137FE07C060817181828193810C5F4E
:101850001F4F08C060817181072E000C880B990B07
:101860000E5F1F4FF32DFF763F2E97FF09C0909517
:101870008095709561957F4F8F4F9F4FF0683F2EF9
:101880002AE030E0A30133D1882E861844C0853782
:1018900031F4232D2F7EB22E2AE030E025C0932D87
:1018A000997FB92E8F36C1F018F4883579F0AEC023
:1018B000803719F0883721F0A9C0E92FE061BE2EEA
:1018C000B4FE0DC0FB2DF460BF2E09C034FE0AC06B
:1018D000292F2660B22E06C028E030E005C020E1A6
:1018E00030E002C020E132E0F801B7FE07C06081BD
:1018F0007181828193810C5F1F4F06C0608171816D
:1019000080E090E00E5F1F4FA301F1D0882E861873
:10191000FB2DFF773F2E36FE0DC0232D2E7FA22EEE
:10192000891458F434FE0BC032FC09C0832D8E7E1E
:10193000A82E05C0B82CA32C03C0B82C01C0B92C0C
:10194000A4FE0FC0FE01E80DF11D8081803321F45B
:101950009A2D997EA92E09C0A2FE06C0B394B39415
:1019600004C08A2D867809F0B394A3FC10C0A0FEB1
:1019700006C0B21480F4280C922C9B180DC0B2142F
:1019800058F4B60180E290E076D0B394F8CFB21468
:1019900018F42B1802C0982C212CA4FE0FC0B601FD
:1019A00080E390E068D0A2FE16C0A1FC03C088E7E7
:1019B00090E002C088E590E0B6010CC08A2D8678E0
:1019C00051F0A1FE02C08BE201C080E2A7FC8DE2D3
:1019D000B60190E050D0891430F4B60180E390E075
:1019E0004AD09A94F8CF8A94F301E80DF11D8081D2
:1019F000B60190E040D08110F6CF222009F44ECEFF
:101A0000B60180E290E037D02A94F7CFF6018681C4
:101A1000978102C08FEF9FEF2B960FB6F894DEBF31
:101A20000FBECDBFDF91CF911F910F91FF90EF902F
:101A3000DF90CF90BF90AF909F908F907F906F90EE
:101A40005F904F903F902F900895FC01059061505A
:101A500070400110D8F7809590958E0F9F1F0895C4
:101A6000FC016150704001900110D8F7809590956D
:101A70008E0F9F1F08950F931F93CF93DF93FB014A
:101A8000238121FD03C08FEF9FEF2CC022FF16C0E2
:101A900046815781248135814217530744F4A08140
:101AA000B1819D012F5F3F4F318320838C9326812D
:101AB00037812F5F3F4F3783268314C08B01EC01A2
:101AC000FB010084F185E02D1995892BE1F6D80101
:101AD00016968D919C911797019617969C938E93CD
:101AE0001697CE01DF91CF911F910F910895FA01C2
:101AF000AA27283051F1203181F1E8946F936E7F4D
:101B00006E5F7F4F8F4F9F4FAF4FB1E03ED0B4E03D
:101B10003CD0670F781F891F9A1FA11D680F791F7E
:101B20008A1F911DA11D6A0F711D811D911DA11D8F
:101B300020D009F468943F912AE0269F112430199F
:101B4000305D3193DEF6CF010895462F4770405D3A
:101B50004193B3E00FD0C9F7F6CF462F4F70405DE9
:101B60004A3318F0495D31FD4052419302D0A9F744
:101B7000EACFB4E0A6959795879577956795BA953E
:101B8000C9F700976105710508959B01AC010A2E04
:101B900006945795479537952795BA95C9F7620FDB
:0E1BA000731F841F951FA01D0895F894FFCF9A
:101BAE003600000000000100000000B402B402B4D0
:101BBE0002850281027E02000000003C02F901F75C
:101BCE000185028102A400C5030000000013015F1D
:101BDE0006AB005F01DC00BA00CE0068692C2069FC
:101BEE00276D2061646F6D2100706F7425693A2036
:101BFE007261772025692C206D562025690075703D
:0C1C0E0074696D653A202575000D0A0010
:00000001FF
